:020000040000fa
:080000000002040000000000f2
:020000040000fa
:0400080006070000e7
:020000040000fa
:04000c00cc02000022
:020000040000fa
:04001000d202000018
:020000040000fa
:04001400d80200000e
:020000040000fa
:04001800de02000004
:020000040000fa
:04001c00ee030000ef
:020000040000fa
:0400200006070000cf
:020000040000fa
:0400240006070000cb
:020000040000fa
:0400280006070000c7
:020000040000fa
:04002c0006070000c3
:020000040000fa
:0400300006070000bf
:020000040000fa
:0400340006070000bb
:020000040000fa
:040038000c050000b3
:020000040000fa
:04003c0006070000b3
:020000040000fa
:0400400006070000af
:020000040000fa
:0400440006070000ab
:020000040000fa
:04004800fa050000b5
:020000040000fa
:04004c0006070000a3
:020000040000fa
:04005000060700009f
:020000040000fa
:04005400060700009b
:020000040000fa
:040058000607000097
:020000040000fa
:04005c001c03000081
:020000040000fa
:040060001405000083
:020000040000fa
:04006400060700008b
:020000040000fa
:040068000607000087
:020000040000fa
:04006c000607000083
:020000040000fa
:04007000060700007f
:020000040000fa
:040074000c04000078
:020000040000fa
:040078000607000077
:020000040000fa
:04007c000607000073
:020000040000fa
:04008000060700006f
:020000040000fa
:04008400060700006b
:020000040000fa
:040088001c05000053
:020000040000fa
:04008c000607000063
:020000040000fa
:04009000060700005f
:020000040000fa
:04009400060700005b
:020000040000fa
:040098000607000057
:020000040000fa
:04009c000607000053
:020000040000fa
:0400a000f206000064
:020000040000fa
:0400a400c006000092
:020000040000fa
:0400a8000607000047
:020000040000fa
:0400ac000607000043
:020000040000fa
:0400b000060700003f
:020000040000fa
:0400b40080040000c4
:020000040000fa
:0400b800240500001b
:020000040000fa
:0400bc000607000033
:020000040000fa
:0400c000060700002f
:020000040000fa
:0400c400060700002b
:020000040000fa
:0400c8000607000027
:020000040000fa
:0400cc000607000023
:020000040000fa
:0400d000060700001f
:020000040000fa
:0400d400060700001b
:020000040000fa
:0400d8000607000017
:020000040000fa
:0400dc000607000013
:020000040000fa
:0400e0000203000017
:020000040000fa
:0400e4003e060000d4
:020000040000fa
:0400e8000607000007
:020000040000fa
:0400ec000607000003
:020000040000fa
:0400f00006070000ff
:020000040000fa
:0400f4002c050000d7
:020000040000fa
:0400f8006e04000092
:020000040000fa
:0400fc0006070000f3
:020000040000fa
:0401000006070000ee
:020000040000fa
:0401040006070000ea
:020000040000fa
:04010800c804000027
:020000040000fa
:04010c0006070000e2
:020000040000fa
:0401100006070000de
:020000040000fa
:0401140006070000da
:020000040000fa
:0401180006070000d6
:020000040000fa
:04011c00d403000008
:020000040000fa
:0401200006070000ce
:020000040000fa
:0401240006070000ca
:020000040000fa
:0401280006070000c6
:020000040000fa
:04012c0006070000c2
:020000040000fa
:04013000e6060000df
:020000040000fa
:0401340006070000ba
:020000040000fa
:0401380006070000b6
:020000040000fa
:04013c0006070000b2
:020000040000fa
:0401400006070000ae
:020000040000fa
:0401440006070000aa
:020000040000fa
:0402080006070000e5
:020000040000fa
:04020c00e402000008
:020000040000fa
:04021000ea020000fe
:020000040000fa
:04021400f0020000f4
:020000040000fa
:04021800f6020000ea
:020000040000fa
:04021c00fc020000e0
:020000040000fa
:0402200006070000cd
:020000040000fa
:0402240006070000c9
:020000040000fa
:0402280006070000c5
:020000040000fa
:04022c0006070000c1
:020000040000fa
:0402300006070000bd
:020000040000fa
:0402340006070000b9
:020000040000fa
:0402380006070000b5
:020000040000fa
:04023c0006070000b1
:020000040000fa
:0402400006070000ad
:020000040000fa
:0402440006070000a9
:020000040000fa
:0402480006070000a5
:020000040000fa
:04024c0006070000a1
:020000040000fa
:04025000060700009d
:020000040000fa
:040254000607000099
:020000040000fa
:040258000607000095
:020000040000fa
:04025c000607000091
:020000040000fa
:04026000060700008d
:020000040000fa
:040264000607000089
:020000040000fa
:040268000607000085
:020000040000fa
:04026c000607000081
:020000040000fa
:04027000060700007d
:020000040000fa
:040274000607000079
:020000040000fa
:040278000607000075
:020000040000fa
:04027c000607000071
:020000040000fa
:04028000060700006d
:020000040000fa
:040284000607000069
:020000040000fa
:040288000607000065
:020000040000fa
:04028c000607000061
:020000040000fa
:04029000060700005d
:020000040000fa
:040294000607000059
:020000040000fa
:040298000607000055
:020000040000fa
:04029c000607000051
:020000040000fa
:0402a000060700004d
:020000040000fa
:0402a4000607000049
:020000040000fa
:0402a8000607000045
:020000040000fa
:0402ac000607000041
:020000040000fa
:0402b000060700003d
:020000040000fa
:0402b4000607000039
:020000040000fa
:0402b8000607000035
:020000040000fa
:0402bc000607000031
:020000040000fa
:0402c000060700002d
:020000040000fa
:0402c4000607000029
:020000040000fa
:0402c8000607000025
:020000040000fa
:0402cc000607000021
:020000040000fa
:0402d000060700001d
:020000040000fa
:0402d4000607000019
:020000040000fa
:0402d8000607000015
:020000040000fa
:0402dc000607000011
:020000040000fa
:0402e000060700000d
:020000040000fa
:0402e4000607000009
:020000040000fa
:0402e8000607000005
:020000040000fa
:0402ec000607000001
:020000040000fa
:0402f00006070000fd
:020000040000fa
:0402f40006070000f9
:020000040000fa
:0402f80006070000f5
:020000040000fa
:0402fc0006070000f1
:020000040000fa
:0403000006070000ec
:020000040000fa
:0403040006070000e8
:020000040000fa
:0403080006070000e4
:020000040000fa
:04030c0006070000e0
:020000040000fa
:0403100006070000dc
:020000040000fa
:0403140006070000d8
:020000040000fa
:0403180006070000d4
:020000040000fa
:04031c0006070000d0
:020000040000fa
:0403200006070000cc
:020000040000fa
:0403240006070000c8
:020000040000fa
:0403280006070000c4
:020000040000fa
:04032c0006070000c0
:020000040000fa
:0403300006070000bc
:020000040000fa
:0403340006070000b8
:020000040000fa
:0403380006070000b4
:020000040000fa
:04033c0006070000b0
:020000040000fa
:0403400006070000ac
:020000040000fa
:0403440006070000a8
:020000040000fa
:10040000cf8820000e5b24000e0188000000000051
:10041000000020000000e000020032000001200087
:1004200020028800140007007a0207000000e000a4
:1004300003003a00404c2200010020000200370077
:100440000000200001002000810f70000100320038
:1004500014000700000020000000e000020032004d
:100460000000020000000000f80a02000000000086
:100470000040da000000fe004440a900a00920006e
:100480000000e0000300320000002000a00188000e
:100490004440a800000006008a1f78008b1f7800e7
:1004a0000000060091018800800478000000eb0045
:1004b0001a003700e284440032a0b4009905ba0063
:1004c000e284440032a0b4009906ba00e2844400f9
:1004d00032a0b4000006eb00476fde00fd07b2005b
:1004e000636ce10003003a00ebff07000000eb0043
:1004f0000a003700606ce10004003a00005deb0088
:100500008b05e900fdff3e00040037006168e10053
:10051000010032000086eb000b00070019c7ba008b
:100520001905ba000e04e00003003a000a00e000da
:10053000e0ff3a0000000600fe07b2009e018800be
:100540008a047800f5ff3700395dba008b05e900b1
:100550000c003200295dba008b05e900080032006a
:100560000c00e00003003a00e284440032a0b40032
:10057000f5ff370019ddba008b05e900faff3a00f4
:100580008904e800e184440032a0b40000000600c1
:100590008a210400000000000000fa008020a90069
:1005a000ffff37000000fa008060a900ffff37005e
:1005b0000000fa008040a900ffff37000000fa00a9
:1005c0008080a900ffff37000000fa008020a9000a
:1005d000ffff37000000fa008060a900ffff37002e
:1005e0000000fa008040a900ffff37000000fa0079
:1005f0008080a900ffff37000000fa0080a0a9005a
:10060000ffff37003400f800881f78000800200042
:10061000a80188004f0478000000fa0000000000e4
:10062000000000000000000089c0a9000080fa005e
:100630003400f900004006003600f800809fbe003c
:10064000829fbe00849fbe00869fbe003400f800db
:1006500000002000a00188000000fa007042800025
:10066000e30f5000010034004e28ef00704280007c
:10067000e10f500018003200e10f500003003c0071
:100680000000e000060032003d003700e20f50009d
:100690001f003200e30f50002b00320038003700fb
:1006a00000188000604288004119800000fe2f0081
:1006b000008060000020a000401988006142800096
:1006c00070428000ae060700704280000000e80023
:1006d000704288002a0037000018800060428800bd
:1006e0004119800000fe2f00008060009000b300e0
:1006f000401988006142800070428000690607004e
:10070000704280000000e800704288001c00370042
:1007100000188000604288004119800000fe2f0010
:10072000008060000030a000401988006142800015
:100730007042800092060700704280000000e800ce
:10074000704288000e003700001880006042880068
:100750004119800000fe2f00008060005000b300af
:1007600040198800614280007042800084060700c2
:10077000704280000000e800704288000000000025
:100780002023a80085a0a9000080fa003400f90009
:100790004f03be004f02be004f01be004f00be001f
:1007a0003600f900004006003400f800881f780089
:1007b00008002000a80188004f0478000000fa001b
:1007c0000000000000000000000000008ba0a90055
:1007d0000080fa003400f90000400600801f780015
:1007e0003400f80000002000a00188000000fa009a
:1007f000001e800080428800801c800080428800ab
:10080000e023ef0080a0a9000080fa003400f90086
:100810004f00780000400600809fbe000000fa00f4
:100820000000000000000000a1168000000420006d
:10083000008060000000e00002003a00100020008c
:1008400000428800a11680000004200000806000a3
:100850000000e000010032004028ef00a1168000f7
:1008600000082000008060000000e00004003a0062
:100870001000200010428800100020004042880034
:10088000a116800000082000008060000000e00049
:10089000010032004228ef00a11680000000220073
:1008a000008060000000e00002003a00100020001c
:1008b00020428800a1168000000022000080600015
:1008c0000000e000010032004428ef008660a9002b
:1008d0000080fa004f00be0000400600801f780034
:1008e0000000fa0010002000904288008a80a900d1
:1008f0003421ef000080fa004f007800004006002d
:100900003600f800809fbe00829fbe00849fbe001c
:10091000869fbe000000fa008860a9005020800079
:10092000610060000000e000010032000a04a9003c
:1009300050208000620060000000e0000d003200e6
:1009400000218000620060000000e000040032002e
:10095000b086200011c0b300014878002024a9000f
:1009600080862000630707000a24a90010002000e9
:10097000204088000080fa004f03be004f02be00f6
:100980004f01be004f00be003600f90000400600d7
:100990003600f800809fbe00829fbe00849fbe008c
:1009a000869fbe000000fa008b00a900502880003e
:1009b000610060000000e000010032000a05a900ab
:1009c00050288000620060000000e0000b00320050
:1009d00000298000620060000000e0000400320096
:1009e000d087200011c0b300014878002025a9005d
:1009f000a0872000430807000a25a9000080fa000c
:100a00004f03be004f02be004f01be004f00be00ac
:100a10003600f900004006000000fa008480a900ba
:100a20000080fa00004006000000fa0085c0a9001e
:100a30000080fa00004006000000fa008700a900cc
:100a40000080fa00004006000000fa008880a9003b
:100a50000080fa0000400600809fbe00829fbe001a
:100a60000000fa00e141800030062000808f500035
:100a700048003e00e04180000000e800e0418800be
:100a8000f141800010032000808f500043003e00a1
:100a90009040800080007800f0418000808f5000fe
:100aa0000600390080408000700060000000e00017
:100ab00002003200c402a80001003700c402a900ed
:100ac000a040800080007800f0418000808f5000be
:100ad0000600390080408000680060000000e000ef
:100ae00002003200c422a80001003700c422a9007d
:100af000b040800080007800f0418000808f50007e
:100b00000600390080408000640060000000e000c2
:100b100002003200c442a80001003700c442a9000c
:100b2000c040800080007800f0418000808f50003d
:100b30000600390080408000620060000000e00094
:100b400002003200c462a80001003700c462a9009c
:100b5000d040800080007800f0418000808f5000fd
:100b6000070039008040800061006000004078008c
:100b70000004e00002003200c482a8000100370037
:100b8000c482a900f04180000000e800f041880024
:100b9000020037003c28ef003e28ef00a041800013
:100ba000b141800061004000e0804800a041880021
:100bb000b1418800a2418000b341800070d4200080
:100bc00001002000800f5100818f59000400360081
:100bd00010002000804188003428ef003628ef0004
:100be0008a60a9000080fa004f01be004f00be00dd
:100bf00000400600809fbe000000fa00f040800028
:100c0000e10f50000b003a00d04180000000e800e6
:100c1000d0418800d1418000b0122000808f500068
:100c20000400360010002000e04088001e28ef007d
:100c30003a28ef0000418000e10f500009003a001f
:100c4000d04180000000e800d0418800d141800000
:100c500010032000808f5000020036002028ef0093
:100c60003a28ef000621ef000a21ef008500a900d5
:100c70000080fa004f00be0000400600809fbe00ca
:100c80000000fa00c04180000000e800c041880078
:100c9000c141800010032000808f500033003600d7
:100ca000201680004700de00614060000080fb00ed
:100cb00090418800c0e2a800000000000000000091
:100cc0000000000000000000000000000000000024
:100cd0000000000000000000000000000000000014
:100ce0000000000000000000000000000000000004
:100cf00000000000000000000000000000000000f4
:100d00000000000000000000111680000008200014
:100d1000008060000000e000010032004628ef0083
:100d20001116800000082000008060000000e00034
:100d300002003a001000200030428800c0e2a90002
:100d40003828ef009041800000407800614060004a
:100d50000080fb00610060004700dd00211680007c
:100d60000170a10001007000201688002221ef0010
:100d700089e0a9000080fa004f00be000040060094
:100d8000809fbe000000fa00a0428000016d240098
:100d9000614078000080fb00a0118800a042800024
:100da0000000e800a0428800a142800080092000e5
:100db000808f5000010034005428ef0087e0a90024
:100dc0000080fa004f00be00004006000000fa005c
:100dd00000000000000000008c40a9000080fa0024
:100de00000400600809fbe000000fa00b0118000a5
:100df00080407800f06d24000148780087c0a90089
:100e00000080fa004f00be00004006000040da00fb
:100e10000000fe000000050003f0a200889fbe0055
:100e20008a9fbe008c1f7800090107001001330063
:100e30006450e1004f0032006420e10052003200b3
:100e400003826c0007003b000905d0000306d000b8
:100e5000820f54000c065d000200390002003200cf
:100e600089017800030678008582550004003d0062
:100e70000003fd008103fd008502ea008b8542002e
:100e8000840f720002003b0060001000e080180038
:100e90006011b8000005eb007a28e1000a00390073
:100ea00006007800c75ddd00f707b2008780750097
:100eb0002d003700828171000a0178006105600011
:100ec0008180d1000080d3008502e900f9ff3b005a
:100ed000060440008784480002003b0060041400c0
:100ee000e0841c000988a300070032008a81710099
:100ef00082817100610164008904d1000884d300fb
:100f00008b05e800170037000978a30013003a00aa
:100f10000b00e000130034008b05e90008044400d6
:100f200089844c000a4474000978a3000d003a003b
:100f30000b00e000070034008b05e90008044400c2
:100f400089844c0001003a000b0020000978a300be
:100f5000f7ff32000001eb000200370082817100d0
:100f60000a0178007f0007000cf0a70001f0a00044
:100f7000c80037006420e10002003a00838f6c0053
:100f8000c80033000801be000200be00c1003700e7
:100f9000889fbe008a9fbe008c1f7800ac000700af
:100fa000b300330003866c006450e1002e00320071
:100fb0006420e100330032006150e1002f00320074
:100fc0006120e1003100320085855500eb07b0005b
:100fd0000900200008042000050037000804440030
:100fe00089844c000a0031000603430087834b00cc
:100ff0000001530081815b00f8ff33000203be0053
:101000000800a0000804440089844c00f6ff390061
:10101000c639dd0083017300010032001300200097
:101020008904d1000884d3000998a3000500320088
:101030000800a7000300a0008904d1000884d300a1
:101040008b05e8008904d1000884d3000001eb007f
:101050000281d2004300070001f0a1000cf0a700bc
:1010600001f0a0008b0037006420e1008d00320009
:101070000801be000200be00f7ff37006120e1005a
:10108000880032006000b800f3ff37000000200045
:1010900001f82700f0ff3700839f68000100e0009f
:1010a00002003d0060001000e08018000300e00036
:1010b00002003d0060011100e0811900b00007004e
:1010c0004f00e00002003b0060001000e0801800cc
:1010d000000006000001be00480007000470a700e1
:1010e00003f0a1006509b100160032000d003500c3
:1010f0006828e10006003500f0ff2f00f1ff27000f
:101100000300e00013003b00010028000000050080
:1011100000004000818048008502e900fcff3a00a1
:1011200008003700f88f420002003c008000eb000e
:10113000000005008100d1000080d3008502e80096
:10114000fcff3a000300e00002003b0060001000da
:10115000e0801800000006004f89de008201780060
:101160009700370081002000618055000b003d0092
:101170000b00200061fe2f000100e1001d00340083
:1011800082817100610164008904d1000884d30068
:101190000000e800faff3a007100200061006400de
:1011a0000300700002006000090032006104440086
:1011b000e0844c000988a500050032008b05e8009a
:1011c0006808e10002003a008904d1000884d300d5
:1011d000f20f20000258e10005003d00c75ddd0070
:1011e000f907b20089807500080078000000060049
:1011f0000bf827008b00780000000500c70ade000e
:10120000f107b200f50fb20008003200e1cf420052
:10121000020032000170a00024000500810f700060
:10122000010032000408050044000500810f700031
:1012300002003a00140005008502e90000004000a9
:1012400081c04800fcff3b000170a00024000500a5
:101250000004be00e9ff07000003be000405be0055
:101260000200be00e5ff0700844f75000000060085
:101270000200be006450e100050036006420e10079
:10128000020036000968a30001003a000800be0011
:101290000160a0004f0678004f05be004f04be005d
:1012a00000000600f0ff2f00f1ff2700f9ff3700d4
:1012b000889fbe008a9fbe008c1f7800e4ff070055
:1012c000ebff330003866c006450e1002400320021
:1012d0006420e100270032006150e100220032006a
:1012e0006120e100210032008b854200eb07b10054
:1012f0000134b800003ab8000804420089844a006a
:10130000013ab8000030b8008880400009014a0066
:1013100004003300000040008180480002014900c1
:101320008b05e900c909dd0083017000010032006e
:1013300013002000c814de004814dd004709de0059
:101340001200b200c808de000884700085ff0700a4
:1013500001f0a1000cf0a70001f0a000cdff3700c4
:101360006120e100cfff32000801be000200be0094
:10137000f7ff37006150e100fcff3a00c9ff37007a
:101380006022b800060220000000d0008180d20058
:101390000482d2008582d2000000a0000202520026
:1013a00083825a00030031000202420083824a0015
:1013b0000000a1000603e900f3ff3a000000060068
:1013c000881f7800030478000300e00007003d0058
:1013d00060001000e080180060011900e081190031
:1013e00002003b0001f02d0003003700040007005d
:1013f00008f0a70001f0a0004f04780000000600ec
:10140000889fbe008a9fbe000082700004027100a7
:1014100004827100260032000004be000200be00fb
:101420006011b8006b092000950220000182cf00f6
:101430000a0039000541b1000082cf0007003900e1
:101440000541b1000982cf00040039000541b10017
:101450000882cf00010039000541b1000542520069
:10146000120032000a003b008281710061016400b9
:101470008100d1000080d3008984d3000884d30088
:101480008b05e8000442e800f7ff3a000700370048
:101490000804440089844c00000048008180480012
:1014a0008b05e9000442e900f9ff3a002dff07002f
:0c14b0004f05be004f04be000000060007
:020000040000fa
:1014bc00566100006c6f0000722000006c6500002b
:1014cc00696400006f3a000020200000202000001a
:1014dc000d0a0000002d00002050000049430000c0
:1014ec0032340000482000002d2d00002047000061
:1014fc0031330000200d00000a000000332d0000e5
:10150c0020520000454100004c20000049430000df
:10151c00452000002d2d00002d2d00000d0a00008f
:10152c00004300006f6e0000737500006d6f0000cb
:10153c002043000050550000253a000020200000f8
:10154c00200d00000a0000004a6f000079730000b3
:10155c0074690000636b0000205800003a20000002
:10156c00307800002d2d00000d0a0000004a00000c
:10157c006f79000073740000696300006b20000039
:10158c00593a000020300000782d00002d0d00008d
:10159c000a0000004c6500006374000075720000c6
:1015ac0061200000506f0000743a00003078000099
:1015bc002d2d00000d0a0000004c0000656300009a
:1015cc00747500007261000020540000656d00000d
:1015dc003a300000782d00002d1b00005b48000005
:0415ec0000000000fb
:020000040000fa
:1015f0000600fa0000000000000000004506070099
:101600000080eb00601988000080eb005019880012
:1016100000000000000000008a0c0700b20c070068
:10162000c40c0700570d0700630d0700e10a07000f
:10163000e0a528008109200048020700430b0700ad
:10164000670d0700f80c0700350c0700840b070036
:10165000480b0700560b07009860a8000c04a80070
:101660000c24a800f30b0700b80b0700c50b0700fc
:101670009b00a8000c05a8000c25a8000000000095
:10168000000000000000000000000000000000005a
:1016900000000000310d070040428000e10f5000c3
:1016a00008003a00104180000000e8001041880066
:1016b00010418000e60f5000010036002228ef00a4
:1016c0004828ef0000428000e10f5000a2003a00dd
:1016d000404080000000e0009f003a001000200021
:1016e00040408800f06d2400104078000080fb002e
:1016f0006101b90000fd2f00f1ff2f000200400042
:10170000838048004203200003002000820f500025
:10171000838f58006d003e000060010034003700e8
:1017200036003700390037003c0037003f003700f3
:101730004200370045003700480037004b003700b3
:101740004e00370061003700600037005f0037004f
:101750005e0037005d0037005c0037005b0037003b
:101760005a0037005900370058003700570037003b
:10177000560037005500370054003700530037003b
:101780005200370051003700500037004f0037003b
:101790004e0037004d0037004c0037004b0037003b
:1017a0004a0037004900370048003700470037003b
:1017b000460037004500370044003700430037003b
:1017c0004200370041003700400037003f0037003b
:1017d0003e0037003d0037003c0037003b0037003b
:1017e0002a0037002d003700300037003300370063
:1017f0000228ef000628ef00370037001000200015
:10180000104088000628ef00330037002000200039
:10181000104088000628ef002f003700300020001d
:10182000104088000628ef002b0037004000200001
:10183000104088000628ef002700370050002000e5
:10184000104088000628ef002300370060002000c9
:10185000104088000628ef001f00370070002000ad
:10186000104088000628ef001b0037008000200091
:10187000104088000628ef00170037009000200075
:10188000104088000628ef0013003700a000200059
:10189000104088000628ef000f003700b00020003d
:1018a000104088000628ef000b003700b000200031
:1018b000104088000628ef0007003700d000200005
:1018c000104088000628ef000300370010002000b9
:1018d0003040880000000000304080000000e00040
:1018e00018003a00104080006101b90000ff2f008d
:1018f000f1ff2100001f7100019771001e00be0062
:10190000c200dd0000002000008fbe000002eb00de
:101910008000eb001e01be000000eb00dc060700ab
:10192000454424003433230023222200d2812100a5
:10193000810020000000eb00730707003064a8005e
:101940000500370030408000e10f500002003a00ef
:101950000828ef000628ef0000000000000000004b
:101960000000000000000000e0408000e10f500097
:101970000f003a000002eb008000eb001e01be00e9
:101980000000eb00c20607004504200034332300aa
:1019900023222200d2802100810020000000eb00e1
:1019a000590707003064a8001c28ef000828ef0042
:1019b000000000000000000020408000e10f500007
:1019c0002b013a000428ef0040408000e10f500056
:1019d00068003a0000872000104078000043b20001
:1019e0000ee8b700e18020009140780000c2b3000b
:1019f00080cf50004e003a00104080006101b900d5
:101a000000ff2f00f1ff2100001f710001977100fe
:101a10001e00be00c200dd0000002000008fbe00de
:101a20000002eb008000eb001e01be000000eb0096
:101a30009706070045442400343323002322220064
:101a4000d2f32100810020000000eb002e070700e8
:101a50003064a80010002000004188000000000051
:101a600000418000e10f5000fdff32000002eb005a
:101a70008000eb001e01be000000eb0084060700a2
:101a8000450420003433230023222200d2f3210016
:101a9000810020000000eb001b0707003064a80055
:101aa0000000000000418000e10f5000fdff320007
:101ab0000002eb008000eb001e01be000000eb0006
:101ac000730607002502200034332300434424001a
:101ad000d2f32100810020000000eb000a0707007c
:101ae0003064a8000000000000418000e10f5000b9
:101af000fdff32000002eb008000eb001e01be0083
:101b00000000eb00620607004504200024222200aa
:101b100033332300d2f32100810020000000eb00ca
:101b2000f90607003064a8000828ef000e0037000f
:101b30000002eb008000eb001e01be000000eb0085
:101b400053060700450420003433230023222200db
:101b5000d2802100810020000000eb00ea0607008f
:101b60003064a8000828ef000828ef000080fa0081
:101b700000000600404080000000e00048003a00fd
:101b800000872000104078000043b2000ee8b70044
:101b90000ec8bf00f04f500032003a00008720000e
:101ba000104078000081fb008001eb00f000200075
:101bb0000100200002027800030178008001780013
:101bc0000100780003026200000061008000eb0069
:101bd000c000dd00000020000001be006120b80050
:101be00000017100818171005240880063408800cb
:101bf000524080006340800000ff2f00f1ff210071
:101c00000000710081807100008fbe001e00be00c8
:101c1000c200dd0000002000008fbe000002eb00cb
:101c20008000eb001e01be000000eb00180607005c
:101c3000450420003433230023222200d2822100d5
:101c4000810020000000eb00af0607003064a80010
:101c5000200020004040880010002000f040880054
:101c6000830037000002eb008000eb001e01be0085
:101c70000000eb0006060700450420003433230073
:101c800023222200d2802100810020000000eb00ee
:101c90009d0607003064a8000828ef007400370094
:101ca00040408000e20f500071003a005240800036
:101cb0006340800000ff2f00f1ff21000000710051
:101cc00081807100008fbe001e00be00c200dd00da
:101cd00000002000008fbe00008720001040780028
:101ce0000080fb006f006000200798002e0090002d
:101cf0006101b9005040800061408000800f5100b8
:101d0000818f590046003a0000872000104078007b
:101d10000043b2000ee8b700e18020009140780057
:101d200000c3b30080cf500051003a00108720005c
:101d3000104078000080fb007f0060008040880039
:101d400020872000104078008080fb0020032000c6
:101d50000088b90080007800f00f200000017800b2
:101d6000110009008200d8009040880030872000d0
:101d7000104078008080fb00200320000088b9001c
:101d800080007800f00f20000001780011000900a9
:101d90008200d800a04088004087200010407800d2
:101da0008080fb00200320000088b90080007800bc
:101db000f00f200000017800110009008200d80017
:101dc000b040880050872000104078008080fb00e1
:101dd000200320000088b90080007800f00f200068
:101de00000017800110009008200d800c04088007e
:101df00060872000104078008080fb0020032000d6
:101e00000088b90080007800f00f20000001780001
:101e1000110009008200d800d0408800140037006b
:101e20002e0090006101b90000ff2f00f1ff21009a
:101e30000000710081807100c201dd0002002000fd
:101e40000002eb008000eb000000eb0090050700b3
:101e5000454424003433230023222200d280210071
:101e6000810020000000eb00270607003064a80076
:101e70000000000000000000504280000000e00070
:101e800002003a0009010700010037004f01070076
:101e9000000000000000000090428000e10f5000b0
:101ea0000a003a005228ef005400070008003700eb
:101eb000604180007141800061004000e080480086
:101ec0006041880071418800010037000000000077
:101ed000804180000000e000f5ff320000000000bb
:101ee0006041800071418000823e2000030020009c
:101ef00069fc0700604188007141880060418000f2
:101f0000714180007b0107003028ef002c28ef0092
:101f10002e28ef00ddfd37000000fa000002eb0084
:101f20008000eb0002ff2f00f3ff21000000eb0018
:101f300057050700454424003433230023222200a0
:101f4000d2812100810020000000eb00ee05070097
:101f50003064a8000080fa00000006000800fa00c3
:101f60001007980021079800ae009000800920001b
:101f7000808f50001f003e000000eb00000f780033
:101f8000180037009e007800300120000001780022
:101f9000110009008200d800300798001e01780067
:101fa0003101200081017800110009000301d800ef
:101fb000010278009e0078001e019000810041001f
:101fc00011417800036d2400be0290007328b9000f
:101fd00000007800040040000080410002487800c2
:101fe0001e0fe8009e0078002e009000808f5000a9
:101ff000e4ff39000080fa00000006000000fa004b
:10200000204180000000e0000b003a00100020009a
:1020100020418800304180000000e00003003a00c9
:1020200000c8b3002f0807001c00370000ccb30025
:102030002c0807001900370040418000ef0f5000c6
:102040000e003e00314180001041800000804000c1
:10205000424180007300b900000078000200400097
:10206000016d24006140780038080700404180007d
:102070000000e80040418800080037002828ef00f1
:102080003041800000f0a7000000ea000000e900f5
:102090004f00de00304188002428ef000080fa0065
:1020a000000006000800fa00200798003107980099
:1020b0003e0090004280de0030079800be00900095
:1020c000000f2000008f60001e0078004480de00ba
:1020d000000f78001e007800e90f500003003c005c
:1020e000010320001e8f4000020037007103200012
:1020f0001e8f40003e0090006f00600010079800a7
:102100001e009000e90f500004003c001e009000eb
:102110000003b00010079800030037001e00900075
:102120007003b000100798002e00900067001000a8
:102130009e00780001417800036d24007300b9000f
:1021400000007800008041006e00400002487800e6
:102150002e009000670010009e0090000141780062
:10216000036d24007300b900000078000080410076
:102170006f004000024878000080fa00000006006e
:102180000a00fa0030079800410798004e009000be
:102190004280de00400798004e019000b0472100c9
:1021a0000090b900c388de004f90de000080500030
:1021b000000f78009e007800c0f92f000088b90059
:1021c000800078004e00900000814000706626007c
:1021d0000090b900c288de004f90de000080500001
:1021e000100798009e007800c0f92f000088b90001
:1021f000000178009e00900060ff2f000088b90069
:1022000000007800800041004e00900000804000f7
:10221000200798003e009000670010009e007800a4
:102220008140780003c3b30003c14000036d240064
:102230007300b90000007800008041006d0040008c
:10224000024878003e009000670010009e00900059
:102250008140780003c3b30003c14000036d240034
:102260007300b90000007800008041006e0040005b
:10227000024878003e00900067001000ae00900019
:102280008140780003c3b30003c14000036d240004
:102290007300b90000007800008041006f0040002a
:1022a000024878000080fa00000006000a00fa00e8
:1022b0000000eb00100798000000eb0020079800da
:1022c0000000eb00300798000000eb00400798008a
:1022d0000000eb00000f7800230037001e0078009c
:1022e000800040000065240000804000100078005d
:1022f0009e00900000804000100798001e00e8003b
:10230000800040000065240000804000100078003c
:10231000ae00900000804000200798001e80e8007a
:10232000800040000065240000804000100078001c
:10233000be00900000804000300798009e007800aa
:102340006380400080004000006524000080400061
:1023500010007800ce0090000080400040079800f8
:102360009e007800648f40001e007800ef0f500040
:10237000daff34001e0090004280de00800078000a
:102380000000eb0047ff07002e0090004280de00b7
:10239000800078001000200042ff07003e009000ff
:1023a0004280de0080007800200020003dff070012
:1023b0004e0090004280de00800078003000200057
:1023c00038ff07000080fa00000006000a00fa004b
:1023d0000000eb00100798000000eb0020079800b9
:1023e0000000eb00300798000000eb004007980069
:1023f0000000eb00000f7800250037009e007800f9
:102400007080400080004000006524000080400093
:10241000100078009e009000008040001007980097
:102420009e00780074804000800040000065240019
:102430000080400010007800ae0090000080400056
:1024400020079800010220001e804000800040000c
:10245000006524000080400010007800be0090005d
:102460000080400030079800410220001e8040009c
:1024700080004000006524000080400010007800cb
:10248000ce00900000804000400798001e0fe8003a
:102490001e007800e30f5000d8ff34001e009000ab
:1024a0004280de00800078000000eb00fdfe0700a7
:1024b0002e0090004280de00800078001000200096
:1024c000f8fe07003e0090004280de0080007800a9
:1024d00020002000f3fe07004e0090004280de0046
:1024e0008000780030002000eefe07000080fa0037
:1024f000000006000c00fa00400798005107980001
:102500004e009000de00900013fb07000200200048
:10251000833c24009efa07000001be00000020005a
:1025200001f823003cfa070002002000832c24005d
:102530005ffb0700e7fa0700000f78001e01780034
:10254000b04721000090b900c388de004f90de0044
:1025500000805000100798009e009000c0f92f00e6
:102560000088b900000078001e0140007066260057
:102570000090b900c288de004f90de00008050005d
:10258000200798009e009000c0f92f000088b90035
:1025900000017800ae00900060ff2f000088b900b5
:1025a00000007800000041001e0040003007980045
:1025b0001e0090000040780002c3b300824040003b
:1025c00060712400014878002e00900000407800df
:1025d00002c3b300824040007071240001487800bb
:1025e0003e0090000040780002c3b30082404000eb
:1025f00080712400014878000080fa000000060085
:102600000800fa000000eb00100798000000eb0043
:10261000200798000000eb00300798000000eb0056
:10262000000f78000a0037001e007800800040008c
:102630000065240000804000900078000040800089
:1026400000804000004088009e007800648f4000b9
:102650001e007800ef0f5000f3ff340000408000b0
:102660000000e00001003d00630040004280de0009
:10267000004088000002eb008000eb00f2ff2f001a
:10268000e3ff21000000eb00810307000040800011
:102690004544240034332300232222000001780023
:1026a000810020000000eb00170407000080fa0002
:1026b000000006000000fa000002eb008000eb00c2
:1026c000f2ff2f00e3ff21000000eb00a60507004a
:1026d000d5dd2d00c4cc2c00b3bb2b00a2aa2a0050
:1026e000810020000000eb003d0607000080fa009a
:1026f000000006000a00fa00400798000000eb0006
:10270000000f78000000eb00100798006000b80090
:1027100020079800310798004e009000304090004c
:102720000080fb00c400dd00005c2400008040004d
:1027300010007800610f60004e0090003040900063
:102740000080fb00c400dd00005c2400008040002d
:102750001000780062006000100798001e007800ea
:102760000000e00012003a004e009000304090005f
:102770000080fb00c400dd00005c240000804000fd
:1027800090007800c0ff2100008060004200de0061
:102790008000eb004e01900020019800310198006c
:1027a0004e00900041c0b300214098006100370006
:1027b0004e009000304090000080fb00c400dd001f
:1027c000005c240000804000100078006101b80027
:1027d000c0ff210001002000020278000301780000
:1027e00080017800010078000302620000006100af
:1027f0008000eb00c000dd00000020000001be00f2
:102800006120b800000171008181710022079800e9
:10281000330798002e009000be009000c000dd003d
:10282000000020004e019000200198003101980026
:102830004e009000304090000080fb004400dd001e
:102840008080e800005c24000080400010007800d8
:102850006101b800f0ff20000100200002027800b2
:102860000301780080017800010078000302620013
:10287000000061008000eb00c000dd0000002000cf
:102880000001be006120b80000017100818171006b
:1028900022079800330798004e0090002001900016
:1028a000b00190002e029000be0290004628dd008c
:1028b000ca20de00810070004620dd0002004000da
:1028c000838048004e01900020019800310198005b
:1028d0004e009000304090000080fb004400dd007e
:1028e000e4004000005c24000080400010007800fc
:1028f0004a00de008000eb002007980031079800b6
:102900004e00900020019000b00190002e00900039
:10291000be00900002004000838048004e019000fd
:1029200020019800310198004e00900031c0b300a2
:10293000214098001e009000e10f500004003a0072
:102940004e00900021c0b300114098006b0037008a
:102950004e00900011c0b300114098004e0090004e
:10296000304090000080fb004400dd00e6004000a5
:10297000005c240000804000100078008040780057
:102980004e009000014898004e00900030409000aa
:102990000080fb004400dd00e6004000005c2400f5
:1029a00000804000100078004800de008040780081
:1029b0004e009000114898004e009000304090006a
:1029c0000080fb004400dd00e8004000005c2400c3
:1029d0000080400010007800804078004e00900099
:1029e000214898004e009000304090000080fb008d
:1029f0004400dd00e8004000005c2400008040004e
:102a0000100078004800de00804078004e00900002
:102a1000314898004e009000304090000080fb004c
:102a20004400dd00ea004000005c2400008040001b
:102a300010007800804078004e00900041489800d7
:102a40004e009000304090000080fb004400dd000c
:102a5000ea004000005c2400008040001000780084
:102a60004800de00804078004e00900051489800f9
:102a70004e009000304090000080fb004400dd00dc
:102a8000ec004000005c2400008040001000780052
:102a9000804078004e009000614898004e00900001
:102aa000304090000080fb004400dd00ec0040005e
:102ab000005c240000804000100078004800de0028
:102ac000804078004e009000714898004e009000c1
:102ad000304090000080fb004400dd00e400400036
:102ae000005c240000804000100078000040780066
:102af000ef4060004e009000015098000080fa0006
:102b0000000006000a00fa00400798000000eb00f1
:102b1000000f78000000eb00100798006000b8007c
:102b200020079800310798004e0090003040900038
:102b30000080fb00c400dd00006024000080400035
:102b400010007800610f60004e009000304090004f
:102b50000080fb00c400dd00006024000080400015
:102b60001000780062006000100798001e007800d6
:102b70000000e00012003a004e009000304090004b
:102b80000080fb00c400dd000060240000804000e5
:102b900090007800c0ff2100008060004200de004d
:102ba0008000eb004e019000200198003101980058
:102bb0004e00900041c0b3002140980061003700f2
:102bc0004e009000304090000080fb00c400dd000b
:102bd0000060240000804000100078006101b8000f
:102be000c0ff2100010020000202780003017800ec
:102bf000800178000100780003026200000061009b
:102c00008000eb00c000dd00000020000001be00dd
:102c10006120b800000171008181710022079800d5
:102c2000330798002e009000be009000c000dd0029
:102c3000000020004e019000200198003101980012
:102c40004e009000304090000080fb004400dd000a
:102c50008080e800006024000080400010007800c0
:102c60006101b800f0ff200001002000020278009e
:102c700003017800800178000100780003026200ff
:102c8000000061008000eb00c000dd0000002000bb
:102c90000001be006120b800000171008181710057
:102ca00022079800330798004e0090002001900002
:102cb000b00190002e029000be0290004628dd0078
:102cc000ca20de00810070004620dd0002004000c6
:102cd000838048004e019000200198003101980047
:102ce0004e009000304090000080fb004400dd006a
:102cf000e4004000006024000080400010007800e4
:102d00004a00de008000eb002007980031079800a1
:102d10004e00900020019000b00190002e00900025
:102d2000be00900002004000838048004e019000e9
:102d300020019800310198004e00900031c0b3008e
:102d4000214098001e009000e10f500004003a005e
:102d50004e00900021c0b300114098006b00370076
:102d60004e00900011c0b300114098004e0090003a
:102d7000304090000080fb004400dd00e600400091
:102d8000006024000080400010007800804078003f
:102d90004e009000014898004e0090003040900096
:102da0000080fb004400dd00e600400000602400dd
:102db00000804000100078004800de00804078006d
:102dc0004e009000114898004e0090003040900056
:102dd0000080fb004400dd00e800400000602400ab
:102de0000080400010007800804078004e00900085
:102df000214898004e009000304090000080fb0079
:102e00004400dd00e8004000006024000080400035
:102e1000100078004800de00804078004e009000ee
:102e2000314898004e009000304090000080fb0038
:102e30004400dd00ea004000006024000080400003
:102e400010007800804078004e00900041489800c3
:102e50004e009000304090000080fb004400dd00f8
:102e6000ea0040000060240000804000100078006c
:102e70004800de00804078004e00900051489800e5
:102e80004e009000304090000080fb004400dd00c8
:102e9000ec0040000060240000804000100078003a
:102ea000804078004e009000614898004e009000ed
:102eb000304090000080fb004400dd00ec0040004a
:102ec0000060240000804000100078004800de0010
:102ed000804078004e009000714898004e009000ad
:102ee000304090000080fb004400dd00e400400022
:102ef000006024000080400010007800004078004e
:102f0000ef4060004e009000015098000080fa00f1
:102f1000000006000000fa008420ef008620ef0089
:102f20008820ef008a20ef008c20ef000080fa005c
:102f3000000006002000fa00889fbe00200f9800c5
:102f4000320f9800430f9800510f9800640f9800bb
:102f5000750f98006000b800008fbe006000b800d8
:102f600020079800310798006000b80040079800db
:102f7000510798000004a8002e08900000004000af
:102f800000004000800078000044200000804000e5
:102f9000600798002e0890004280de00000040008c
:102fa00080007800004220000080400070079800f8
:102fb0002e0890004380de00000040008000780072
:102fc0008041200000804000000f98004041200018
:102fd000100f98005e089000e10f500049003a0081
:102fe0003e099000ce099000f0ff2f000100200064
:102ff0000202780003017800800178000100780067
:1030000003026200000061008000eb00c000dd00f0
:10301000000020000001be006120b8000001710026
:103020008181710022079800330798003e089000c4
:10303000ce089000408cde00cf8cde000801be0080
:103040003000200001002000020278000301780017
:103050008001780001007800030262000000610036
:103060008000eb00c000dd00000020000001be0079
:103070006120b80000017100818171004207980051
:10308000530798003e089000ce089000428bde0067
:10309000cf8bde000601be00f07f20000100200083
:1030a00002027800830178000001780001007800b6
:1030b00002016200008061008000eb00c000dd00c2
:1030c00000002000008fbe006110b8001e1f7000bd
:1030d0001e9770001e007800c500dd004e009000b5
:1030e00000804000e80040006e0090000108780079
:1030f0006e0090000080e800ae00900001087800ab
:10310000190037003e099000ce099000f07f2000a2
:10311000010020000202780083017800000178009d
:103120000100780002016200008061008000eb0075
:10313000c000dd0000002000008fbe006110b8005c
:103140001e1f70001e9770001e007800c500dd0075
:103150006e009000010878006e0090000080e8008a
:103160008000eb00010878007e009000900078005d
:103170002e089000630060004200dd00f200200095
:103180000010dd000080ea00808060007e0090007a
:10319000010878002e089000630060004200dd0006
:1031a000ee0890008008dd007e009000100078009e
:1031b000810070007e009000010878000e089000e9
:1031c000900078002e08900067006000000040002a
:1031d000320020000010dd000080ea0080806000e6
:1031e0000e089000010878002e089000670060002b
:1031f00000004000fe0890008008dd000e089000ee
:1032000010007800810070000e089000010878001e
:10321000110020002e0890000008dd0080007800da
:103220001e08900010007800810070001e089000b9
:10323000010878000004a9004f04be000080fa00d5
:10324000000006001800fa00889fbe007007980072
:10325000020f9800130f9800210f9800340f980068
:103260006000b800008fbe006000b8002007980022
:10327000310798006000b800400798005107980097
:103280000004a8007e009000000040000000400004
:103290008000780000432000008040006007980014
:1032a0003e089000e10f500053003a000e099000d4
:1032b0009e099000f0ff2f0001002000020278001c
:1032c00003017800800178000100780003026200a9
:1032d000000061008000eb00c000dd000000200065
:1032e0000001be006120b800000171008181710001
:1032f00022079800330798000e0890009e0890005f
:10330000408cde00cf8cde000801be0030002000c3
:10331000010020000202780003017800800178009b
:103320000100780003026200000061008000eb00f1
:10333000c000dd00000020000001be006120b800d8
:1033400000017100818171004207980053079800c5
:103350000e0890009e089000428bde00cf8bde00ae
:103360000601be00f07f200001002000020278006c
:1033700083017800000178000100780002016200fa
:10338000008061008000eb00c000dd000000200034
:10339000008fbe006110b8001e1f70001e977000e5
:1033a0002e089000e10f500008003a001e0078003f
:1033b000c500dd004e00900000804000e8004000a5
:1033c0006e00900001087800060037001e007800ab
:1033d000c500dd004e009000808040006e0090002f
:1033e000010878006e0090000080e800ae009000b8
:1033f00001087800220037000e0990009e09900015
:10340000f07f200001002000020278008301780094
:103410000001780001007800020162000080610074
:103420008000eb00c000dd0000002000008fbe0027
:103430006110b8001e1f70001e9770002e089000cb
:10344000e10f500006003a001e0078004500dd0044
:10345000e80040006e00900001087800040037008a
:103460001e007800c500dd006e00900001087800a5
:103470006e0090000080e8008000eb0001087800fa
:103480000004a9004f04be000080fa0000000600fe
:103490002200fa00889fbe00400f9800520f98004b
:1034a000630f9800710f9800041798006000b8002f
:1034b000008fbe006000b8004007980051079800d8
:1034c0006000b80020079800310798006000b8003d
:1034d00060079800710798006000b800000f98001e
:1034e000110f98006000b800200f9800310f98006d
:1034f0005e099000ee099000f0032000010020001a
:103500000202780003017800800178000100780051
:1035100003026200000061008000eb00c000dd00db
:10352000000020000001be006120b8000001710011
:1035300081817100020f9800130f98005e089000bf
:10354000ee0890004a09dd004604de000804710020
:10355000c68cde000801be00f0ff20000100200044
:1035600002027800030178008001780001007800f1
:1035700003026200000061008000eb00c000dd007b
:10358000000020000001be006120b80000017100b1
:1035900081817100220f9800330f98005e0890001f
:1035a000ee089000428bde00cf8bde000601be00ed
:1035b000f07f200001002000020278000301780063
:1035c00080017800010078000302620000006100c1
:1035d0008000eb00c000dd00000020000001be0004
:1035e0006120b800000171008181710062079800bc
:1035f000730798002e099000be09900042079800ba
:10360000530798000e109000e10f500017003a0089
:103610006e009000fe0090004209dd00ce01de0049
:10362000830171004201dd007e0890008000eb0004
:1036300000007100818071000001be000210a00036
:10364000028fbe000e0990009e0990004a18dd000e
:10365000c610de00810070004a10dd000090a0005e
:103660002007980031079800120037006e00900084
:10367000fe0090004209dd00ce01de0083017100f2
:103680004201dd007e0890008000eb00001f710009
:10369000019771000e0990009e0990004a18dd0004
:1036a000c610de00810070004a10dd00200798007f
:1036b000310798009e0078004e0890004401dd001c
:1036c000005c24000000410001087800ce0090005a
:1036d0004e0890004401dd00205c24000000410001
:1036e00001087800ae0090004e0890004401dd0013
:1036f000405c240000004100010878004f04be0037
:103700000080fa00000006000c00fa00000f7800ac
:103710001107980022079800330798004407980083
:10372000550798001e0078004400dd00e4004000ca
:10373000005c2400008040009000780000ff2f0013
:10374000808060001e009000808040001e00780095
:103750004401dd00405c24000000410001087800c5
:103760001e007800c400dd00605c24000080400082
:10377000ae009000010878001e007800c400dd0053
:10378000805c240000804000be00900001087800aa
:103790001e007800c400dd00a05c24000080400012
:1037a000ce009000010878001e007800c400dd0003
:1037b000c05c240000804000de009000010878001a
:1037c0000080fa00000006000400fa0010079800cc
:1037d0000004a80040412000000f78001e0078007f
:1037e00090007800120020001e0090000010dd0004
:1037f0000080ea00808060001e00780001087800e8
:103800000004a9000080fa00000006002000fa0071
:10381000889fbe00200f9800320f9800430f980039
:10382000510f9800640f9800750f98006000b80061
:10383000008fbe006000b800200798003107980094
:103840006000b80040079800510798000005a800e4
:103850002e0890000000400000004000800078002a
:103860000054200000804000600798002e0890005f
:103870004280de00000040008000780000522000fe
:1038800000804000700798002e0890004380de0002
:10389000000040008000780080512000008040003f
:1038a000000f980040512000100f98005e08900013
:1038b000e10f500049003a003e099000ce09900007
:1038c000f0ff2f00010020000202780003017800c1
:1038d00080017800010078000302620000006100ae
:1038e0008000eb00c000dd00000020000001be00f1
:1038f0006120b800000171008181710022079800e9
:10390000330798003e089000ce089000408cde00ff
:10391000cf8cde000801be00300020000100200036
:10392000020278000301780080017800010078002d
:1039300003026200000061008000eb00c000dd00b7
:10394000000020000001be006120b80000017100ed
:103950008181710042079800530798003e0890004b
:10396000ce089000428bde00cf8bde000601be0049
:10397000f07f20000100200002027800830178001f
:1039800000017800010078000201620000806100ff
:103990008000eb00c000dd0000002000008fbe00b2
:1039a0006110b8001e1f70001e9770001e00780086
:1039b000c500dd004e00900000804000e80040009f
:1039c0006e009000010878006e0090000080e80012
:1039d000ae00900001087800190037003e09900001
:1039e000ce099000f07f2000010020000202780044
:1039f0008301780000017800010078000201620074
:103a0000008061008000eb00c000dd0000002000ad
:103a1000008fbe006110b8001e1f70001e9770005e
:103a20001e007800c500dd006e00900001087800df
:103a30006e0090000080e8008000eb000108780034
:103a40007e009000900078002e08900063006000d7
:103a50004200dd00f20020000010dd000080ea00de
:103a6000808060007e009000010878002e089000a1
:103a7000630060004200dd00ee0890008008dd0079
:103a80007e00900010007800810070007e009000a1
:103a9000010878000e089000900078002e08900031
:103aa0006700600000004000320020000010dd00d0
:103ab0000080ea00808060000e0890000108780015
:103ac0002e0890006700600000004000fe08900093
:103ad0008008dd000e089000100078008100700062
:103ae0000e08900001087800110020002e089000b8
:103af0000008dd00800078001e08900010007800ab
:103b0000810070001e089000010878000005a900df
:103b10004f04be000080fa00000006001800fa0002
:103b2000889fbe0070079800020f9800130f98003e
:103b3000210f9800340f98006000b800008fbe007d
:103b40006000b80020079800310798006000b800b6
:103b500040079800510798000005a8007e009000db
:103b6000000040000000400080007800005320006a
:103b700000804000600798003e089000e10f500070
:103b800053003a000e0990009e099000f0ff2f00ac
:103b90000100200002027800030178008001780013
:103ba0000100780003026200000061008000eb0069
:103bb000c000dd00000020000001be006120b80050
:103bc000000171008181710022079800330798007d
:103bd0000e0890009e089000408cde00cf8cde0026
:103be0000801be0030002000010020000202780021
:103bf0000301780080017800010078000302620070
:103c0000000061008000eb00c000dd00000020002b
:103c10000001be006120b8000001710081817100c7
:103c200042079800530798000e0890009e089000e5
:103c3000428bde00cf8bde000601be00f07f20004d
:103c40000100200002027800830178000001780062
:103c50000100780002016200008061008000eb003a
:103c6000c000dd0000002000008fbe006110b80021
:103c70001e1f70001e9770002e089000e10f50006c
:103c800008003a001e007800c500dd004e009000dc
:103c900000804000e80040006e00900001087800bd
:103ca000060037001e007800c500dd004e009000c1
:103cb000808040006e009000010878006e00900047
:103cc0000080e800ae009000010878002200370074
:103cd0000e0990009e099000f07f20000100200056
:103ce000020278008301780000017800010078006a
:103cf00002016200008061008000eb00c000dd0076
:103d000000002000008fbe006110b8001e1f700070
:103d10001e9770002e089000e10f500006003a0038
:103d20001e0078004500dd00e80040006e009000b5
:103d300001087800040037001e007800c500dd008f
:103d40006e009000010878006e0090000080e8008e
:103d50008000eb00010878000005a9004f04be00b8
:103d60000080fa00000006002200fa00889fbe00d2
:103d7000400f9800520f9800630f9800710f980041
:103d8000041798006000b800008fbe006000b80003
:103d900040079800510798006000b800200798007d
:103da000310798006000b80060079800710798001c
:103db0006000b800000f9800110f98006000b80074
:103dc000200f9800310f98005e099000ee099000d6
:103dd000f0032000010020000202780003017800b7
:103de0008001780001007800030262000000610099
:103df0008000eb00c000dd00000020000001be00dc
:103e00006120b8000001710081817100020f9800eb
:103e1000130f98005e089000ee0890004a09dd003c
:103e20004604de0008047100c68cde000801be00f6
:103e3000f0ff20000100200002027800030178005a
:103e40008001780001007800030262000000610038
:103e50008000eb00c000dd00000020000001be007b
:103e60006120b8000001710081817100220f98006b
:103e7000330f98005e089000ee089000428bde0041
:103e8000cf8bde000601be00f07f20000100200085
:103e900002027800030178008001780001007800b8
:103ea00003026200000061008000eb00c000dd0042
:103eb000000020000001be006120b8000001710078
:103ec0008181710062079800730798002e099000a5
:103ed000be09900042079800530798000e1090000a
:103ee000e10f500017003a006e009000fe009000b5
:103ef0004209dd00ce01de00830171004201dd00d8
:103f00007e0890008000eb0000007100818071004d
:103f10000001be000210a000028fbe000e0990003a
:103f20009e0990004a18dd00c610de008100700076
:103f30004a10dd000090a00020079800310798008b
:103f4000120037006e009000fe0090004209dd0074
:103f5000ce01de00830171004201dd007e08900089
:103f60008000eb00001f7100019771000e099000a6
:103f70009e0990004a18dd00c610de008100700026
:103f80004a10dd0020079800310798009e00780055
:103f90004e0890004401dd00006024000000410054
:103fa00001087800ce0090004e0890004401dd002a
:103fb000206024000000410001087800ae0090005d
:103fc0004e0890004401dd004060240000004100e4
:103fd000010878004f04be000080fa0000000600cf
:103fe0000c00fa00000f78001107980022079800d3
:103ff0003307980044079800550798001e00780082
:104000004400dd00e4004000006024000080400027
:104010009000780000ff2f00808060001e0090005c
:10402000808040001e0078004401dd0040602400d4
:1040300000004100010878001e007800c400dd0087
:104040006060240000804000ae009000010878000d
:104050001e007800c400dd00806024000080400065
:10406000be009000010878001e007800c400dd004a
:10407000a060240000804000ce009000010878007d
:104080001e007800c400dd00c060240000804000f5
:10409000de009000010878000080fa0000000600b1
:1040a0000400fa00100798000005a8004051200005
:1040b000000f78001e0078009000780012002000a9
:1040c0001e0090000010dd000080ea00808060008b
:1040d0001e007800010878000005a9000080fa00a1
:1040e000000006000200fa00004f7800d6a2a900e6
:1040f000cbe2a900e116800000f02f0000806000f4
:10410000e01688009e00fb00e016800001007000b1
:10411000e0168800d682a800000000000000000021
:10412000000000000000000000000000000000008f
:10413000000000000000000000000000d682a9007e
:10414000d6a2a8000080fa00000006000200fa00d3
:10415000004f7800d6a2a900cbe2a800e1168000ab
:1041600000f02f0000806000e01688009e00fb0039
:10417000e016800001007000e0168800d682a800da
:10418000000000000000000000000000000000002f
:10419000000000000000000000000000000000001f
:1041a00000000000d682a900d6a2a8000080fa0074
:1041b000000006000000fa0020000700a0182200fe
:1041c00000000100f00020002600070000000000b1
:1041d0000000000080c3b300c2ff070050002000b1
:1041e00020000700000000000000000080c3b300b2
:1041f000bcff070040062000300007000000000060
:104200000000000080c3b300b6ff07004006200096
:104210002a000700c0c0b300b2ff0700400620001c
:104220002600070060c0b300aeff07004006200074
:10423000220007000080fa00000006000000fa00db
:104240003421ef00f0c32900c009880000002800d5
:10425000e00988008a80a9009a80a9000080fa00fd
:10426000000006000400fa00100798000000eb00b0
:10427000000f78003421ef00f0c32900c009880046
:10428000070037000000000050048000700060004c
:104290000000e000fcff32001e0fe8008a80a90049
:1042a0009e0078001e009000808f5000f5ff3600c1
:1042b0003421ef000080fa00000006000400fa003c
:1042c000100798000000eb00000f78003421ef0089
:1042d00070022000c00988000700370000000000bd
:1042e00050048000700060000000e000fcff32001d
:1042f0001e0fe8008a80a9009e0078001e00900032
:10430000808f5000f5ff36003421ef000080fa0066
:10431000000006000000fa00d2a2a900c7e2a9002e
:10432000d282a900d6a2a900cbe2a900d682a90018
:10433000dc22ef00c116800000f02f00008060003a
:10434000c01688000080fa00000006000000fa0095
:104350003421ef00f05a2e00c00988000000280028
:10436000e00988008a80a9009a80a8000080fa00ed
:10437000000006000000fa00e023ef000002220027
:10438000001c880020442000401c88007000200091
:10439000501c880060042000101c8800005c200075
:1043a000201c880081e3a8000080fa0000000600bd
:1043b0000000fa00e023ef0000022000c01c88008b
:1043c00000442000001d880070002000101d88009f
:1043d00020022000d01c8800005c2000e01c880027
:1043e00099e3a8000080fa00000006000000fa002f
:1043f0000164a80081208000000c200001007000f2
:10440000802088008120800000fc2f000080600058
:10441000802088009120800080032000010070002f
:104420009020880012e4a80091208000f08f2f00d7
:104430008080600000502000010070009020880003
:104440009120800080ff2f00008060000020a000ed
:104450009020880012c4a8000080fa000000060026
:104460000000fa0001208000f08f2f000080600023
:1044700000a0a000002088000000000001208000b3
:10448000000e20008080600000082000808f500017
:10449000faff3a00d5ff070031208000f0ff21002d
:1044a00000806000302088008002eb0014002000b3
:1044b0008000eb00d2ff200003002000100020004d
:1044c0009cfa07000002eb0011002000f2ff2f0011
:1044d000f3ff21000000eb005afb070001208000e1
:1044e000f08f2f0000806000002088000000000096
:1044f00001208000000e2000008060000000e0002d
:10450000fbff3a002a24ef00502180004021880060
:1045100040218000102188001021800000218800a7
:1045200030e4a80031e4a900802180003000b3000d
:10453000802188008121800000302000010070006f
:10454000802188000080fa00000006000000fa00c8
:1045500000022200601c880020542000a01c88005b
:1045600070002000b01c880070042000701c8800bf
:1045700000602000801c88008de3a8000080fa0005
:10458000000006000000fa00e023ef000002200017
:10459000201d880000542000601d8800700020004d
:1045a000701d880070032000301d8800006020000e
:1045b000401d8800a5e3a8000080fa000000060066
:1045c0000000fa000165a80081288000000c20008e
:1045d00001007000802888008128800000fc2f00e6
:1045e00000806000802888009128800080032000df
:1045f000010070009028880012e5a8009128800032
:10460000f08f2f00808060000050200001007000bb
:10461000902888009128800080ff2f000080600093
:104620000020a0009028880012c5a8000080fa0091
:10463000000006000000fa0001288000f08f2f0023
:104640000080600000a0a00000288800000000009a
:1046500001288000000e20008080600000082000fb
:10466000808f5000faff3a00d5ff07003128800004
:10467000f0ff210000806000302888008002eb00fd
:104680001400200011002000f2ff2f00e3ff2100a2
:10469000100020005dfc0700140020001100200025
:1046a000f2ff2f00f3ff2100100020001bfd070088
:1046b00001288000f08f2f00008060000028880013
:1046c0000000000001288000000e20000080600033
:1046d0000000e000fbff3a002a25ef00502980008f
:1046e0004029880040298000102988001029800076
:1046f0000029880030e5a80031e5a9008029800064
:104700003000b3008029880081298000003020001b
:1047100001007000802988000080fa000000060077
:104720000000fa002023ef0001198000000e200095
:1047300001007000001988002043a8002223ef0028
:104740002343a8002423ef002119800000f021005a
:10475000010070002019880030c0b30024e3b700c6
:104760003223ef002623ef002823ef002e23ef0053
:1047700000332000801988000080eb005019880069
:104780000080eb00601988002c83a9002ca3a900ed
:104790002d03a9002d23a90085a0a90095a0a9009b
:1047a000b023ef00b1c3a900b1a3a900b3e3a900ee
:1047b000911d800000f82f0000806000d000b30041
:1047c000901d880000652000a01d8800003020009a
:1047d000c01d88001119800030fc2f00008060008f
:1047e000c000b300101988009119800080ff2f00cd
:1047f0000080600090198800811d8000f0fc2f006f
:1048000000806000801d8800811d8000c0ff2f0097
:1048100000806000801d88002183a800f000200037
:10482000d01d8800e023ef0089c0a90099c0a8002e
:10483000b1e3a80021e3a8002023a8000080fa002b
:10484000000006000000fa0040a7a9006002200056
:10485000303a8800213a8000f0f32f000080600099
:10486000203a8800213a800000fe2f00008060007e
:10487000203a88003200200080072000a109200093
:10488000337420008049780081497800824978009b
:104890001200200060042000710520002374200015
:1048a0008049780081497800824978000000000042
:1048b000113a800000002700808060000000230083
:1048c000808f5000faff3a0000000000113a80008b
:1048d00000022000008060000000e000fbff3200ca
:1048e0000080fa00000006000000fa00c002a900e3
:1048f000c062a900c022a900c042a900c082a900cc
:10490000c0a2a900c0c2a900c0e2a900c402a900b7
:10491000c462a900c422a900c442a900c482a9009b
:10492000c4a2a900c4c2a900c4e2a9000080fa0080
:10493000000006000000fa00d2c2a800d2e2a800df
:10494000d3a2a800c0e2a9004028ef004228ef004f
:104950004428ef004628ef0061e0a8006200a800ac
:104960006260a80061058000f0ff28000080600000
:1049700000d0a000600588008660a9009660a800ad
:084980000080fa0000000600af
:020000040000fa
:104988005046000080000000000000004c080000b5
:1049980004000000000000006847000098000000c4
:1049a80000000000500800000200000000000000a5
:1049b800400800000c00000000000000d046000085
:1049c80098000000000000005208000002000000eb
:1049d800000000005608000036000000000000003b
:1049e800c045000040000000000000000046000034
:1049f8004000000000000000000800003000000037
:104a08000000000030080000100000000000000056
:104a18005408000002000000000000000000000030
:020000040000fa
:104a28000000fa003022ef003062a90010082000d0
:104a3800c01188003222ef0087c0a90087e0a900d2
:104a48008c40a90097e0a90097c0a8003222a900cd
:104a580031e2a8003342a8003422ef000080fa00b7
:104a6800000006000200fa00004f78000000000075
:104a78009111800000202000008060000000e0000c
:104a8800fbff3a001e80fb00a01188000080fa009e
:104a9800000006000000fa000000000090118000ed
:104aa800610060000000e000fcff3200b0118000ef
:104ab800004078000080fa00000006000000fa00bc
:104ac8002023ef0001198000000e20000100700073
:104ad800001988002223ef0025e3a900211980008e
:104ae80000f02100010070002019880030c0b300d8
:104af80024e3b7003223ef002623ef002823ef003a
:104b08004119800000fe2f00008060005000b300b3
:104b1800401988002e23ef003023ef000080eb00bf
:104b2800501988000080eb00601988002c83a900c8
:104b38002ca3a9002d03a9002d23a90085a0a90055
:104b480095a0a90021e3a8002023a8000080fa006e
:104b5800000006000000fa003021ef00700c200071
:104b6800b009880000002800d00988008a60a900e0
:104b78009a60a8000080fa00000006000000fa0011
:104b88000621ef000a21ef00f08f2000600888005e
:104b9800c003200070088800800028008008880072
:104ba8008500a9009500a8000080fa000000060012
:104bb8000000fa002221ef00f0c329004009880014
:104bc800000028006009880089e0a90099e0a80091
:104bd8000080fa00000006000000fa00bc23ef0085
:104be800bdc3a800bda3a800bd83a900bd63a900db
:104bf800e11d8000f0fc2f0000806000e01d8800af
:104c0800e11d8000c0ff2f0000806000e01d8800cb
:104c1800bfe3a900f11d800000f82f0000806000ac
:104c2800f001b300f01d8800006d2000001e880010
:104c380040232000201e880070092000301e8800b4
:104c4800e023ef008ba0a9009ba0a800bde3a8006b
:084c58000080fa0000000600d4
:020000040000fa
:0200000401f009
:04000c00faff0000f7
:020000040000fa
:0200000401f009
:040010007dff000070
:020000040000fa
:0200000401f009
:040014007fff00006a
:00000001FF
