:020000040000fa
:080000000002040000000000f2
:020000040000fa
:04000800c80200002a
:020000040000fa
:04000c00c802000026
:020000040000fa
:04001000c802000022
:020000040000fa
:04001400c80200001e
:020000040000fa
:04001800c80200001a
:020000040000fa
:04001c00c802000016
:020000040000fa
:04002000c802000012
:020000040000fa
:04002400c80200000e
:020000040000fa
:04002800c80200000a
:020000040000fa
:04002c00c802000006
:020000040000fa
:04003000c802000002
:020000040000fa
:04003400c8020000fe
:020000040000fa
:04003800c8020000fa
:020000040000fa
:04003c00c8020000f6
:020000040000fa
:04004000c8020000f2
:020000040000fa
:04004400c8020000ee
:020000040000fa
:04004800c8020000ea
:020000040000fa
:04004c00c8020000e6
:020000040000fa
:04005000c8020000e2
:020000040000fa
:04005400c8020000de
:020000040000fa
:04005800c8020000da
:020000040000fa
:04005c00c8020000d6
:020000040000fa
:04006000c8020000d2
:020000040000fa
:04006400c8020000ce
:020000040000fa
:04006800c8020000ca
:020000040000fa
:04006c00c8020000c6
:020000040000fa
:04007000c8020000c2
:020000040000fa
:04007400c8020000be
:020000040000fa
:04007800c8020000ba
:020000040000fa
:04007c00c8020000b6
:020000040000fa
:04008000c8020000b2
:020000040000fa
:04008400c8020000ae
:020000040000fa
:04008800c8020000aa
:020000040000fa
:04008c00c8020000a6
:020000040000fa
:04009000c8020000a2
:020000040000fa
:04009400c80200009e
:020000040000fa
:04009800c80200009a
:020000040000fa
:04009c00c802000096
:020000040000fa
:0400a000c802000092
:020000040000fa
:0400a400c80200008e
:020000040000fa
:0400a800c80200008a
:020000040000fa
:0400ac00c802000086
:020000040000fa
:0400b000c802000082
:020000040000fa
:0400b400c80200007e
:020000040000fa
:0400b800c80200007a
:020000040000fa
:0400bc00c802000076
:020000040000fa
:0400c000c802000072
:020000040000fa
:0400c400c80200006e
:020000040000fa
:0400c800c80200006a
:020000040000fa
:0400cc00c802000066
:020000040000fa
:0400d000c802000062
:020000040000fa
:0400d400c80200005e
:020000040000fa
:0400d800c80200005a
:020000040000fa
:0400dc00c802000056
:020000040000fa
:0400e000c802000052
:020000040000fa
:0400e400c80200004e
:020000040000fa
:0400e800c80200004a
:020000040000fa
:0400ec00c802000046
:020000040000fa
:0400f000c802000042
:020000040000fa
:0400f400c80200003e
:020000040000fa
:0400f800c80200003a
:020000040000fa
:0400fc00c802000036
:020000040000fa
:04010000c802000031
:020000040000fa
:04010400c80200002d
:020000040000fa
:04010800c802000029
:020000040000fa
:04010c00c802000025
:020000040000fa
:04011000c802000021
:020000040000fa
:04011400c80200001d
:020000040000fa
:04011800c802000019
:020000040000fa
:04011c00c802000015
:020000040000fa
:04012000c802000011
:020000040000fa
:04012400c80200000d
:020000040000fa
:04012800c802000009
:020000040000fa
:04012c00c802000005
:020000040000fa
:04013000c802000001
:020000040000fa
:04013400c8020000fd
:020000040000fa
:04013800c8020000f9
:020000040000fa
:04013c00c8020000f5
:020000040000fa
:04014000c8020000f1
:020000040000fa
:04014400c8020000ed
:020000040000fa
:04020800c802000028
:020000040000fa
:04020c00c802000024
:020000040000fa
:04021000c802000020
:020000040000fa
:04021400c80200001c
:020000040000fa
:04021800c802000018
:020000040000fa
:04021c00c802000014
:020000040000fa
:04022000c802000010
:020000040000fa
:04022400c80200000c
:020000040000fa
:04022800c802000008
:020000040000fa
:04022c00c802000004
:020000040000fa
:04023000c802000000
:020000040000fa
:04023400c8020000fc
:020000040000fa
:04023800c8020000f8
:020000040000fa
:04023c00c8020000f4
:020000040000fa
:04024000c8020000f0
:020000040000fa
:04024400c8020000ec
:020000040000fa
:04024800c8020000e8
:020000040000fa
:04024c00c8020000e4
:020000040000fa
:04025000c8020000e0
:020000040000fa
:04025400c8020000dc
:020000040000fa
:04025800c8020000d8
:020000040000fa
:04025c00c8020000d4
:020000040000fa
:04026000c8020000d0
:020000040000fa
:04026400c8020000cc
:020000040000fa
:04026800c8020000c8
:020000040000fa
:04026c00c8020000c4
:020000040000fa
:04027000c8020000c0
:020000040000fa
:04027400c8020000bc
:020000040000fa
:04027800c8020000b8
:020000040000fa
:04027c00c8020000b4
:020000040000fa
:04028000c8020000b0
:020000040000fa
:04028400c8020000ac
:020000040000fa
:04028800c8020000a8
:020000040000fa
:04028c00c8020000a4
:020000040000fa
:04029000c8020000a0
:020000040000fa
:04029400c80200009c
:020000040000fa
:04029800c802000098
:020000040000fa
:04029c00c802000094
:020000040000fa
:0402a000c802000090
:020000040000fa
:0402a400c80200008c
:020000040000fa
:0402a800c802000088
:020000040000fa
:0402ac00c802000084
:020000040000fa
:0402b000c802000080
:020000040000fa
:0402b400c80200007c
:020000040000fa
:0402b800c802000078
:020000040000fa
:0402bc00c802000074
:020000040000fa
:0402c000c802000070
:020000040000fa
:0402c400c80200006c
:020000040000fa
:0402c800c802000068
:020000040000fa
:0402cc00c802000064
:020000040000fa
:0402d000c802000060
:020000040000fa
:0402d400c80200005c
:020000040000fa
:0402d800c802000058
:020000040000fa
:0402dc00c802000054
:020000040000fa
:0402e000c802000050
:020000040000fa
:0402e400c80200004c
:020000040000fa
:0402e800c802000048
:020000040000fa
:0402ec00c802000044
:020000040000fa
:0402f000c802000040
:020000040000fa
:0402f400c80200003c
:020000040000fa
:0402f800c802000038
:020000040000fa
:0402fc00c802000034
:020000040000fa
:04030000c80200002f
:020000040000fa
:04030400c80200002b
:020000040000fa
:04030800c802000027
:020000040000fa
:04030c00c802000023
:020000040000fa
:04031000c80200001f
:020000040000fa
:04031400c80200001b
:020000040000fa
:04031800c802000017
:020000040000fa
:04031c00c802000013
:020000040000fa
:04032000c80200000f
:020000040000fa
:04032400c80200000b
:020000040000fa
:04032800c802000007
:020000040000fa
:04032c00c802000003
:020000040000fa
:04033000c8020000ff
:020000040000fa
:04033400c8020000fb
:020000040000fa
:04033800c8020000f7
:020000040000fa
:04033c00c8020000f3
:020000040000fa
:04034000c8020000ef
:020000040000fa
:04034400c8020000eb
:020000040000fa
:100400008f7a21000e7f24000e018800000000007a
:10041000000020000000e000020032000001200087
:1004200020028800140007007c0007000000e000a4
:1004300003003a0060a722000100200002003700fc
:100440000000200001002000810f70000100320038
:1004500014000700000020000000e000020032004d
:1004600000000200000000005c0e0200000000001e
:100470000040da000000fe004440a900c06c2000eb
:100480000000e0000300320000002000a00188000e
:100490004440a800000006008a1f78008b1f7800e7
:1004a0000000060091018800800478000000eb0045
:1004b0001a003700e284440032a0b4009905ba0063
:1004c000e284440032a0b4009906ba00e2844400f9
:1004d00032a0b4000006eb00476fde00fd07b2005b
:1004e000636ce10003003a00ebff07000000eb0043
:1004f0000a003700606ce10004003a00005deb0088
:100500008b05e900fdff3e00040037006168e10053
:10051000010032000086eb000b00070019c7ba008b
:100520001905ba000e04e00003003a000a00e000da
:10053000e0ff3a0000000600fe07b2009e018800be
:100540008a047800f5ff3700395dba008b05e900b1
:100550000c003200295dba008b05e900080032006a
:100560000c00e00003003a00e284440032a0b40032
:10057000f5ff370019ddba008b05e900faff3a00f4
:100580008904e800e184440032a0b40000000600c1
:100590000040da000000fe00889fbe008004780062
:1005a000304080000000e00004003a000e00070028
:1005b0000084eb000000e0000800350038408000b7
:1005c0000900e000050032000900440006000700b1
:1005d0000000e00001003d000084eb00080078000e
:1005e0004f04be0000000600800078000100e0001b
:1005f00003003a00808020003040880000000500a1
:100600000080eb00827a2100828f500002003e00c1
:10061000314088000000eb000000060000000500eb
:1006200003f0a200889fbe008a9fbe008c1f780046
:10063000170107001e0133006450e1004f00320033
:100640006420e1005200320003826c0007003b008e
:100650000905d0000306d000820f54000c065d008f
:100660000200390002003200890178000306780098
:100670008582550004003d000003fd008103fd005c
:100680008502ea008b854200840f720002003b0065
:1006900060001000e08018006011b8000005eb0059
:1006a0007a28e1000a00390006007800c75ddd0005
:1006b000f707b200878075002d0037008281710036
:1006c0000a017800610560008180d1000080d300bc
:1006d0008502e900f9ff3b000604400087844800da
:1006e00002003b0060041400e0841c000988a300a1
:1006f000070032008a81710082817100610164000b
:100700008904d1000884d3008b05e8001700370066
:100710000978a30013003a000b00e0001300340036
:100720008b05e9000804440089844c000a447400e5
:100730000978a3000d003a000b00e0000700340028
:100740008b05e9000804440089844c0001003a004c
:100750000b0020000978a300f7ff32000001eb0036
:1007600002003700828171000a0178008d000700c5
:100770000cf0a70001f0a000d60037006420e100d3
:1007800002003a00838f6c00d60033000801be00df
:100790000200be00cf003700889fbe008a9fbe00c7
:1007a0008c1f7800ba000700c100330003866c007c
:1007b0006450e1002e0032006420e100330032007a
:1007c0006150e1002f0032006120e1003100320071
:1007d00085855500eb07b0000900200008042000c3
:1007e000050037000804440089844c000a003100e9
:1007f0000603430087834b000001530081815b00a7
:10080000f8ff33000203be000800a0000804440003
:1008100089844c00f6ff3900c639dd00830173007e
:1008200001003200130020008904d1000884d300a5
:100830000998a300050032000800a7000300a000eb
:100840008904d1000884d3008b05e8008904d10015
:100850000884d3000001eb000281d20051000700a0
:1008600001f0a1000cf0a70001f0a00099003700f2
:100870006420e1009b0032000801be000200be00bf
:10088000f7ff37006120e100960032006000b800f9
:10089000f3ff37000000200001f82700f0ff3700c9
:1008a0000001be00650007000470a70003f0a1006e
:1008b0006509b100160032000d0035006828e1001e
:1008c00006003500f0ff2f00f1ff27000300e000d5
:1008d00013003b000100280000000500000040005c
:1008e000818048008502e900fcff3a0008003700db
:1008f000f88f420002003c008000eb000000050081
:100900008100d1000080d3008502e800fcff3a009e
:100910000300e00002003b0060001000e0801800cf
:10092000000006000001be00440007000470a7009c
:1009300003f0a10003f8a30013003a006509b10019
:1009400010003200090035006928e100020035007e
:1009500001002800000005000000400081804800e0
:100960008502e900fcff3a0000000600f88f420013
:10097000050035008100d1000080d3008502e80029
:10098000fcff3a00000006008000eb0000000500bc
:100990004f89de0082017800890037006011b800bd
:1009a0009700370081002000618055000b003d005a
:1009b0000b00200061fe2f000100e1001d0034004b
:1009c00082817100610164008904d1000884d30030
:1009d0000000e800faff3a007100200061006400a6
:1009e000030070000200600009003200610444004e
:1009f000e0844c000988a500050032008b05e80062
:100a00006808e10002003a008904d1000884d3009c
:100a1000f20f20000258e10005003d00c75ddd0037
:100a2000f907b20089807500080078000000060010
:100a30000bf827008b00780000000500c70ade00d5
:100a4000f107b200f50fb20008003200e1cf42001a
:100a5000020032000170a00024000500810f700028
:100a6000010032000408050044000500810f7000f9
:100a700002003a00140005008502e9000000400071
:100a800081c04800fcff3b000170a000240005006d
:100a90000004be00e9ff07000003be000405be001d
:100aa0000200be00e5ff0700844f7500000006004d
:100ab0000200be006450e100050036006420e10041
:100ac000020036000968a30001003a000800be00d9
:100ad0000160a0004f0678004f05be004f04be0025
:100ae00000000600f0ff2f00f1ff2700f9ff37009c
:100af000889fbe008a9fbe008c1f7800e4ff07001d
:100b0000ebff330003866c006450e10024003200e8
:100b10006420e100270032006150e1002200320031
:100b20006120e100210032008b854200eb07b1001b
:100b30000134b800003ab8000804420089844a0031
:100b4000013ab8000030b8008880400009014a002e
:100b50000400330000004000818048000201490089
:100b60008b05e900c909dd00830170000100320036
:100b700013002000c814de004814dd004709de0021
:100b80001200b200c808de000884700085ff07006c
:100b900001f0a1000cf0a70001f0a000cdff37008c
:100ba0006120e100cfff32000801be000200be005c
:100bb000f7ff37006150e100fcff3a00c9ff370042
:100bc000881f7800030478000300e00007003d0060
:100bd00060001000e080180060011900e081190039
:100be00002003b0001f02d00030037000400070065
:100bf00008f0a70001f0a0004f04780000000600f4
:100c0000889fbe008a9fbe000082700004027100af
:100c100004827100260032000004be000200be0003
:100c20006011b8006b092000950220000182cf00fe
:100c30000a0039000541b1000082cf0007003900e9
:100c40000541b1000982cf00040039000541b1001f
:100c50000882cf00010039000541b1000542520071
:100c6000120032000a003b008281710061016400c1
:100c70008100d1000080d3008984d3000884d30090
:100c80008b05e8000442e800f7ff3a000700370050
:100c90000804440089844c0000004800818048001a
:100ca0008b05e9000442e900f9ff3a003dff070027
:100cb0004f05be004f04be00000006000000e0002b
:100cc0002f003200c0017800e38f51002c00360065
:100cd0000308a3002a003a00114080000100e00050
:100ce00002003200810f5000040031001100980012
:100cf0001040880016003700820078001101900033
:100d00000200e00002003200800f5100faff3900bb
:100d10001102780084824000850f500018003900cd
:100d2000808f520003003a008308420001007800df
:100d3000070037000200e00003003200830140009a
:100d4000830f51000e0039001200980090009800a7
:100d5000900090000100e000090032001001400006
:100d6000828f500006003a00028020000009eb004c
:100d700010017800110841009100900011009800c6
:100d800000000600889fbe0000047800014080003b
:100d90000100e00002003200010078000d00370081
:100da000114080002080200004003700910f540083
:100db000250036000180e800910090000100e0006d
:100dc000faff3a0010003700920f54001e00360060
:100dd0000280e800100178000200e000faff3a000b
:100de00011017800114080002080200004003700ad
:100df000910f5400140036000180e800910090002b
:100e0000828f5000faff3a0029408000888f5400fa
:100e100001003100880478000900780036000700de
:100e20000000e00004003a00888f54000500320002
:100e30008904d100f5ff3700091878009fff0700eb
:100e4000d2ff37000000eb004f04be000000060098
:100e5000881f7800630440000800a1008000eb00b8
:100e6000800f540021003600e30f540001003e00c3
:100e70004800200008007800c2ff07008000eb0057
:100e80000000e00019003200900078009101780025
:100e900064815100880f510003003100110190005e
:100ea0000208780007003700088140000208780037
:100eb00091019000130198001001780011091400ad
:100ec00088087800100178000000eb000200e000c4
:100ed00004003200920190000300e00001003200a3
:100ee0000280e800004088008180e800010078006e
:100ef0004f04780000000600800078000000eb003e
:100f00000100e0000500340001007800a2fd0700a8
:100f1000e10f400001003a000000eb000000060075
:020000040000fa
:100f2000084a00001c41000036290000380000007b
:100f3000262100003e3000000000000000000000fc
:100f400000000000000000000000000000000000a1
:100f50000000000000000000000000000000000091
:100f6000010100000101000000000000000000007d
:100f70000000000000000000000000000000000071
:100f80000000000000000000000000000000000061
:100f9000000000000001000001010000010000004d
:100fa0000000000000000000000000000000000041
:100fb0000000000000000000000000000000000031
:100fc000000000000000000001010000010100001d
:100fd000010100000101000000000000000000000d
:100fe0000000000000000000000000000000000001
:100ff00000000000000000000000000000010000f0
:1010000001010000010100000101000001010000d8
:1010100000000000000000000000000000000000d0
:1010200000000000000000000000000000000000c0
:1010300001010000010100000101000001010000a8
:10104000010100000100000000000000000000009d
:101050000000000000000000000000000000000090
:101060000001000001010000010100000101000079
:10107000010100000101000001010000000000006a
:101080000000000000000000000000000000000060
:10109000000000000101000001010000010100004a
:1010a000010100000100000000010000010100003a
:1010b000010000000000000000000000000000002f
:1010c000000000000001000001010000010100001b
:1010d000010100000101000001010000000000000a
:1010e00001010000010100000000000000000000fc
:1010f00000000000000000000001000001010000ed
:1011000001010000010100000101000001010000d7
:1011100001000000000100000101000001000000ca
:1011200000000000000000000000000000010000be
:1011300001010000010100000101000001010000a7
:101140000101000001010000000000000101000099
:10115000010100000000000000000000000000008d
:101160000001000001010000010100000101000078
:101170000101000001010000010100000100000068
:10118000000100000101000001000000000000005b
:10119000000000000001000001010000010100004a
:1011a000010000000000000001010000010100003a
:1011b000010000000000000001010000010100002a
:1011c000000000000000000000010000010100001c
:1011d000010100000101000000000000000100000a
:1011e00001010000010000000000000000010000fb
:1011f00001010000010000000000000000010000eb
:1012000001010000010100000101000000000000d8
:1012100000000000010100000100000000000000cb
:1012200000000000000100000101000000000000bb
:1012300000010000010100000101000001000000a8
:10124000000000000000000000010000000000009d
:10125000000000000000000000000000010100008c
:101260000100000000000000010100000101000079
:10127000010000000000000000000000000000006d
:10128000000000000000000000000000000000005e
:10129000000100000101000000000000000100004a
:1012a000010100000000000000000000000000003c
:1012b000000000000000000000000000000000002e
:1012c000000000000000000001010000010000001b
:1012d000000100000101000001000000000000000a
:1012e00000000000000000000000000000000000fe
:1012f00000000000000000000000000000010000ed
:1013000001010000000100000101000001010000d6
:1013100000000000000000000000000000000000cd
:1013200000000000000000000000000000000000bd
:1013300000000000010100000101000001010000a7
:10134000010100000100000000000000000000009a
:10135000000000000000000000000000000000008d
:101360000000000000000000010100000101000079
:101370000101000001010000010100000000000067
:10138000000000000000000000000000000000005d
:10139000000000000000000000000000000100004c
:1013a0000101000001010000010100000101000035
:1013b000000000000000000000000000000000002d
:1013c000000000000000000000000000000000001d
:1013d0000001000001010000010100000101000006
:1013e00001010000010000000000000000000000fa
:1013f00000000000000000000000000000000000ed
:1014000000000000000100000101000001010000d7
:1014100000010000010100000101000000000000c7
:1014200000000000000000000000000000000000bc
:1014300000000000000000000001000001010000a9
:101440000101000000000000010100000101000096
:10145000010100000000000000000000000000008a
:10146000000000000000000000000000010100007a
:101470000101000001010000000000000001000067
:101480000101000001010000010000000000000057
:10149000000000000000000000000000000000004c
:1014a0000101000001010000010100000000000036
:1014b0000000000000010000010100000101000027
:1014c0000101000001010000000000000101000016
:1014d0000101000001010000010100000100000005
:1014e00000000000000000000000000000010000fb
:1014f00001010000010100000101000001010000e4
:1015000001010000010100000101000001010000d3
:1015100001000000000000000000000000000000ca
:1015200000000000000100000101000001010000b6
:1015300001010000010100000101000001010000a3
:101540000101000000000000000000000000000099
:10155000000000000000000000000000000000008b
:101560000101000001010000010100000101000073
:101570000101000001010000000000000000000067
:10158000000000000000000000000000000000005b
:101590000000000000000000010100000101000047
:1015a0000101000001010000010000000000000036
:1015b000000000000000000000000000000000002b
:1015c000000000000000000000000000000000001b
:1015d0000001000001010000010000000000000007
:1015e00000000000000000000000000000000000fb
:1015f00000000000000000000000000000000000eb
:1016000000000000000000000000000000000000da
:1016100000010000010100000100000000000000c6
:1016200000000000000000000000000000000000ba
:1016300000000000000000000000000000000000aa
:101640000000000000000000000100000101000097
:101650000100000000000000000000000000000089
:10166000000000000000000000000000000000007a
:101670000000000000000000000000000101000068
:101680000101000001010000010100000000000054
:10169000000000000000000000000000000000004a
:1016a000000000000000000000000000000000003a
:1016b0000001000001010000010100000101000023
:1016c0000101000000000000000000000000000018
:1016d000000000000000000000000000000000000a
:1016e00000000000000100000101000001010000f5
:1016f00001010000010100000101000000000000e4
:1017000000000000000000000000000000000000d9
:1017100000000000000000000101000001010000c5
:1017200001010000010100000101000001010000b1
:1017300001000000000000000000000000000000a8
:101740000000000000000000000000000101000097
:101750000101000001010000010100000100000082
:101760000001000001010000010000000000000075
:101770000000000000000000000000000001000068
:101780000101000001010000010100000101000051
:101790000101000000000000010100000101000043
:1017a0000000000000000000000000000000000039
:1017b0000001000001010000010100000101000022
:1017c0000101000001010000010000000001000013
:1017d0000101000001000000000000000000000006
:1017e00000000000000000000101000001010000f5
:1017f00001010000010100000101000001010000e1
:1018000001000000000100000101000001000000d3
:1018100000000000000000000000000001010000c6
:1018200001010000010100000101000001010000b0
:1018300001010000010100000000000001010000a2
:101840000101000000000000000000000000000096
:101850000001000001010000010100000100000082
:101860000000000001010000010100000100000073
:101870000000000001010000010100000000000064
:101880000000000000010000010100000101000053
:101890000101000000000000000100000101000043
:1018a0000100000000000000000100000101000034
:1018b0000100000000000000000100000101000024
:1018c0000101000001010000000000000000000014
:1018d0000101000001000000000000000000000005
:1018e00000010000010100000000000000000000f5
:1018f00001010000010100000101000000000000e2
:1019000000000000000000000100000000000000d6
:1019100000000000000000000001000001010000c4
:1019200000000000000100000101000001010000b2
:1019300000000000000000000000000000000000a7
:101940000000000000000000000000000000000097
:101950000101000001000000000000000001000083
:101960000101000000000000000000000000000075
:101970000000000000000000000000000000000067
:101980000000000000000000010100000100000054
:101990000001000001010000010000000000000043
:1019a0000000000000000000000000000000000037
:1019b0000000000000000000000000000001000026
:1019c0000101000000010000010100000101000010
:1019d0000000000000000000000000000000000007
:1019e00000000000000000000000000000000000f7
:1019f00000000000010100000100000001010000e2
:101a000001010000010100000000000000000000d2
:101a100000000000000000000000000000000000c6
:101a200000000000000000000001000001010000b3
:101a300000010000010100000101000001000000a0
:101a40000000000000000000000000000000000096
:101a50000000000000000000000000000000000086
:101a60000101000001000000000100000101000070
:101a70000101000000000000000000000000000064
:101a80000000000000000000000000000000000056
:101a90000000000000010000010100000000000043
:101aa0000101000001010000010000000000000031
:101ab0000000000000000000000000000000000026
:101ac0000000000000000000000100000101000013
:101ad0000100000000010000010100000101000000
:101ae00000000000000000000000000000000000f6
:101af00000000000000000000000000000010000e5
:101b000001010000010100000000000000010000d0
:101b100001010000010100000100000000000000c0
:101b200000000000000000000000000000000000b5
:101b3000000100000101000001010000010000009f
:101b4000000000000101000001010000010100008f
:101b50000000000000000000000000000000000085
:101b60000000000000010000010100000101000070
:101b70000100000000000000000000000001000063
:101b8000010100000101000001010000010100004d
:101b9000000000000101000001010000010100003f
:101ba0000101000001000000000000000000000032
:101bb0000000000000010000010100000101000020
:101bc000010100000101000001010000010100000d
:101bd0000101000001010000010000000000000000
:101be00000000000000000000000000000010000f4
:101bf00001010000010100000101000001010000dd
:101c000001010000010100000101000000000000ce
:101c100000000000000000000000000000000000c4
:101c200000000000000000000001000001010000b1
:101c3000010100000101000001010000010100009c
:101c40000100000000000000000000000000000093
:101c50000000000000000000000000000000000084
:101c6000000100000101000001010000010100006d
:101c70000101000000000000000000000000000062
:101c80000000000000000000000000000000000054
:101c90000000000000000000000000000101000042
:101ca0000101000000000000000000000000000032
:081cb00000000000000000002c
:020000040000fa
:101cb8003e0afa00e8004700027928000b000900f4
:101cc800b2587800f4004700c27928005f03090081
:101cd800b2587800403720000e004000c1af2800fd
:101ce8005f030900315878000036b100406d2000cc
:101cf80000004700af0109000018eb000036b100f2
:101d0800406d20000000470011c0b3004148980012
:101d1800406d20000000470011c0b30051489800f2
:101d2800406d20000000470011c0b30061489800d2
:101d3800406d20000000470011c0b30071489800b2
:101d4800406d20000000470011c0b30001689800f2
:101d5800406d20000000470011c0b30011689800d2
:101d6800406d20000000470011c0b30021689800b2
:101d7800406d20000000470011c0b3003168980092
:101d8800406d20000000470011c0b30011c098004a
:101d9800406d20000000470011c0b30021c098002a
:101da800406d20000000470011c0b30031c098000a
:101db800406d20000000470011c0b30041c09800ea
:101dc800406d20000000470011c0b30051c09800ca
:101dd800406d20000000470011c0b30061c09800aa
:101de800406d20000000470011c0b30071c098008a
:101df800406d20000000470011c0b30001c89800e2
:101e0800406d20000000470011c0b30041d8980081
:101e1800406d20000000470011c0b30051d8980061
:101e2800406d20000000470011c0b30061d8980041
:101e3800406d20000000470011c0b30071d8980021
:101e4800406d20000000470011c0b30001e0980079
:101e5800406d20000000470011c0b30011e0980059
:101e6800406d20000000470011c0b30021e0980039
:101e7800406d20000000470011c0b30031e0980019
:101e8800406d20000000470011c0b30041e09800f9
:101e9800406d20000000470011c0b30061f09800b9
:101ea800406d20000000470011c0b30071f0980099
:101eb800406d20000000470011c0b30001f89800f1
:101ec800406d20000000470011c0b30011f89800d1
:101ed800406d20000000470011c0b30021f89800b1
:101ee800406d20000000470011c0b30031f8980091
:101ef800406d20000000470011c0b30041f8980071
:101f0800406d20000000470011c0b30051f8980050
:101f1800406d20000000470011c0b30061f8980030
:101f2800406d20000000470011c0b30071f8980010
:101f3800406d20000000470011c0b3000140990027
:101f4800406d20000000470011c0b300714899009f
:101f5800406d20000000470011c0b30001509900f7
:101f6800406d20000000470011c0b30011509900d7
:101f7800406d20000000470011c0b30021509900b7
:101f8800406d20000000470011c0b3003150990097
:101f9800406d20000000470011c0b3004150990077
:101fa800406d20000000470011c0b3005150990057
:101fb800406d20000000470011c0b3006150990037
:101fc800406d20000000470011c0b3007150990017
:101fd800406d20000000470011c0b300015899006f
:101fe800406d20000000470011c0b300115899004f
:101ff800406d20000000470011c0b300215899002f
:10200800406d20000000470011c0b300315899000e
:10201800406d20000000470011c0b300116899000e
:10202800406d20000000470011c0b30021689900ee
:10203800406d20000000470011c0b30031689900ce
:10204800406d20000000470011c0b30041689900ae
:10205800406d20000000470011c0b300516899008e
:10206800406d20000000470011c0b300616899006e
:10207800406d20000000470011c0b300716899004e
:10208800406d20000000470011c0b30001709900a6
:10209800406d20000000470011c0b3001170990086
:1020a800406d20000000470011c0b3004170990046
:1020b800406d20000000470011c0b3005170990026
:1020c800406d20000000470011c0b3006170990006
:1020d800406d20000000470011c0b30071709900e6
:1020e800406d20000000470011c0b30021c09900d6
:1020f800406d20000000470011c0b30031c09900b6
:10210800406d20000000470011c0b30041c0990095
:10211800406d20000000470011c0b30051c0990075
:10212800406d20000000470011c0b30061c0990055
:10213800406d20000000470011c0b30071c0990035
:10214800406d20000000470011c0b30001c899008d
:10215800406d20000000470011c0b30011c899006d
:10216800406d20000000470011c0b30021c899004d
:10217800406d20000000470011c0b30031c899002d
:10218800406d20000000470011c0b30041c899000d
:10219800406d20000000470011c0b30071c89900cd
:1021a800406d20000000470011c0b30001d0990025
:1021b800406d20000000470011c0b30011d0990005
:1021c800406d20000000470011c0b30021d09900e5
:1021d800406d20000000470011c0b30041d89900ad
:1021e800406d20000000470011c0b30051d899008d
:1021f800406d20000000470011c0b30061d899006d
:10220800406d20000000470011c0b30071d899004c
:10221800406d20000000470011c0b30001e09900a4
:10222800406d20000000470011c0b30011e0990084
:10223800406d20000000470011c0b30021e0990064
:10224800406d20000000470011c0b30031e0990044
:10225800406d20000000470011c0b30041e0990024
:10226800406d20000000470011c0b30051e0990004
:10227800406d20000000470011c0b30061e09900e4
:10228800406d20000000470011c0b30071e09900c4
:10229800406d20000000470011c0b30021e89900fc
:1022a800406d20000000470011c0b30031e89900dc
:1022b800406d20000000470011c0b30041e89900bc
:1022c800406d20000000470011c0b30051e899009c
:1022d800406d20000000470011c0b30071f0990064
:1022e800406d20000000470011c0b30001f89900bc
:1022f800406d20000000470011c0b30011f899009c
:10230800406d20000000470011c0b30021f899007b
:10231800406d20000000470011c0b30031f899005b
:10232800406d20000000470011c0b30041f899003b
:10233800406d20000000470011c0b30051f899001b
:10234800406d20000000470011c0b30061f89900fb
:10235800406d20000000470011c0b30071f89900db
:10236800406d20000000470011c0b30001409a00f2
:10237800406d20000000470011c0b30011409a00d2
:10238800406d20000000470011c0b30021409a00b2
:10239800406d20000000470011c0b30031409a0092
:1023a800406d20000000470011c0b30061409a0052
:1023b800406d20000000470011c0b30071409a0032
:1023c800406d20000000470011c0b30001489a008a
:1023d800406d20000000470011c0b30011489a006a
:1023e800406d20000000470011c0b30011509a0052
:1023f800406d20000000470011c0b30021509a0032
:10240800406d20000000470011c0b30031509a0011
:10241800406d20000000470011c0b30041509a00f1
:10242800406d20000000470011c0b30051509a00d1
:10243800406d20000000470011c0b30061509a00b1
:10244800406d20000000470011c0b30071509a0091
:10245800406d20000000470011c0b30001589a00e9
:10246800406d20000000470011c0b30011589a00c9
:10247800406d20000000470011c0b30021589a00a9
:10248800406d20000000470011c0b30031589a0089
:10249800406d20000000470011c0b30041589a0069
:1024a800406d20000000470011c0b30051589a0049
:1024b800406d20000000470011c0b30061589a0029
:1024c800406d20000000470011c0b30011609a0061
:1024d800406d20000000470011c0b30021609a0041
:1024e800406d20000000470011c0b30031609a0021
:1024f800406d20000000470011c0b30041609a0001
:10250800406d20000000470011c0b30041689a00e8
:10251800406d20000000470011c0b30051689a00c8
:10252800406d20000000470011c0b30061689a00a8
:10253800406d20000000470011c0b30071689a0088
:10254800406d20000000470011c0b30001709a00e0
:10255800406d20000000470011c0b30011709a00c0
:10256800406d20000000470011c0b30051709a0070
:10257800406d20000000470011c0b30061709a0050
:10258800406d20000000470011c0b30071709a0030
:10259800406d20000000470011c0b30001789a0088
:1025a800406d20000000470011c0b30011789a0068
:1025b800406d20000000470011c0b30051789a0018
:1025c800406d20000000470011c0b30061789a00f8
:1025d800406d20000000470011c0b30071789a00d8
:1025e800406d20000000470011c0b30001c09a00f0
:1025f800406d20000000470011c0b30061c09a0080
:10260800406d20000000470011c0b30071c09a005f
:10261800406d20000000470011c0b30001c89a00b7
:10262800406d20000000470011c0b30011c89a0097
:10263800406d20000000470011c0b30021c89a0077
:10264800406d20000000470011c0b30031c89a0057
:10265800406d20000000470011c0b30041c89a0037
:10266800406d20000000470011c0b30001d09a005f
:10267800406d20000000470011c0b30011d09a003f
:10268800406d20000000470011c0b30021d09a001f
:10269800406d20000000470011c0b30031d09a00ff
:1026a800406d20000000470011c0b30001d89a0017
:1026b800406d20000000470011c0b30011d89a00f7
:1026c800406d20000000470011c0b30021d89a00d7
:1026d800406d20000000470011c0b30031d89a00b7
:1026e800406d20000000470011c0b30001e09a00cf
:1026f800406d20000000470011c0b30011e09a00af
:10270800406d20000000470011c0b30021e09a008e
:10271800406d20000000470011c0b30031e09a006e
:10272800406d20000000470011c0b30041e09a004e
:10273800406d20000000470011c0b30051e09a002e
:10274800406d20000000470011c0b30061e09a000e
:10275800406d20000000470011c0b30031e89a0026
:10276800406d20000000470011c0b30041e89a0006
:10277800406d20000000470011c0b30051e89a00e6
:10278800406d20000000470011c0b30041f09a00de
:10279800406d20000000470011c0b30051f09a00be
:1027a800406d20000000470011c0b30061f09a009e
:1027b800406d20000000470011c0b30031f89a00b6
:1027c800406d20000000470011c0b30041f89a0096
:1027d800406d20000000470011c0b30051f89a0076
:1027e800406d20000000470011c0b30061f89a0056
:1027f800406d20000000470011c0b30071f89a0036
:10280800406d20000000470011c0b30001409b004c
:10281800406d20000000470011c0b30071409b00cc
:10282800406d20000000470011c0b30001509b001c
:10283800406d20000000470011c0b30011509b00fc
:10284800406d20000000470011c0b30021509b00dc
:10285800406d20000000470011c0b30061509b008c
:10286800406d20000000470011c0b30071509b006c
:10287800406d20000000470011c0b30001589b00c4
:10288800406d20000000470011c0b30011589b00a4
:10289800406d20000000470011c0b30021589b0084
:1028a800406d20000000470011c0b30031689b0054
:1028b800406d20000000470011c0b30041689b0034
:1028c800406d20000000470011c0b30051689b0014
:1028d800406d20000000470011c0b30021709b002c
:1028e800406d20000000470011c0b30031709b000c
:1028f800406d20000000470011c0b30041709b00ec
:10290800406d20000000470011c0b30071c09b005b
:10291800406d20000000470011c0b30001c89b00b3
:10292800406d20000000470011c0b30011c89b0093
:10293800406d20000000470011c0b30041c89b0053
:10294800406d20000000470011c0b30051c89b0033
:10295800406d20000000470011c0b30061c89b0013
:10296800406d20000000470011c0b30071c89b00f3
:10297800406d20000000470011c0b30021e09b001b
:10298800406d20000000470011c0b30031e09b00fb
:10299800406d20000000470011c0b30041e09b00db
:1029a800406d20000000470011c0b30061e09b00ab
:1029b800406d20000000470011c0b30071e09b008b
:1029c800406d20000000470011c0b30001e89b00e3
:1029d800406d20000000470011c0b30011e89b00c3
:1029e800406d20000000470011c0b30021e89b00a3
:1029f800406d20000000470011c0b30051f89b0053
:102a0800406d20000000470011c0b30061f89b0032
:102a1800406d20000000470011c0b30071f89b0012
:102a2800406d2000000047001020b00011c0b30026
:102a380001487800406d2000000047002020b000c9
:102a480011c0b30001487800406d20000000470025
:102a58003020b00011c0b30001487800406d20005c
:102a6800000047004020b00011c0b30001487800c2
:102a7800406d2000000047005020b00011c0b30096
:102a880001487800406d2000000047006020b00039
:102a980011c0b30001487800406d200000004700d5
:102aa8008021b00011c0b30001487800406d2000bb
:102ab800000047009021b00011c0b3000148780021
:102ac800406d200000004700a021b00011c0b300f5
:102ad80001487800406d200000004700c021b00088
:102ae80011c0b30001487800406d20000000470085
:102af800d021b00011c0b30001487800406d20001b
:102b080000004700e021b00011c0b3000148780080
:102b1800406d200000004700f021b00011c0b30054
:102b280001487800406d2000000047000022b000f6
:102b380011c0b30001487800406d20000000470034
:102b48001022b00011c0b30001487800406d200089
:102b5800000047003023b00011c0b30001487800de
:102b6800406d2000000047004023b00011c0b300b2
:102b780001487800406d2000000047005023b00055
:102b880011c0b30001487800406d200000004700e4
:102b98008023b00011c0b30001487800406d2000c8
:102ba800000047009023b00011c0b300014878002e
:102bb800406d200000004700a023b00011c0b30002
:102bc80001487800406d200000004700b023b000a5
:102bd80011c0b30001487800406d20000000470094
:102be800c023b00011c0b30001487800406d200038
:102bf80000004700e024b00011c0b300014878008d
:102c0800406d200000004700f024b00011c0b30060
:102c180001487800406d2000000047000025b00002
:102c280011c0b30001487800406d20000000470043
:102c38003025b00011c0b30001487800406d200075
:102c4800000047004025b00011c0b30001487800db
:102c5800406d2000000047005025b00011c0b300af
:102c680001487800406d2000000047006025b00052
:102c780011c0b30001487800406d200000004700f3
:102c88007025b00011c0b30001487800406d2000e5
:102c9800000047008026b00011c0b300014878004a
:102ca800406d2000000047009026b00011c0b3001e
:102cb80001487800406d200000004700a026b000c1
:102cc80011c0b30001487800406d200000004700a3
:102cd800b026b00011c0b30001487800406d200054
:102ce80000004700e026b00011c0b300014878009a
:102cf800406d200000004700f026b00011c0b3006e
:102d080001487800406d2000000047000027b0000f
:102d180011c0b30001487800406d20000000470052
:102d28001027b00011c0b30001487800406d2000a2
:102d3800000047002027b00011c0b3000148780008
:102d4800406d2000000047002028b00011c0b300eb
:102d580001487800406d2000000047003028b0008e
:102d680011c0b30001487800406d20000000470002
:102d78004028b00011c0b30001487800406d200021
:102d8800000047005028b00011c0b3000148780087
:102d9800406d2000000047006028b00011c0b3005b
:102da80001487800406d200000004700a028b000ce
:102db80011c0b30001487800406d200000004700b2
:102dc800b028b00011c0b30001487800406d200061
:102dd80000004700c028b00011c0b30001487800c7
:102de800406d200000004700d028b00011c0b3009b
:102df80001487800406d200000004700e028b0003e
:102e080011c0b30001487800406d20000000470061
:102e1800f028b00011c0b30001487800406d2000d0
:102e280000004700c029b00011c0b3000148780075
:102e3800406d200000004700d029b00011c0b30049
:102e480001487800406d200000004700e029b000ec
:102e580011c0b30001487800406d20000000470011
:102e6800f029b00011c0b30001487800406d20007f
:102e780000004700002ab00011c0b30001487800e4
:102e8800406d200000004700102ab00011c0b300b8
:102e980001487800406d200000004700502ab0002b
:102ea80011c0b30001487800406d200000004700c1
:102eb800602ab00011c0b30001487800406d2000be
:102ec80000004700702ab00011c0b3000148780024
:102ed800406d200000004700802ab00011c0b300f8
:102ee80001487800406d200000004700902ab0009b
:102ef80011c0b30001487800406d20000000470071
:102f0800a02ab00011c0b30001487800406d20002d
:102f180000004700602bb00011c0b30001487800e2
:102f2800406d200000004700702bb00011c0b300b6
:102f380001487800406d200000004700802bb00059
:102f480011c0b30001487800406d20000000470020
:102f5800902bb00011c0b30001487800406d2000ec
:102f680000004700a02bb00011c0b3000148780052
:102f7800406d200000004700b02bb00011c0b30026
:102f880001487800406d200000004700202cb00068
:102f980011c0b30001487800406d200000004700d0
:102fa800302cb00011c0b30001487800406d2000fb
:102fb80000004700402cb00011c0b3000148780061
:102fc800406d200000004700502cb00011c0b30035
:102fd80001487800406d200000004700602cb000d8
:102fe80011c0b30001487800406d20000000470080
:102ff800702cb00011c0b30001487800406d20006b
:1030080000004700802cb00011c0b30001487800d0
:10301800406d200000004700902cb00011c0b300a4
:1030280001487800406d200000004700a02cb00047
:1030380011c0b30001487800406d2000000047002f
:10304800d02cb00011c0b30001487800406d2000ba
:1030580000004700e02cb00011c0b3000148780020
:10306800406d200000004700f02cb00011c0b300f4
:1030780001487800406d200000004700002db00096
:1030880011c0b30001487800406d200000004700df
:10309800102db00011c0b30001487800406d200029
:1030a80000004700202db00011c0b300014878008f
:1030b800406d200000004700302db00011c0b30063
:1030c80001487800406d200000004700402db00006
:1030d80011c0b30001487800406d2000000047008f
:1030e800502db00011c0b30001487800406d200099
:1030f80000004700e02db00011c0b300014878007f
:10310800406d200000004700f02db00011c0b30052
:1031180001487800406d200000004700002eb000f4
:1031280011c0b30001487800406d2000000047003e
:10313800102eb00011c0b30001487800406d200087
:1031480000004700202eb00011c0b30001487800ed
:10315800406d200000004700302eb00011c0b300c1
:1031680001487800406d200000004700402eb00064
:1031780011c0b30001487800406d200000004700ee
:10318800502eb00011c0b30001487800406d2000f7
:1031980000004700602eb00011c0b300014878005d
:1031a800406d200000004700702eb00011c0b30031
:1031b80001487800406d200000004700802eb000d4
:1031c80011c0b30001487800406d2000000047009e
:1031d800902eb00011c0b30001487800406d200067
:1031e80000004700a02eb00011c0b30001487800cd
:1031f800406d200000004700b02eb00011c0b300a1
:1032080001487800406d200000004700c02eb00043
:1032180011c0b30001487800406d2000000047004d
:10322800d02eb00011c0b30001487800406d2000d6
:1032380000004700e02eb00011c0b300014878003c
:10324800406d200000004700f02eb00011c0b30010
:1032580001487800406d200000004700a02fb00012
:1032680011c0b30001487800406d200000004700fd
:10327800b02fb00011c0b30001487800406d2000a5
:1032880000004700c02fb00011c0b300014878000b
:10329800406d200000004700d02fb00011c0b300df
:1032a80001487800406d200000004700e02fb00082
:1032b80011c0b30001487800406d200000004700ad
:1032c800f02fb00011c0b30001487800406d200015
:1032d800000047000030b00011c0b300014878007a
:1032e800406d2000000047001030b00011c0b3004e
:1032f80001487800406d2000000047002030b000f1
:1033080011c0b30001487800406d2000000047005c
:103318003030b00011c0b30001487800406d200083
:10332800000047004030b00011c0b30001487800e9
:10333800406d2000000047005030b00011c0b300bd
:1033480001487800406d2000000047006030b00060
:1033580011c0b30001487800406d2000000047000c
:103368007030b00011c0b30001487800406d2000f3
:10337800000047008030b00011c0b3000148780059
:10338800406d2000000047008031b00011c0b3003c
:1033980001487800406d2000000047009031b000df
:1033a80011c0b30001487800406d200000004700bc
:1033b800a031b00011c0b30001487800406d200072
:1033c80000004700b031b00011c0b30001487800d8
:1033d800406d200000004700c031b00011c0b300ac
:1033e80001487800406d200000004700d031b0004f
:1033f80011c0b30001487800406d2000000047006c
:10340800e031b00011c0b30001487800406d2000e1
:1034180000004700f031b00011c0b3000148780047
:10342800406d2000000047000032b00011c0b3001a
:1034380001487800406d2000000047001032b000bd
:1034480011c0b30001487800406d2000000047001b
:103458002032b00011c0b30001487800406d200050
:10346800000047003032b00011c0b30001487800b6
:10347800406d2000000047004033b00011c0b30089
:1034880001487800406d2000000047005033b0002c
:1034980011c0b30001487800406d200000004700cb
:1034a8006033b00011c0b30001487800406d2000bf
:1034b800000047007033b00011c0b3000148780025
:1034c800406d2000000047008033b00011c0b300f9
:1034d80001487800406d2000000047009033b0009c
:1034e80011c0b30001487800406d2000000047007b
:1034f800a033b00011c0b30001487800406d20002f
:1035080000004700b033b00011c0b3000148780094
:10351800406d200000004700c033b00011c0b30068
:1035280001487800406d2000000047001035b000c9
:1035380011c0b30001487800406d2000000047002a
:103548002035b00011c0b30001487800406d20005c
:10355800000047003035b00011c0b30001487800c2
:10356800406d2000000047004035b00011c0b30096
:10357800014878000000eb00000f780040a320000d
:103588000000470001c2b3000148780040a32000b2
:10359800000047002007980050a3200000004700c3
:1035a800b1c1b3000148780050a3200000004700d3
:1035b8003007980040a32000000047001040780022
:1035c8008080fb0050a320000000470010407800d6
:1035d8000080fb000088b900000078001af6070098
:1035e8008000780060a320000000470001087800f0
:1035f8000040eb0020479800290037000040eb000e
:10360800304798001d00370060a3200000004700e5
:10361800100178002e4090008080fb0050a320000d
:1036280000004700104078000080fb000088b900c7
:1036380000007800800078003e4090000080fb0089
:1036480000804000000141002e4090000080fb00f7
:10365800be4090008181fb007b00b900000078002b
:1036680003004000000047004050900000497800e7
:103678003e4090000040e8003047980050a32000ea
:103688000000470010407800be40900080cf5000f6
:10369800ddff39002e4090000040e80020479800e8
:1036a80040a320000000470010407800ae40900082
:1036b80080cf5000d1ff39000000eb00000f7800e8
:1036c80060a3200000004700100078003e01900031
:1036d800ae0090002a0107000040eb002047980048
:1036e8002b0037000040eb003047980020003700df
:1036f80060a3200000004700100178002e409000d1
:103708008080fb0050a32000000047001040780094
:103718000080fb000088b900000078008000780075
:103728003e4090000080fb00008040000000410007
:10373800104178002e4090000080fb00be409000b1
:103748008181fb007b00b900000078000300400085
:103758000000470040509000804f510001003200a7
:103768001e0fe8003e4090000040e80030479800f7
:103778003e009000904078003e40900080cf50007e
:10378800dbff3e002e4090000040e80020479800f4
:103798002e009000904078002e40900080cf50007e
:1037a800d0ff3e0060a32000000047003e019000cb
:1037b800ae009000ef0107000000eb00000f78005a
:1037c8000040eb00204798002c0037000040eb0039
:1037d800304798002100370060a320000000470010
:1037e800100178002e4090008080fb0050a320003c
:1037f80000004700104078000080fb000088b900f6
:1038080000007800800078003e4090000080fb00b7
:103818000080400000004100104178002e409000d8
:103828000080fb00be4090000182fb00433720006f
:103838008e8141007b00b900000078000400400040
:1038480063407800804f5100010032001e0fe800ed
:103858003e4090000040e800304798003e0090004d
:10386800904078003e40900080cf5000daff3e0044
:103878002e4090000040e800204798002e0090005d
:10388800904078002e40900080cf5000cfff3e003f
:1038980060a32000000047003e019000ae009000a9
:1038a800e90207000000eb00000f78000040eb0081
:1038b800204798002b0037000040eb003047980065
:1038c8002000370060a320000000470010017800a6
:1038d8002e4090008080fb003e0090001040780051
:1038e8000080fb000088b9000000780080007800a4
:1038f8003e4090000080fb00008040000000410036
:10390800104178002e4090000080fb00be409000df
:103918000182fb00416d2000810147007b00b90056
:10392800000078000400400063407800804f510098
:10393800010032001e0fe8003e4090000040e80001
:10394800304798003e009000904078003e4090003c
:1039580080cf5000dbff3e002e4090000040e80082
:10396800204798002e009000904078002e4090004c
:1039780080cf5000d0ff3e00a0a3200000004700e9
:103988008040eb0001487800b0a320000000470009
:1039980041c0b30001487800c0a3200000004700e0
:1039a80031c0b3000148780060a320000000470040
:1039b8009002780080a3200000034700a0a3200005
:1039c8000002470050a320008001470040a32000c8
:1039d80000014700c0a3200080004700b0a32000da
:1039e800000047004d0407000040eb002047980006
:1039f8001100370080a320000000470090007800e5
:103a08002e4090000080fb0000804000904078002d
:103a18002e4090000080fb00000047000048900006
:103a280080cf5000010032001e0fe8002e409000a9
:103a38000040e800204798002e4090000081fb00dd
:103a4800b0a3200000004700104078008080fb00f1
:103a5800c0a3200000004700104078000080fb0051
:103a68000088b90000007800800f5100e1ff3500a0
:103a780060a32000000047009002780080a3200087
:103a880000034700a0a320000002470050a3200025
:103a98008001470040a3200000014700c0a3200088
:103aa80080004700b0a32000000047001b04070067
:103ab80060a3200000004700100078007df4070094
:103ac80080a32000000047001000780079f4070068
:103ad800aafe37000c00fa004047980051479800aa
:103ae8006247980073479800440798005507980064
:103af8004e4090000080fb00000f78001a0037004d
:103b08006e4090000080fb001007980010003700fe
:103b18005e009000104078008080fb001e00780056
:103b28000088b90000007800800078001e0090002e
:103b380000804000ce009000008040008040eb00f4
:103b4800014878001e0090000000e8001007980067
:103b58007e4090008080fb001e009000808f500007
:103b6800ebff3c001e0fe8005e4090000080fb0069
:103b78009e0f5000e2ff3c000080fa0000000600a3
:103b88000a00fa00200798003107980042079800b9
:103b98004e009000104078000080fb008000eb0091
:103ba8007cf307000200200003e82300cef307009f
:103bb8000200200003f0230098f2070057f30700e3
:103bc800204798003e009000104078000080fb00dd
:103bd8008000eb006ff30700a299290093e123000e
:103be800c1f307000200200003f023008bf2070056
:103bf8004af3070030479800ae40900011479800fc
:103c0800200037000040eb00004f7800100037001c
:103c18009e80fb004e009000104078000080fb0062
:103c28000088b90000007800800078001e409000ed
:103c38000080fb0000804000ae0090000080400043
:103c480010407800e14f5000060032001e4fe80097
:103c58003e009000104078009e4f5000ecff3e0060
:103c680001003700000000003e009000104078007e
:103c78009e4f5000070032001e4090000040e900af
:103c8800104798001e4090000004e000ddff3a0055
:103c980001003700000000003e009000104078004e
:103ca800ce0290002e0290009e4190000041eb0051
:103cb800804078000040eb0086ff07003e0090003f
:103cc800904078002e40900000c0500010479800a7
:103cd800200037000040eb00004f7800100037004c
:103ce8009e80fb004e009000104078000080fb0092
:103cf8000088b90000007800800078001e4090001d
:103d08000080fb0000804000ae0090000080400072
:103d180010407800e14f5000060032001e4fe800c6
:103d28003e009000104078009e4f5000ecff3e008f
:103d380001003700000000003e00900010407800ad
:103d48009e4f5000090032001e4090000040e800dd
:103d5800104798003e009000904078001e40900068
:103d680080cf5000dbff3e0001003700000000005c
:103d78003e009000904078001e40900080cf500098
:103d88000b0036003e009000904078003e00900006
:103d980010407800ce0290002e02900081417800f9
:103da8001e419000804078000040eb0049ff07006a
:103db800be409000014f7800220037000040eb0021
:103dc80010479800120037009e80fb004e009000bc
:103dd800104078000080fb000088b90000007800df
:103de800800078001e4090000080fb0000804000aa
:103df800ae0090000080400010407800e14f500075
:103e0800090032001e4090000040e800104798006a
:103e18003e009000904078001e40900080cf5000f7
:103e2800e9ff3e0001003700000000003e0090005e
:103e3800904078001e40900080cf5000050032006e
:103e48001e4fe9001e4078000004e000dbff3a0046
:103e580001003700000000003e009000104078008c
:103e6800ce0290002e029000804178000041eb00c5
:103e78009e4078000040eb0016ff07003e009000cf
:103e8800904078003e40900000cf5000220037005c
:103e98000040eb0010479800120037009e80fb009e
:103ea8004e009000104078000080fb000088b900a8
:103eb80000007800800078001e4090000080fb0021
:103ec80000804000ae009000008040001040780064
:103ed800e14f5000090032001e4090000040e80009
:103ee800104798003e009000904078001e409000d7
:103ef80080cf5000e9ff3e000100370000000000bd
:103f08003e009000904078001e40900080cf500006
:103f1800060032001e4fe8003e0090001040780076
:103f28009e4f5000daff3e000100370000000000fd
:103f38003e009000104078009e4f50000b00360065
:103f48003e009000904078003e00900010407800bd
:103f5800ce0290002e029000814178000041eb00d3
:103f6800804078001e407800dafe07000080fa00e2
:103f7800000006003400fa00889fbe008a9fbe0039
:103f880070179800011f9800121f98000e189000d3
:103f9800104078008080fb001e18900010407800c8
:103fa8000080fb000088b900000078000000400095
:103fb800a5f30700400f98000040eb00004f780081
:103fc8001a0037000040eb00104798001100370036
:103fd8009e80fb001e189000104078000080fb00b7
:103fe8000088b90000007800800078001e4090002a
:103ff8000080fb0000804000ce0890000080400058
:104008008040eb00014878001e4090000040e80026
:10401800104798001e189000904078001e409000ad
:1040280080cf5000eaff3e001e4fe8000e189000b7
:10403800104078009e4f5000e2ff3e006000b8003c
:10404800200f9800310f98002e099000be099000ab
:10405800020f9800130f98000e0990009e09900017
:1040680062079800730798006e019000fe019000a7
:1040780042079800530798004e019000de01900017
:1040880022079800330798000040eb00004f7800a3
:10409800550037000040eb00104798004c003700ef
:1040a8007e109000100178009e80fb001e18900082
:1040b800104078000080fb000088b90000007800fc
:1040c800800078001e4090000080fb0000804000c7
:1040d8000000410010407800e14f500039003a00dc
:1040e8001e80fb000000e800cf80de0026f20700fb
:1040f8000001be002e009000be00900047f10700ae
:1041080020079800310798001e4090000080fb00af
:104118000000e800cf80de001bf207000001be00af
:104128004e009000de0090003cf107004007980028
:10413800510798001e80fb008000e8001e40900098
:104148000080fb000000e8000088b900000078004b
:10415800cf80de000cf207000001be006e00900068
:10416800fe0090002df10700600798007107980085
:104178001e80fb008000e8001e80fb000000e800b5
:104188000088b90000007800cf80de00fef107004b
:104198000001be000e0890009e0890001ff1070065
:1041a800000f9800110f98000200200003f8230068
:1041b8002e089000be08900018f10700200f980004
:1041c800310f98001e4090000040e800104798000a
:1041d8001e189000904078001e40900080cf50003c
:1041e800afff3e001e4fe8000e1890001040780008
:1041f8009e4f5000a7ff3e002e099000be09900078
:104208002e009000be00900061f10700500f98004a
:10421800610f98002e099000be0990004e00900092
:10422800de0090005af10700700f980001179800ff
:104238002e099000be0990006e009000fe009000cc
:1042480053f107000004be007e0990008e11900013
:104258005e089000ee08900023f207000001be00ff
:104268000800be00ecf007000004be002e09900014
:10427800be0990000e0890009e08900044f10700c7
:104288000005be005e099000ee0990005e089000ef
:10429800ee08900014f207000001be000a00be00fc
:1042a800ddf007000001be000800be0038f107007d
:1042b80010179800211798000040eb00004f780075
:1042c800530037001e80fb000000e800cf80de00ae
:1042d800adf107005e099000ee099000cef00700ee
:1042e8001e119000ae119000fff107007e099000aa
:1042f8008e119000c9f007003017980041179800f8
:104308007e0990008e1190003e109000ce10900013
:10431800c1f0070050179800611798000040eb00a3
:1043280010479800340037007e1090001001780084
:104338009e80fb001e189000104078000080fb0053
:104348000088b90000007800800078001e409000c6
:104358000080fb0000804000000041001040780011
:10436800e14f500021003a001e4090000080fb0001
:104378008000eb0087f107005e119000ee119000bd
:10438800a5f0070044f107000000780020479800d6
:104398001e189000904078002e40900080cf50006a
:1043a80004003e001e189000104078000040e9000c
:1043b800204798009e80fb001e189000104078004f
:1043c8000080fb000088b9000000780080007800b9
:1043d8002e4090000080fb0000804000ce08900036
:1043e8000080400011c0b300014878001e409000d2
:1043f8000040e800104798001e1890009040780090
:104408001e40900080cf5000c7ff3e001e4fe800be
:104418000e189000104078009e4f5000a9ff3e00f3
:104428007e1090001000780022f207007e109000a5
:10443800ce099000030878004f05be004f04be0067
:104448000080fa00000006001200fa0060079800d9
:1044580071079800020f98000040eb004047980051
:104468000040eb0020479800280037000040eb0090
:1044780030479800170037006e0090001001780050
:104488002e4090008080fb000e08900010407800bd
:104498000080fb000088b9000000780080007800e8
:1044a8003e4090000080fb0000804000000041007a
:1044b80010407800e14f500003003a0010c0b300ec
:1044c80040479800080037003e4090000040e80050
:1044d800304798000e089000904078003e409000c9
:1044e80080cf5000e4ff3e004e4090000004e00002
:1044f80003003200ae409000014f780008003700fa
:104508002e4090000040e800204798007e00900070
:10451800904078002e40900080cf5000d3ff3e009e
:104528000040eb00404798007e0090001040780063
:104538000040e900204798000040eb003047980011
:10454800170037006e009000100178002e40900090
:104558008080fb000e089000104078000080fb006f
:104568000088b90000007800800078003e40900084
:104578000080fb00008040000000410010407800ef
:10458800e14f500003003a0010c0b30040479800c4
:10459800080037003e4090000040e800304798008f
:1045a8000e089000904078003e40900080cf500068
:1045b800e4ff3e004e4090000004e0000700320097
:1045c800ae409000514798000040eb0040479800eb
:1045d8000040eb00204798002c0037002e40900048
:1045e8000040e90020479800d3ff37000040eb0067
:1045f80030479800170037006e00900010017800cf
:104608003e4090008080fb000e089000104078002b
:104618000080fb000088b900000078008000780066
:104628002e4090000080fb00008040000000410008
:1046380010407800e14f500003003a0010c0b3006a
:1046480040479800080037003e4090000040e800ce
:10465800304798007e009000904078003e409000df
:1046680080cf5000e4ff3e004e4090000004e00080
:1046780003003200ae409000114798000800370050
:104688002e4090000040e800204798000e08900057
:10469800904078002e40900080cf5000d3ff3e001d
:1046a8000040eb00404798000e089000104078004a
:1046b8000040e900204798000040eb003047980090
:1046c800170037006e009000100178003e409000ff
:1046d8008080fb000e089000104078000080fb00ee
:1046e8000088b90000007800800078002e40900013
:1046f8000080fb000080400000004100104078006e
:10470800e14f500003003a0010c0b3004047980042
:10471800080037003e4090000040e800304798000d
:104728007e009000904078003e40900080cf50007e
:10473800e4ff3e004e4090000004e0001600320006
:10474800ae409000614798005e4090001e405000c7
:104758000040e80070479800ee4090001e4090002e
:1047680000c050000040e800004f98007e409000d4
:104778008080fb000e4890000080fb000088b90094
:1047880000007800b0f10700500798000040eb00e7
:10479800204798001f0037002e4090000040e90095
:1047a80020479800c4ff37000040eb0030479800ce
:1047b800110037002e4090008080fb000e489000ca
:1047c8000080fb000088b9000000780080007800b5
:1047d8003e4090000080fb0000804000de0090001a
:1047e800008040008040eb00014878003e40900087
:1047f8000040e80030479800be4090000e48900006
:1048080080cf5000ebff39002e4090000040e800b8
:1048180020479800ae4090007e40900080cf500026
:10482800e1ff39009e407800214798002e003700ac
:104838009e40900031479800240037002e40900099
:104848008080fb001e80fb00808050000e48900096
:104858000080fb000088b900000078008000780024
:104868003e4090000081fb001e4090000080fb004d
:104878000000510000804000de00900000814000f0
:104888006e009000900178002e4090008080fb0020
:104898000e089000104078000080fb000088b900e6
:1048a80000007800800078003e4090000080fb0007
:1048b80000804000008041001040780000497800e6
:1048c8003e4090000040e80030479800be4090000d
:1048d8006e40900080cf5000d8ff36002e409000e8
:1048e8000040e80020479800ae4090005e409000ed
:1048f80080cf5000ceff36006e0090001000780088
:10490800ecf007007e009000fe409000014878001f
:104918000e0890008e489000014878006e009000c4
:10492800de009000010878000080fa000000060010
:104938001000fa0040079800510798006207980095
:10494800634f9800744f98005e0090008040eb0021
:10495800014878005e009000904078004e0090007a
:10496800014878004e009000904078001147980068
:104978009e409000014f7800ee4890003147980023
:10498800be409000214798006e009000ae40900015
:10499800014878007e4890000080fb000000e90094
:1049a80000407800ee4890008180fb000088b90044
:1049b800000078004047980010c0b30050479800a6
:1049c8004f003700ae4090007e48900080cf5000e6
:1049d80003003a001e4fe8000040eb002047980013
:1049e800be4090006e48900080cf500005003a000d
:1049f8001e4090000040e800104798000040eb007f
:104a0800304798005e4090000080fb00ce00900088
:104a1800008040001e4878005e4090000080fb0047
:104a2800de009000008040009e4090000148780021
:104a3800fe4890002e40900000c05000604798004b
:104a4800ee4890003e40900000c05000704798002b
:104a5800ee4090007e40900080cf50000700360066
:104a68005e4090000080fb00ee0090000080400057
:104a7800fe40900001487800060037005e40900034
:104a88000080fb00ee00900000804000ee409000a7
:104a9800014878005e4090000080fb00ee00900026
:104aa8000080400010407800ae40900000c04000f8
:104ab800204798005e4090000080fb00ee009000c8
:104ac8000080400010407800be40900000c04000c8
:104ad800304798005e4090000080fb00ee00900098
:104ae8000080400010407800ce40900000c0500088
:104af800404798005e4090000040e800504798000a
:104b08004e4090000004e000aeff3a005e40900086
:104b18000080fb000080fa0000000600ea02fa00ac
:104b2800881f780060af9a0071af9a0002b79a00a8
:104b380013b79a0024b79a0035b79a0046b79a0077
:104b48006ea89200104078008080fb007ea892003a
:104b5800104078000080fb000088b9000000780051
:104b6800b9f00700400798006ea89200104078003e
:104b78000080fb0000004000b3f0070050079800d9
:104b88000040eb00004f78000b0037001e80fb0050
:104b980000004000de009000008440007ea89200e3
:104ba800104078000080fb0000004000a6f00700dd
:104bb800000c78001e4fe8006ea8920010407800a4
:104bc8009e4f5000f1ff3e000040eb00004f780080
:104bd800170037000040eb00304798000e00370000
:104be8001e80fb0000004000de00900000804000b6
:104bf800900078003e4090000080fb0000004000dc
:104c0800008040008000eb00010878003e409000e2
:104c18000040e800304798007ea892009040780055
:104c28003e40900080cf5000edff3e001e4fe80050
:104c38006ea89200104078009e4f5000e5ff3e009d
:104c48000eb09200904078006ea892001040780054
:104c580080cf50000c0031006ea8920010427800fe
:104c68000eb0920090417800c20f20000e01410062
:104c7800410820008e8040006c0047002cff070090
:104c8800104798000b0037000eb0920010427800d1
:104c98006ea8920090417800c20f20000e014100da
:104ca800410820008e8040006c00470020ff07006c
:104cb800104798001eb09200904078007ea892009d
:104cc8001040780080cf50000d0031007ea892007f
:104cd800104278001eb092009041780042262000d1
:104ce8000e014100c11e20008e80400040172000a8
:104cf8000e0040000eff0700204798000c00370008
:104d08001eb09200104278007ea892009041780070
:104d1800422620000e014100c11e20008e80400066
:104d2800401720000e00400001ff070020479800b0
:104d38000eb09200904078006ea892001040780063
:104d480080cf50005b0039001eb092009040780080
:104d58007ea892001040780080cf5000550039009e
:104d68000040eb00004f78004d0037000040eb009a
:104d780030479800450037001e80fb0000004700c0
:104d8800404091008080fb001eb0920010407800e7
:104d98000080fb000088b9000000780080007800df
:104da8003e4090000080fb000000470040e8930070
:104db8000080fb0000804000beb0920000804000f0
:104dc80010407800e14f50002d003a001e80fb0093
:104dd80000004700404890000080fb0000004000b1
:104de800de00900000804000900078003e40900077
:104df8000080fb000000470040f092000080fb00ac
:104e080000004000008140001e80fb0000004700b9
:104e1800404890000080fb0000004000de00900049
:104e280000804000900078003e4090000080fb0029
:104e38000000470040f092000080fb0000004000a6
:104e480000804000900178001e80fb0000004700b1
:104e580040f891008080fb003e4090000080fb00fd
:104e6800442620000e024200644078000080fb00c7
:104e78000088b9000000780000804100000978002f
:104e88003e4090000040e80030479800be40900047
:104e98002e40900080cf5000b7ff39001e4fe80029
:104ea8001e4090009e40780080cf5000afff390030
:104eb800160137000eb09200904078006ea892005c
:104ec8001040780080cf50005b0039001eb092007f
:104ed800904078007ea892001040780080cf500063
:104ee800550031000040eb00004f78004d003700be
:104ef8000040eb0030479800450037001e80fb005b
:104f080000004700404091008080fb001eb09200e6
:104f1800104078000080fb000088b900000078008d
:104f2800800078003e4090000080fb0000004700b1
:104f380040f092000080fb0000804000beb092006c
:104f48000080400010407800e14f50002d003a00ea
:104f58001e80fb0000004700404890000080fb00d6
:104f680000004000de0090000080400090007800c3
:104f78003e4090000080fb000000470040e893009e
:104f88000080fb0000004000008140001e80fb0004
:104f980000004700404890000080fb0000004000ef
:104fa800de00900000804000900078003e409000b5
:104fb8000080fb000000470040e893000080fb00f1
:104fc8000000400000804000900178001e80fb0037
:104fd8000000470040f891008080fb003e409000b0
:104fe8000080fb00442620000e0242006440780046
:104ff8000080fb000088b9000000780000804100b4
:10500800000978003e4090000040e80030479800d2
:10501800be4090002e40900080cf5000b7ff39006e
:105028001e4fe8001e4090009e40780080cf500040
:10503800afff3900b50037000eb0920090407800fd
:105048006ea892001040780080cf50005b003100bd
:105058001eb09200904078007ea892001040780020
:1050680080cf5000550039000040eb00004f780019
:105078004d0037000040eb003047980045003700ee
:105088001e80fb0000004700404890008080fb0025
:105098001eb09200104078000080fb000088b90024
:1050a80000007800800078003e4090000080fb00ff
:1050b8000000470040e893000080fb0000804000ab
:1050c800beb092000080400010407800e14f5000d0
:1050d8002d003a001e80fb00000047004040910070
:1050e8000080fb0000004000de00900000804000cf
:1050f800900078003e4090000080fb0000004700d0
:1051080040f092000080fb00000040000081400059
:105118001e80fb0000004700404091000080fb001b
:1051280000004000de009000008040009000780001
:105138003e4090000080fb000000470040f09200d5
:105148000080fb00000040000080400090017800d3
:105158001e80fb000000470040f891008080fb00a3
:105168003e4090000080fb00442620000e024200d2
:10517800644078000080fb000088b90000007800d7
:1051880000804100000978003e4090000040e8009f
:1051980030479800be4090002e40900080cf5000cd
:1051a800b7ff39001e4fe8001e4090009e4078006f
:1051b80080cf5000afff3900540037000040eb00ab
:1051c800004f78004d0037000040eb003047980052
:1051d800450037001e80fb0000004700404091005a
:1051e8008080fb001eb09200104078000080fb0019
:1051f8000088b90000007800800078003e409000e8
:105208000080fb000000470040f092000080fb0097
:1052180000804000beb0920000804000104078003e
:10522800e14f50002d003a001e80fb0000004700af
:10523800404091000080fb0000004000de0090002c
:1052480000804000900078003e4090000080fb0005
:105258000000470040e893000080fb000000400089
:10526800008140001e80fb00000047004040910084
:105278000080fb0000004000de009000008040003d
:10528800900078003e4090000080fb00000047003e
:1052980040e893000080fb000000400000804000d0
:1052a800900178001e80fb000000470040f8910044
:1052b8008080fb003e4090000080fb0044262000d8
:1052c8000e024200644078000080fb000088b900ac
:1052d8000000780000804100000978003e409000fe
:1052e8000040e80030479800be4090002e409000f3
:1052f80080cf5000b7ff39001e4fe8001e409000d5
:105308009e40780080cf5000afff39000eb0920069
:10531800904078006ea892001040780080cf50002e
:10532800050036000eb09200104078000080fb00a7
:1053380020079800040037006ea8920010407800fb
:105348000080fb00200798001eb092009040780073
:105358007ea892001040780080cf500005003600eb
:105368001eb09200104078000080fb0030079800c3
:10537800040037007ea89200104078000080fb00ef
:10538800300798000040eb00004f78002d003700f0
:105398000040eb0030479800240037009e80fb0057
:1053a8007ea89200104078000080fb000088b900b9
:1053b800800078003e4090000080fb0000804000a4
:1053c800ce009000008140001e80fb0000004000dd
:1053d800de00900000804000900078003e40900081
:1053e8000080fb0000004000008040009000780032
:1053f800400620000088b90080017800ae009000c7
:105408003e0090000088b900000078000002780093
:10541800110009008481d800004078000049780014
:105428003e4090000040e800304798007ea8920077
:10543800904078003e40900080cf5000d7ff3e005b
:105448001e4fe8006ea89200104078009e4f500052
:10545800cfff3e004eb09200ce00900001087800c9
:105468004eb09200100178006ea8920010407800ab
:105478008080fb007ea89200104078000080fb002e
:105488000088b9000000780000004100aeb092002a
:1054980091407800014878000040eb00004f780008
:1054a800070037001e80fb0000004000de0090006f
:1054b8000080400010007800feed07001e4fe80055
:1054c8006ea89200104078009e4f5000f5ff3e00f5
:1054d8005e009000f7ed07004f0478000080fa00a6
:0454e80000000600ba
:020000040000fa
:1054ec00040800000200000002000000040000009c
:1054fc000008000004000000000000000608000086
:0c550c0002000000000000000000000091
:00000001FF
