:020000040000fa
:080000000002040000000000f2
:020000040000fa
:040008000a110000d9
:020000040000fa
:04000c000a110000d5
:020000040000fa
:040010000a110000d1
:020000040000fa
:040014000a110000cd
:020000040000fa
:040018000a110000c9
:020000040000fa
:04001c000a110000c5
:020000040000fa
:040020000a110000c1
:020000040000fa
:040024000a110000bd
:020000040000fa
:040028000a110000b9
:020000040000fa
:04002c000a110000b5
:020000040000fa
:040030000a110000b1
:020000040000fa
:040034000a110000ad
:020000040000fa
:040038002a08000092
:020000040000fa
:04003c000a110000a5
:020000040000fa
:040040000a110000a1
:020000040000fa
:040044000a1100009d
:020000040000fa
:040048007a04000036
:020000040000fa
:04004c000a11000095
:020000040000fa
:040050000a11000091
:020000040000fa
:040054000a1100008d
:020000040000fa
:040058000a11000089
:020000040000fa
:04005c00da0c0000ba
:020000040000fa
:040060000a11000081
:020000040000fa
:040064000a1100007d
:020000040000fa
:040068000a11000079
:020000040000fa
:04006c000a11000075
:020000040000fa
:040070000a11000071
:020000040000fa
:040074006e08000012
:020000040000fa
:040078000a11000069
:020000040000fa
:04007c00d0080000a8
:020000040000fa
:040080000a11000061
:020000040000fa
:040084000a1100005d
:020000040000fa
:04008800ea1000007a
:020000040000fa
:04008c000a11000055
:020000040000fa
:040090000a11000051
:020000040000fa
:040094000a1100004d
:020000040000fa
:040098000a11000049
:020000040000fa
:04009c000a11000045
:020000040000fa
:0400a0004008000014
:020000040000fa
:0400a400de07000073
:020000040000fa
:0400a8000a11000039
:020000040000fa
:0400ac000a11000035
:020000040000fa
:0400b0000a11000031
:020000040000fa
:0400b4000a1100002d
:020000040000fa
:0400b8000a11000029
:020000040000fa
:0400bc000a11000025
:020000040000fa
:0400c0000a11000021
:020000040000fa
:0400c4000a1100001d
:020000040000fa
:0400c8000a11000019
:020000040000fa
:0400cc000a11000015
:020000040000fa
:0400d0000a11000011
:020000040000fa
:0400d4000a1100000d
:020000040000fa
:0400d8000a11000009
:020000040000fa
:0400dc000a11000005
:020000040000fa
:0400e0000a11000001
:020000040000fa
:0400e4002c060000e6
:020000040000fa
:0400e8000a110000f9
:020000040000fa
:0400ec000a110000f5
:020000040000fa
:0400f0000a110000f1
:020000040000fa
:0400f400c80200003e
:020000040000fa
:0400f8000a110000e9
:020000040000fa
:0400fc000a110000e5
:020000040000fa
:040100000a110000e0
:020000040000fa
:040104000a110000dc
:020000040000fa
:040108000a110000d8
:020000040000fa
:04010c000a110000d4
:020000040000fa
:040110000a110000d0
:020000040000fa
:040114000a110000cc
:020000040000fa
:040118000a110000c8
:020000040000fa
:04011c000a110000c4
:020000040000fa
:040120000a110000c0
:020000040000fa
:040124000a110000bc
:020000040000fa
:040128000a110000b8
:020000040000fa
:04012c000a110000b4
:020000040000fa
:04013000380800008b
:020000040000fa
:040134000a110000ac
:020000040000fa
:040138000a110000a8
:020000040000fa
:04013c000a110000a4
:020000040000fa
:040140000a110000a0
:020000040000fa
:040144000a1100009c
:020000040000fa
:040208000a110000d7
:020000040000fa
:04020c000a110000d3
:020000040000fa
:040210000a110000cf
:020000040000fa
:040214000a110000cb
:020000040000fa
:040218000a110000c7
:020000040000fa
:04021c000a110000c3
:020000040000fa
:040220000a110000bf
:020000040000fa
:040224000a110000bb
:020000040000fa
:040228000a110000b7
:020000040000fa
:04022c000a110000b3
:020000040000fa
:040230000a110000af
:020000040000fa
:040234000a110000ab
:020000040000fa
:040238000a110000a7
:020000040000fa
:04023c000a110000a3
:020000040000fa
:040240000a1100009f
:020000040000fa
:040244000a1100009b
:020000040000fa
:040248000a11000097
:020000040000fa
:04024c000a11000093
:020000040000fa
:040250000a1100008f
:020000040000fa
:040254000a1100008b
:020000040000fa
:040258000a11000087
:020000040000fa
:04025c000a11000083
:020000040000fa
:040260000a1100007f
:020000040000fa
:040264000a1100007b
:020000040000fa
:040268000a11000077
:020000040000fa
:04026c000a11000073
:020000040000fa
:040270000a1100006f
:020000040000fa
:040274000a1100006b
:020000040000fa
:040278000a11000067
:020000040000fa
:04027c000a11000063
:020000040000fa
:040280000a1100005f
:020000040000fa
:040284000a1100005b
:020000040000fa
:040288000a11000057
:020000040000fa
:04028c000a11000053
:020000040000fa
:040290000a1100004f
:020000040000fa
:040294000a1100004b
:020000040000fa
:040298000a11000047
:020000040000fa
:04029c000a11000043
:020000040000fa
:0402a0000a1100003f
:020000040000fa
:0402a4000a1100003b
:020000040000fa
:0402a8000a11000037
:020000040000fa
:0402ac000a11000033
:020000040000fa
:0402b0000a1100002f
:020000040000fa
:0402b4000a1100002b
:020000040000fa
:0402b8000a11000027
:020000040000fa
:0402bc000a11000023
:020000040000fa
:0402c0000a1100001f
:020000040000fa
:0402c4000a1100001b
:020000040000fa
:0402c8000a11000017
:020000040000fa
:0402cc000a11000013
:020000040000fa
:0402d0000a1100000f
:020000040000fa
:0402d4000a1100000b
:020000040000fa
:0402d8000a11000007
:020000040000fa
:0402dc000a11000003
:020000040000fa
:0402e0000a110000ff
:020000040000fa
:0402e4000a110000fb
:020000040000fa
:0402e8000a110000f7
:020000040000fa
:0402ec000a110000f3
:020000040000fa
:0402f0000a110000ef
:020000040000fa
:0402f4000a110000eb
:020000040000fa
:0402f8000a110000e7
:020000040000fa
:0402fc000a110000e3
:020000040000fa
:040300000a110000de
:020000040000fa
:040304000a110000da
:020000040000fa
:040308000a110000d6
:020000040000fa
:04030c000a110000d2
:020000040000fa
:040310000a110000ce
:020000040000fa
:040314000a110000ca
:020000040000fa
:040318000a110000c6
:020000040000fa
:04031c000a110000c2
:020000040000fa
:040320000a110000be
:020000040000fa
:040324000a110000ba
:020000040000fa
:040328000a110000b6
:020000040000fa
:04032c000a110000b2
:020000040000fa
:040330000a110000ae
:020000040000fa
:040334000a110000aa
:020000040000fa
:040338000a110000a6
:020000040000fa
:04033c000a110000a2
:020000040000fa
:040340000a1100009e
:020000040000fa
:040344000a1100009a
:020000040000fa
:100400006f9620008e6524000e0188000000000019
:10041000000020000000e000020032000001200087
:1004200020028800140007007c0707000000e0009d
:1004300003003a0020ab2200010020000200370038
:100440000000200001002000810f70000100320038
:1004500014000700000020000000e000020032004d
:100460000000020000000000641e02000000000006
:100470000040da000000fe004440a90020022000f5
:100480000000e0000300320000002000a00188000e
:100490004440a800000006008a1f78008b1f7800e7
:1004a0000000060091018800800478000000eb0045
:1004b0001a003700e284440032a0b4009905ba0063
:1004c000e284440032a0b4009906ba00e2844400f9
:1004d00032a0b4000006eb00476fde00fd07b2005b
:1004e000636ce10003003a00ebff07000000eb0043
:1004f0000a003700606ce10004003a00005deb0088
:100500008b05e900fdff3e00040037006168e10053
:10051000010032000086eb000b00070019c7ba008b
:100520001905ba000e04e00003003a000a00e000da
:10053000e0ff3a0000000600fe07b2009e018800be
:100540008a047800f5ff3700395dba008b05e900b1
:100550000c003200295dba008b05e900080032006a
:100560000c00e00003003a00e284440032a0b40032
:10057000f5ff370019ddba008b05e900faff3a00f4
:100580008904e800e184440032a0b40000000600c1
:100590003600f800809fbe00829fbe00849fbe0090
:1005a000869fbe000000fa00404380000000e80083
:1005b00040438800004080000000e80000408800c0
:1005c00089e0a9004143800010032000808f500083
:1005d000c1003600904380000000e0000c003a00ab
:1005e000a04380000000e00009003a0000c8b3000a
:1005f000c8120700a04380000000e800a043880064
:10060000904380000000e80090438800b10037006c
:1006100090438000e10f50004a003a00a043800060
:100620000000e00047003200a0438000ee0f5000c1
:100630001c003200ee0f500005003c00e60f500099
:1006400008003200e70f50000e0032002d00370086
:10065000ef0f50001b003200f00f5000210032005d
:1006600028003700a04380000000e900217c24001e
:100670009140780001417800c1922000827078009a
:1006800020003700a04380000000e900317c2400f6
:100690009140780001417800c1922000827078007a
:1006a00018003700a04380000000e900e17a240030
:1006b0009140780001417800c1922000827078005a
:1006c00010003700a04380000000e900f17a240008
:1006d0009140780001417800c1922000827078003a
:1006e00008003700a04380000000e900017b2400df
:1006f0009140780001417800c1922000827078001a
:1007000000000000a04380000000e900c19220002a
:100710006140780099120700a04380000000e800c3
:10072000a0438800a0438000f10f500069003a0008
:100730007428ef00904380000000e8009043880098
:100740006400370090438000e20f50000c003a0034
:10075000a04380000000e00009003a0000ccb30094
:100760006c120700a04380000000e800a04388004e
:10077000904380000000e800904388005500370057
:1007800090438000e30f500052003a00a0438000e5
:100790000000e0004f003200a0438000eb0f50004b
:1007a0001e003200eb0f500005003c00e90f500026
:1007b0000a003200ea0f5000100032003700370004
:1007c000ee0f500025003200ef0f50002b003200da
:1007d000ed0f50001900320030003700a0438000b8
:1007e0000000e9000178240091407800c2922000c6
:1007f000000041000150980028003700a04380000d
:100800000000e9001178240091407800c292200095
:10081000000041000150980020003700a0438000f4
:100820000000e9002178240091407800c292200065
:10083000000041000150980018003700a0438000dc
:100840000000e9004178240091407800c292200025
:10085000000041000150980010003700a0438000c4
:100860000000e9005178240091407800c2922000f5
:10087000000041000150980008003700a0438000ac
:100880000000e9006178240091407800c2922000c5
:10089000000041000150980000000000a0438000cb
:1008a0000000e90070004000c19220006140780023
:1008b00032120700a04380000000e800a043880037
:1008c000a0438000f10f500002003a007428ef00ae
:1008d0007228ef006828ef000080fa004f03be0086
:1008e0004f02be004f01be004f00be003600f900af
:1008f000004006003600f800809fbe00829fbe00c8
:10090000849fbe00869fbe000000fa004043800026
:100910000000e80040438800004080000000e8003c
:100920000040880089e0a9004143800010032000b6
:10093000808f5000c1003600704380000000e0004e
:100940000c003a00804380000000e00009003a00fb
:1009500000c8b300ef110700804380000000e800ea
:1009600080438800704380000000e80070438800e6
:10097000b100370070438000e10f50004a003a0098
:10098000804380000000e000470032008043800088
:10099000ee0f50001c003200ee0f500005003c002e
:1009a000e60f500008003200e70f50000e00320042
:1009b0002d003700ef0f50001b003200f00f5000e9
:1009c0002100320028003700804380000000e90049
:1009d000217c24009140780001417800c1922000e0
:1009e0008270780020003700804380000000e9001a
:1009f000317c24009140780001417800c1922000b0
:100a00008270780018003700804380000000e90001
:100a1000e17a24009140780001417800c1922000e1
:100a20008270780010003700804380000000e900e9
:100a3000f17a24009140780001417800c1922000b1
:100a40008270780008003700804380000000e900d1
:100a5000017b24009140780001417800c192200080
:100a60008270780000000000804380000000e900f0
:100a7000c192200061407800c011070080438000cf
:100a80000000e8008043880080438000f10f5000a0
:100a900069003a007028ef00704380000000e80011
:100aa000704388006400370070438000e20f5000fc
:100ab0000c003a00804380000000e00009003a008a
:100ac00000ccb30093110700804380000000e800d1
:100ad00080438800704380000000e8007043880075
:100ae0005500370070438000e30f500052003a0079
:100af000804380000000e0004f003200804380000f
:100b0000eb0f50001e003200eb0f500005003c00c0
:100b1000e90f50000a003200ea0f500010003200c6
:100b200037003700ee0f500025003200ef0f500065
:100b30002b003200ed0f500019003200300037005a
:100b4000804380000000e900017824009140780093
:100b5000c292200000004100015098002800370098
:100b6000804380000000e900117824009140780063
:100b7000c292200000004100015098002000370080
:100b8000804380000000e900217824009140780033
:100b9000c292200000004100015098001800370068
:100ba000804380000000e9004178240091407800f3
:100bb000c292200000004100015098001000370050
:100bc000804380000000e9005178240091407800c3
:100bd000c292200000004100015098000800370038
:100be000804380000000e900617824009140780093
:100bf000c292200000004100015098000000000057
:100c0000804380000000e90070004000c192200095
:100c10006140780059110700804380000000e8001f
:100c20008043880080438000f10f500002003a00aa
:100c30007028ef006e28ef006828ef000080fa00af
:100c40004f03be004f02be004f01be004f00be006a
:100c50003600f900004006003600f800809fbe0014
:100c6000829fbe00849fbe00869fbe000000fa00e7
:100c7000404380000000e8004043880000408000be
:100c80000000e8000040880089e0a900414380009e
:100c900010032000808f5000c100360050438000b8
:100ca0000000e0000c003a00604380000000e0001b
:100cb00009003a0000c8b300161107006043800025
:100cc0000000e80060438800504380000000e80016
:100cd00050438800b100370050438000e10f5000be
:100ce0004a003a00604380000000e0004700320004
:100cf00060438000ee0f50001c003200ee0f5000e9
:100d000005003c00e60f500008003200e70f5000dd
:100d10000e0032002d003700ef0f50001b00320094
:100d2000f00f50002100320028003700604380009f
:100d30000000e900217c2400914078000141780006
:100d4000c19220008270780020003700604380004c
:100d50000000e900317c24009140780001417800d6
:100d6000c192200082707800180037006043800034
:100d70000000e900e17a2400914078000141780008
:100d8000c19220008270780010003700604380001c
:100d90000000e900f17a24009140780001417800d8
:100da000c192200082707800080037006043800004
:100db0000000e900017b24009140780001417800a7
:100dc000c192200082707800000000006043800023
:100dd0000000e900c192200061407800e7100700a0
:100de000604380000000e8006043880060438000aa
:100df000f10f500069003a006c28ef00504380006a
:100e00000000e80050438800640037005043800031
:100e1000e20f50000c003a00604380000000e00048
:100e200009003a0000ccb300ba100700604380000c
:100e30000000e80060438800504380000000e800a4
:100e4000504388005500370050438000e30f5000a6
:100e500052003a00604380000000e0004f00320082
:100e600060438000eb0f50001e003200eb0f50007b
:100e700005003c00e90f50000a003200ea0f500064
:100e80001000320037003700ee0f5000250032000e
:100e9000ef0f50002b003200ed0f50001900320010
:100ea00030003700604380000000e9000178240032
:100eb00091407800c292200000004100015098004b
:100ec00028003700604380000000e900117824000a
:100ed00091407800c292200000004100015098002b
:100ee00020003700604380000000e90021782400e2
:100ef00091407800c292200000004100015098000b
:100f000018003700604380000000e90041782400a9
:100f100091407800c29220000000410001509800ea
:100f200010003700604380000000e9005178240081
:100f300091407800c29220000000410001509800ca
:100f400008003700604380000000e9006178240059
:100f500091407800c29220000000410001509800aa
:100f600000000000604380000000e90070004000c5
:100f7000c19220006140780080100700604380002b
:100f80000000e8006043880060438000f10f5000db
:100f900002003a006c28ef006a28ef006828ef0092
:100fa0000080fa004f03be004f02be004f01be009a
:100fb0004f00be003600f90000400600809fbe00d2
:100fc000821f78000000fa00504480000000e0001a
:100fd0001b00350050448000f20f500018003c0008
:100fe00060448000524480007300b9000000780023
:100ff0000200400081762400614078000080fb0000
:10100000a0118800504480000000e800504488008f
:1010100050448000f20f500004003400604480000f
:101020000000e800604488008a28ef0060448000e7
:10103000e70f5000020034008a28ef008c28ef00f0
:1010400087e0a9000080fa004f0178004f00be0041
:10105000004006000000fa00000000000000000050
:10106000000000008480a9000080fa000040060013
:101070000000fa008c40a9000080fa000040060041
:10108000809fbe00821f78000000fa00404480006c
:10109000b111800001417800c19420008270780075
:1010a000404480000000e800404488004044800044
:1010b000e80f5000040034001000200010408800a9
:1010c0008828ef0097c0a90087c0a9000080fa0017
:1010d0004f0178004f00be0000400600809fbe0018
:1010e0000000fa0000000000000000000000000006
:1010f00000000000a11680000004200000806000b5
:101100000000e00002003a0010002000b043880018
:10111000a116800000042000008060000000e000b4
:10112000010032007628ef00a116800000002200a6
:10113000008060000000e00002003a001000200083
:10114000c0438800a11680000000220000806000db
:101150000000e000010032007828ef00a1168000b6
:1011600000082000008060000000e00002003a005b
:1011700010002000e0438800a11680000008200035
:10118000008060000000e000010032007c28ef00d9
:101190008660a9000080fa004f00be0000400600f3
:1011a0003600f800809fbe00829fbe00849fbe0074
:1011b000869fbe003400f80000002000a0018800d7
:1011c0000c00fa00224480003344800030002000ec
:1011d00001002000800f5100818f5900020036006d
:1011e0008428ef008628ef002044800031448000ee
:1011f0001200200003002000820f5000838f58004f
:10120000860032001200200003002000820f5000f0
:10121000838f58000b0039002200200003002000bb
:10122000820f5000838f5800f000320032002000ff
:1012300003002000820f5000838f58005f013200ae
:10124000d2013700001a80008000eb00e0428800e5
:10125000f1428800e0428000f1428000d207200085
:101260000289b900020178006002b90084017800a7
:1012700003014100d30720000300b8000101410031
:1012800082007800b604070002802c00f34d240091
:1012900041040700910407000043880011438800bf
:1012a000004380001143800042062000030020001c
:1012b0007b040700008fbe009e009000c0f92f0045
:1012c0000088b900000178009e0078000080eb00e3
:1012d0000088b90000007800000141009e007800fd
:1012e000c0f92f000008b800010141008200780019
:1012f00002438000134380000000410081804900c8
:10130000a2002000030020006504070020079800c9
:10131000310798009e009000c0f92f000088b900a6
:10132000000078001e0178008080eb000191b90078
:1013300082007800010040001e017800c1f92f00f2
:101340000111b8000300400080017800be00900049
:1013500060ff2f000088b90000027800ae00900006
:101360000080eb000088b900000078000002420015
:10137000ae00900060ff2f000008b800010242009c
:10138000840078000201400083814800004380000f
:10139000114380000200400083804800400798000d
:1013a000510798001e0078000040780002c3b30087
:1013b00082404000107c2400014878002e009000fc
:1013c0000040780002c3b30082404000207c24002b
:1013d000014878004e0090000040780002c3b3003e
:1013e00082404000307c240001487800411b80008e
:1013f00000fe2f00008060005000b300401b8800fa
:10140000204480003144800061004000e0804800ba
:1014100020448800314488005c013700001a8000b5
:101420008000eb00e0428800f1428800e04280004a
:10143000f1428000420b20000289b90002017800cd
:101440006002b9008401780003014100430b2000d1
:101450000300b8000101410082007800f23f200043
:10146000030020000e040700004388001143880099
:10147000004380001143800042062000030020004a
:1014800007040700008fbe009e009000c0f92f00e7
:101490000088b900000178009e0078000080eb0011
:1014a0000088b90000007800000141009e0078002b
:1014b000c0f92f000008b800010141008200780047
:1014c00002438000134380000000410081804900f6
:1014d000a200200003002000f1030700200798006d
:1014e000310798009e009000c0f92f000088b900d5
:1014f000000078001e0178008080eb000191b900a7
:1015000082007800010040001e017800c1f92f0020
:101510000111b8000300400080017800be00900077
:1015200060ff2f000088b90000027800ae00900034
:101530000080eb000088b900000078000002420043
:10154000ae00900060ff2f000008b80001024200ca
:10155000840078000201400083814800004380003d
:10156000114380000200400083804800400798003b
:10157000510798001e0078000040780002c3b300b5
:1015800082404000e07a2400014878002e0090005c
:101590000040780002c3b30082404000f07a24008b
:1015a000014878004e0090000040780002c3b3006c
:1015b00082404000007b240001487800411b8000ed
:1015c00000fe2f00008060000030a000401b88005b
:1015d000204480003144800061004000e0804800e9
:1015e0002044880031448800e8003700001a800059
:1015f0008000eb00e0428800f1428800e042800079
:10160000f1428000d20220000289b9000201780074
:101610006002b9008401780003014100d302200078
:101620000300b8000101410082007800f23f200071
:10163000030020009a03070000438800114388003c
:101640000043800011438000420620000300200078
:1016500093030700008fbe009e009000c0f92f008a
:101660000088b900000178009e0078000080eb003f
:101670000088b90000007800000141009e00780059
:10168000c0f92f000008b800010141008200780075
:101690000243800013438000000041008180490024
:1016a000a2002000030020007d030700200798000f
:1016b000310798009e009000c0f92f000088b90003
:1016c000000078001e0178008080eb000191b900d5
:1016d00082007800010040001e017800c1f92f004f
:1016e0000111b8000300400080017800be009000a6
:1016f00060ff2f000088b90000027800ae00900063
:101700000080eb000088b900000078000002420071
:10171000ae00900060ff2f000008b80001024200f8
:10172000840078000201400083814800004380006b
:101730001143800002004000838048004007980069
:10174000510798001e0078000040780002c3b300e3
:1017500082404000407d2400014878002e00900027
:101760000040780002c3b30082404000507d240056
:10177000014878004e0090000040780002c3b3009a
:1017800082404000607d240001487800411b8000b9
:1017900000fe2f00008060009000b300401b880016
:1017a000204480003144800061004000e080480017
:1017b000204488003144880074003700001a8000fb
:1017c0008000eb00e0428800f1428800e0428000a7
:1017d000f1428000d20220000289b90002017800a3
:1017e0006002b9008401780003014100d3022000a7
:1017f0000300b8000101410082007800f23f2000a0
:1018000003002000260307000043880011438800de
:1018100000438000114380004206200003002000a6
:101820001f030700008fbe009e009000c0f92f002c
:101830000088b900000178009e0078000080eb006d
:101840000088b90000007800000141009e00780087
:10185000c0f92f000008b8000101410082007800a3
:101860000243800013438000000041008180490052
:10187000a2002000030020000903070020079800b1
:10188000310798009e009000c0f92f000088b90031
:10189000000078001e0178008080eb000191b90003
:1018a00082007800010040001e017800c1f92f007d
:1018b0000111b8000300400080017800be009000d4
:1018c00060ff2f000088b90000027800ae00900091
:1018d0000080eb000088b9000000780000024200a0
:1018e000ae00900060ff2f000008b8000102420027
:1018f000840078000201400083814800004380009a
:101900001143800002004000838048004007980097
:10191000510798001e0078000040780002c3b30011
:1019200082404000707e2400014878002e00900024
:101930000040780002c3b30082404000807e240053
:10194000014878004e0090000040780002c3b300c8
:1019500082404000907e240001487800411b8000b6
:1019600000fe2f00008060000020a000401b8800c7
:10197000204480003144800061004000e080480045
:1019800020448800314488000000000086a0a9009f
:101990006023a8000080fa003400f9004f03be0065
:1019a0004f02be004f01be004f00be003600f900de
:1019b000004006003600f800809fbe00829fbe00f7
:1019c000849fbe00869fbe003400f8000000200007
:1019d000a00188000c00fa0002448000134480003b
:1019e0003000200001002000800f5100818f59003d
:1019f000020036008028ef008228ef0000448000bb
:101a0000114480001200200003002000820f5000cb
:101a1000838f58008900320012002000030020004c
:101a2000820f5000838f58000b00390022002000e5
:101a300003002000820f5000838f5800f300320013
:101a40003200200003002000820f5000838f5800d6
:101a500062013200d5013700001880008000eb00e1
:101a6000c0428800d1428800c0428000d14280003c
:101a7000520a20000289b900020178006002b90010
:101a80008401780003014100530a20000300b800dc
:101a90000101410082007800b102070002002a0023
:101aa000734024003c0207000200200003222400af
:101ab000db0107008902070000438800114388000a
:101ac00000438000114380004206200003002000f4
:101ad00073020700008fbe009e009000c0f92f0027
:101ae0000088b900000178009e0078000080eb00bb
:101af0000088b90000007800000141009e007800d5
:101b0000c0f92f000008b8000101410082007800f0
:101b1000024380001343800000004100818049009f
:101b2000a2002000030020005d02070020079800ab
:101b3000310798009e009000c0f92f000088b9007e
:101b4000000078001e0178008080eb000191b90050
:101b500082007800010040001e017800c1f92f00ca
:101b60000111b8000300400080017800be00900021
:101b700060ff2f000088b90000027800ae009000de
:101b80000080eb000088b9000000780000024200ed
:101b9000ae00900060ff2f000008b8000102420074
:101ba00084007800020140008381480000438000e7
:101bb00011438000020040008380480040079800e5
:101bc000510798001e0078000040780002c3b3005f
:101bd00082404000107c2400014878002e009000d4
:101be0000040780002c3b30082404000207c240003
:101bf000014878004e0090000040780002c3b30016
:101c000082404000307c2400014878004119800067
:101c100000fe2f00008060005000b30040198800d3
:101c2000004480001144800061004000e0804800d2
:101c300000448800114488005c01370000188000cf
:101c40008000eb00c0428800d1428800c042800082
:101c5000d1428000420b20000289b90002017800c5
:101c60006002b9008401780003014100430b2000a9
:101c70000300b8000101410082007800f23f20001b
:101c8000030020000602070000438800114388007b
:101c90000043800011438000420620000300200022
:101ca000ff010700008fbe009e009000c0f92f00ca
:101cb0000088b900000178009e0078000080eb00e9
:101cc0000088b90000007800000141009e00780003
:101cd000c0f92f000008b80001014100820078001f
:101ce00002438000134380000000410081804900ce
:101cf000a200200003002000e9010700200798004f
:101d0000310798009e009000c0f92f000088b900ac
:101d1000000078001e0178008080eb000191b9007e
:101d200082007800010040001e017800c1f92f00f8
:101d30000111b8000300400080017800be0090004f
:101d400060ff2f000088b90000027800ae0090000c
:101d50000080eb000088b90000007800000242001b
:101d6000ae00900060ff2f000008b80001024200a2
:101d70008400780002014000838148000043800015
:101d80001143800002004000838048004007980013
:101d9000510798001e0078000040780002c3b3008d
:101da00082404000e07a2400014878002e00900034
:101db0000040780002c3b30082404000f07a240063
:101dc000014878004e0090000040780002c3b30044
:101dd00082404000007b24000148780041198000c7
:101de00000fe2f00008060000030a0004019880035
:101df000004480001144800061004000e080480001
:101e00000044880011448800e80037000018800072
:101e10008000eb00c0428800d1428800c0428000b0
:101e2000d1428000420b20000289b90002017800f3
:101e30006002b9008401780003014100430b2000d7
:101e40000300b8000101410082007800f23f200049
:101e5000030020009201070000438800114388001e
:101e60000043800011438000420620000300200050
:101e70008b010700008fbe009e009000c0f92f006c
:101e80000088b900000178009e0078000080eb0017
:101e90000088b90000007800000141009e00780031
:101ea000c0f92f000008b80001014100820078004d
:101eb00002438000134380000000410081804900fc
:101ec000a2002000030020007501070020079800f1
:101ed000310798009e009000c0f92f000088b900db
:101ee000000078001e0178008080eb000191b900ad
:101ef00082007800010040001e017800c1f92f0027
:101f00000111b8000300400080017800be0090007d
:101f100060ff2f000088b90000027800ae0090003a
:101f20000080eb000088b900000078000002420049
:101f3000ae00900060ff2f000008b80001024200d0
:101f40008400780002014000838148000043800043
:101f50001143800002004000838048004007980041
:101f6000510798001e0078000040780002c3b300bb
:101f700082404000407d2400014878002e009000ff
:101f80000040780002c3b30082404000507d24002e
:101f9000014878004e0090000040780002c3b30072
:101fa00082404000607d2400014878004119800093
:101fb00000fe2f00008060009000b30040198800f0
:101fc000004480001144800061004000e08048002f
:101fd0000044880011448800740037000018800015
:101fe0008000eb00c0428800d1428800c0428000df
:101ff000d1428000420b20000289b9000201780022
:102000006002b9008401780003014100430b200005
:102010000300b8000101410082007800f23f200077
:10202000030020001e0107000043880011438800c0
:10203000004380001143800042062000030020007e
:1020400017010700008fbe009e009000c0f92f000e
:102050000088b900000178009e0078000080eb0045
:102060000088b90000007800000141009e0078005f
:10207000c0f92f000008b80001014100820078007b
:10208000024380001343800000004100818049002a
:10209000a200200003002000010107002007980093
:1020a000310798009e009000c0f92f000088b90009
:1020b000000078001e0178008080eb000191b900db
:1020c00082007800010040001e017800c1f92f0055
:1020d0000111b8000300400080017800be009000ac
:1020e00060ff2f000088b90000027800ae00900069
:1020f0000080eb000088b900000078000002420078
:10210000ae00900060ff2f000008b80001024200fe
:102110008400780002014000838148000043800071
:10212000114380000200400083804800400798006f
:10213000510798001e0078000040780002c3b300e9
:1021400082404000707e2400014878002e009000fc
:102150000040780002c3b30082404000807e24002b
:10216000014878004e0090000040780002c3b300a0
:1021700082404000907e2400014878004119800090
:1021800000fe2f00008060000020a00040198800a1
:10219000004480001144800061004000e08048005d
:1021a00000448800114488000000000085a0a900b8
:1021b0002023a8000080fa003400f9004f03be007d
:1021c0004f02be004f01be004f00be003600f900b6
:1021d00000400600801f78003400f8000000200056
:1021e000a00188000000fa00704480000000e000b8
:1021f000020032002023a800010037006023a8005d
:102200008700a9000080fa003400f9004f00780030
:10221000004006000040da000000fe00000005005b
:1022200003f0a200889fbe008a9fbe008c1f78002a
:1022300009010700100133006450e1004f00320033
:102240006420e1005200320003826c0007003b0072
:102250000905d0000306d000820f54000c065d0073
:10226000020039000200320089017800030678007c
:102270008582550004003d000003fd008103fd0040
:102280008502ea008b854200840f720002003b0049
:1022900060001000e08018006011b8000005eb003d
:1022a0007a28e1000a00390006007800c75ddd00e9
:1022b000f707b200878075002d003700828171001a
:1022c0000a017800610560008180d1000080d300a0
:1022d0008502e900f9ff3b000604400087844800be
:1022e00002003b0060041400e0841c000988a30085
:1022f000070032008a8171008281710061016400ef
:102300008904d1000884d3008b05e800170037004a
:102310000978a30013003a000b00e000130034001a
:102320008b05e9000804440089844c000a447400c9
:102330000978a3000d003a000b00e000070034000c
:102340008b05e9000804440089844c0001003a0030
:102350000b0020000978a300f7ff32000001eb001a
:1023600002003700828171000a0178007f000700b7
:102370000cf0a70001f0a000c80037006420e100c5
:1023800002003a00838f6c00c80033000801be00d1
:102390000200be00c1003700889fbe008a9fbe00b9
:1023a0008c1f7800ac000700b300330003866c007c
:1023b0006450e1002e0032006420e100330032005e
:1023c0006150e1002f0032006120e1003100320055
:1023d00085855500eb07b0000900200008042000a7
:1023e000050037000804440089844c000a003100cd
:1023f0000603430087834b000001530081815b008b
:10240000f8ff33000203be000800a00008044400e7
:1024100089844c00f6ff3900c639dd008301730062
:1024200001003200130020008904d1000884d30089
:102430000998a300050032000800a7000300a000cf
:102440008904d1000884d3008b05e8008904d100f9
:102450000884d3000001eb000281d2004300070092
:1024600001f0a1000cf0a70001f0a0008b003700e4
:102470006420e1008d0032000801be000200be00b1
:10248000f7ff37006120e100880032006000b800eb
:10249000f3ff37000000200001f82700f0ff3700ad
:1024a000839f68000100e00002003d006000100012
:1024b000e08018000300e00002003d006001110010
:1024c000e08119007c0007004f00e00002003b00a3
:1024d00060001000e0801800000006000001be004f
:1024e000480007000470a70003f0a1006509b100cf
:1024f000160032000d0035006828e10006003500a6
:10250000f0ff2f00f1ff27000300e00013003b0065
:102510000100280000000500000040008180480004
:102520008502e900fcff3a0008003700f88f4200fe
:1025300002003c008000eb00000005008100d1009b
:102540000080d3008502e800fcff3a000300e000b1
:1025500002003b0060001000e08018000000060050
:102560004f89de008201780063003700810020007f
:10257000618055000b003d000b00200061fe2f0024
:102580000100e1001d0034008281710061016400de
:102590008904d1000884d3000000e800faff3a0063
:1025a0007100200061006400030070000200600000
:1025b0000900320061044400e0844c000988a50051
:1025c000050032008b05e8006808e10002003a00cf
:1025d0008904d1000884d300f20f20000258e100e2
:1025e00005003d00c75ddd00f907b2008980750078
:1025f00008007800000006000bf827008b00780028
:1026000000000500c70ade00f107b200f50fb200b6
:1026100008003200e1cf4200020032000170a00049
:1026200024000500810f700001003200040805003d
:1026300044000500810f700002003a0014000500fc
:102640008502e9000000400081c04800fcff3b001b
:102650000170a000240005000004be00e9ff07008f
:102660000003be000405be000200be00e5ff070037
:10267000844f7500000006000200be006450e100b7
:10268000050036006420e100020036000968a3005e
:1026900001003a000800be000160a0004f0678006b
:1026a0004f05be004f04be0000000600f0ff2f00e3
:1026b000f1ff2700f9ff37006022b8000602200072
:1026c0000000d0008180d2000482d2008582d20036
:1026d0000000a0000202520083825a000300310071
:1026e0000202420083824a000000a1000603e900c2
:1026f000f3ff3a0000000600881f7800030478000a
:102700000300e00007003d0060001000e0801800ba
:1027100060011900e081190002003b0001f02d006a
:10272000030037000400070008f0a70001f0a00034
:102730004f04780000000600889fbe008a9fbe00fc
:1027400000827000040271000482710026003200d1
:102750000004be000200be006011b8006b0920003a
:10276000950220000182cf000a0039000541b10026
:102770000082cf00070039000541b1000982cf0077
:10278000040039000541b1000882cf000100390082
:102790000541b10005425200120032000a003b0020
:1027a00082817100610164008100d1000080d3004a
:1027b0008984d3000884d3008b05e8000442e80034
:1027c000f7ff3a00070037000804440089844c00f2
:1027d00000004800818048008b05e9000442e900c0
:1027e000f9ff3a0061ff07004f05be004f04be002d
:0427f00000000600df
:020000040000fa
:1027f400473500003a5400003d2d00002d430000f1
:10280400205000006f7400003d2d00002d2d0000ad
:1028140054690000656d0000706f00003a200000ec
:102824002d2d00002d2000002d2d00002d20000056
:0428340000000000a0
:020000040000fa
:102838000800fa00300798000000eb002007980015
:102848000000eb00000f78001a0037000000eb00d2
:1028580010079800130037002e009000be0090006b
:102868000080400010407800004178001e00780089
:10287800837624007300b900800078001e00900061
:102888000080400000804100024878002e0090003f
:102898000000e800200798001e0090000000e800f3
:1028a800100798001e009000f20f5000eaff340055
:1028b8001e0fe8001e007800e70f5000e3ff340009
:1028c8000080fa00000006000000fa00a11680004f
:1028d80000042000008060000000e00005003a00cd
:1028e800c422ef005428ef00100020002043880085
:1028f8006628ef00a1168000000820000080600014
:102908000000e00005003a00c422ef005628ef005e
:1029180010002000304388006428ef004016800033
:10292800680060000000e00005003a005628ef004b
:102938006628ef006428ef00f00f200020168800ba
:1029480001408000900f2000808f50003b00340031
:1029580030438000e10f50001f003a00b042800071
:102968000000e00006003a00100820002016880049
:10297800b04280000000e800b04288000c00370038
:1029880021168000000f2000008060008000d10028
:10299800201680006f0060000000400001007000f9
:1029a80020168800b04280000000e800b04288008d
:1029b800b0428000e40f500002003400f00f200005
:1029c80020168800b0428000e50f50001a0034003d
:1029d8005628ef001800370020438000e10f500010
:1029e80015003a00a04280000000e00005003a000f
:1029f800c402a800a04280000000e800a0428800ad
:102a080006003700201680000000400020168800cd
:102a1800a04280000000e800a0428800a042800098
:102a2800e80f500004003400100020002016880031
:102a380010002000a04288000028ef00a1168000a6
:102a480000002200008060000000e00003003a005f
:102a58006628ef006428ef00c422ef000080fa0027
:102a6800000006000800fa00300798000000eb009c
:102a7800200798000000eb00000f780018003700ce
:102a88000000eb0010079800110037002e0090009e
:102a9800be00900000804000904078001e00780042
:102aa800c2922000c401dd001e0090000080410099
:102ab80000004100014878002e0090000000e80066
:102ac800200798001e0090000000e80010079800fa
:102ad8001e009000ef0f5000ecff34001e0fe800be
:102ae8001e007800e10f5000e5ff34000080fa0076
:102af800000006001400fa001428ef00c00480004b
:102b08004f00de000040780080407800d09520001b
:102b180001487800d00480004300de006140600076
:102b280080407800e095200001487800a0048000eb
:102b38004800de006140600080407800f095200089
:102b48000148780099e0a9009a60a9009500a900b9
:102b5800801180004f00de0000407800804078003f
:102b68001096200001487800901180004a00de008d
:102b7800614060008040780020962000014878007d
:102b8800a00480004400de006140600080407800be
:102b98003096200001487800001c80004f00de00bd
:102ba8000040780080407800409620000148780076
:102bb80031e2a90031e2a9003342a90097c0a90077
:102bc80081e3a9009480a90040a7a9000003200080
:102bd800303a8800213a8000f0f32f00008060002e
:102be800203a8800213a800000fe2f000080600013
:102bf800203a8800213a8000f0ff28008080600099
:102c08000000230001007000203a8800213a80006b
:102c1800f0f32f00008060000060a000203a8800d8
:102c28002200200080072000a10920003374200022
:102c38008049780081497800824978001200200094
:102c4800600420007105200023742000804978006a
:102c5800814978008249780000000000113a80001c
:102c6800000027008080600000002200808f500054
:102c7800faff3a0000202100a1072000008fbe00c3
:102c88001e00be008100d1000080d30020079800fc
:102c980031079800005822000100200040079800e2
:102ca800510798004e019000de0190002e00900020
:102cb800be0090007efe07004e09dd004200de00e7
:102cc80000007100c208de0061005000e08058007a
:102cd80060079800710798004e019000de0190008f
:102ce8002e009000be00900071fe07004c09dd0028
:102cf8004400de0000007100c408de0061005000de
:102d0800e0805800000f9800110f98006e009000a6
:102d1800c011880031e2a80097c0a8000000000098
:102d2800000000000000000000000000000000009b
:102d38001096200010407800614060000080fb0081
:102d48004f00dd0082118000f1ff27008100610043
:102d58000100700080118800209620001040780043
:102d6800614060000080fb00610060004a00dd00f7
:102d780092118000f1bf2f008100610001007000f6
:102d88009011880040962000104078006140600053
:102d98000080fb004f00dd00021c8000f1ff2700cf
:102da8008100610001007000001c8800309620003e
:102db80010407800614060000080fb006100600006
:102dc8004400dd00a2048000f1fe2f0081006100b4
:102dd80001007000a004880083e3a80000c4290053
:102de800600888000e21ef00f0ed2200100888002e
:102df800f0f92000b0098800f0f9200040098800a7
:102e0800d095200010407800614060000080fb00f1
:102e18004f00dd00c2048000f1ff2700810061003f
:102e280001007000c0048800e09520001040780080
:102e3800614060000080fb00610060004300dd002d
:102e4800d204800071ff2f00810061000100700032
:102e5800d0048800f09520001040780061406000a0
:102e68000080fb00610060004800dd00a2048000d3
:102e7800f1ef2f008100610001007000a0048800bc
:102e88000080fa00000006001400fa00100020007c
:102e9800a0408800c00480004f00de000040780099
:102ea800804078005095200001487800d0048000c8
:102eb8004300de006140600080407800609520009b
:102ec80001487800a00480004800de0061406000ee
:102ed800804078007095200001487800a0048000a8
:102ee8004300de006140600080407800809520004b
:102ef8000148780099e0a9009a60a9009500a90006
:102f08009460a900801180004f00de000040780026
:102f1800804078009095200001487800901180004a
:102f28004a00de006140600080407800a0952000e3
:102f380001487800a00480004400de006140600081
:102f480080407800b095200001487800001c80007f
:102f58004f00de000040780080407800c0952000d7
:102f68000148780031e2a90031e2a9003342a90002
:102f780097c0a80081e3a9009480a900250a07004a
:102f880000402b00414c2000008fbe001e00be00f8
:102f98008100d1000080d3002007980031079800f5
:102fa80000582200010020004007980051079800af
:102fb8004e019000de0190002e009000be009000af
:102fc800bbfd07004e09dd004200de000000710075
:102fd800c208de0061005000e080580060079800d9
:102fe800710798004e019000de0190002e009000bd
:102ff800be009000aefd07004c09dd004400de0075
:1030080000007100c408de0061005000e080580034
:10301800000f9800110f98006e009000c0118800f2
:1030280031e2a80097c0a8000000000000000000de
:103038000000000000000000000000009095200043
:1030480010407800614060000080fb004f00dd0008
:1030580082118000f1ff27008100610001007000eb
:1030680080118800a0952000104078006140600021
:103078000080fb00610060004a00dd0092118000c2
:10308800f1bf2f00810061000100700090118800dd
:10309800c095200010407800614060000080fb006f
:1030a8004f00dd00021c8000f1ff27008100610055
:1030b80001007000001c8800b095200010407800c6
:1030c800614060000080fb00610060004400dd009a
:1030d800a2048000f1fe2f00810061000100700051
:1030e800a004880083e3a80000a8210060088800e5
:1030f8006000200070088800f04b2d001008880040
:10310800f0c32900b0098800f0c3290040098800ed
:103118005095200010407800614060000080fb005e
:103128004f00dd00c2048000f1ff2700810061002c
:1031380001007000c00488006095200010407800ed
:10314800614060000080fb00610060004300dd001a
:10315800d204800071ff2f0081006100010070001f
:10316800d00488007095200010407800614060000d
:103178000080fb00610060004800dd00a2048000c0
:10318800f1ef2f008100610001007000a0048800a9
:103198008095200010407800614060000080fb00ae
:1031a800610060004300dd00a204800071ff2f0071
:1031b8008100610001007000a00488000080fa000e
:1031c800000006000000fa0006003700c04080003a
:1031d800d140800061004000e0804800c040880085
:1031e800d140880020048000680060000000e000f2
:1031f800f6ff3200a0408000e10f50000f003a00b7
:10320800c0408000d1408000d20720000289b90068
:10321800020178006002b9008401780003014100ce
:10322800d30720000300b8000101410082007800a4
:10323800c0408800d140880011003700a0408000bd
:103248000000e0000e003a00c0408000d14080003d
:10325800224e20000289b900020178006002b900fc
:103268008401780003014100234e20000300b800c8
:103278000101410082007800c0408800d1408800e8
:10328800c0408000d1408000026c2c00d302200096
:103298000000510081805900c0408800d14088005a
:1032a800c0408000d140800002102e00535f2000f3
:1032b800fffc07004041880051418800c44080005d
:1032c800d5408000404180005141800002102e000e
:1032d8000289b90002017800535f20000383b90016
:1032e800860178000301410003102e000300b80096
:1032f80001014100820078000000520081805a00dc
:103308000268290083092000e9fc07006041880061
:1033180071418800c4408000d54080004041800051
:103328005141800002102e000289b9000201780084
:10333800535f20000383b900860178000301410030
:1033480003102e000300b80001014100820078003c
:103358000002520081825a00604180007141800061
:10336800026829000289b900020178008309200057
:103378000383b9008601780003014100036829002e
:103388000300b800010141008200780000005200eb
:1033980081805a0002242400f3002000c4fc0700a6
:1033a8008041880091418800c4408000d540800059
:1033b800404180005141800002102e000289b9006e
:1033c80002017800535f20000383b900860178006a
:1033d8000301410003102e000300b8000101410061
:1033e800820078000002520081825a006041800009
:1033f80071418000026829000289b9000201780041
:10340800830920000383b900860178000301410085
:10341800036829000300b800010141008200780018
:103428000002520081825a00804180009141800050
:10343800022424000289b900020178006f03b90050
:103448008601780003014100032424000300b8002a
:1034580001014100820078000000520081805a007a
:10346800026a28001300200091fc0700a041880090
:10347800b1418800c4408000d540800040418000b0
:103488005141800002102e000289b9000201780023
:10349800535f20000383b9008601780003014100cf
:1034a80003102e000300b8000101410082007800db
:1034b8000002520081825a00604180007141800000
:1034c800026829000289b9000201780083092000f6
:1034d8000383b900860178000301410003682900cd
:1034e8000300b80001014100820078000002520088
:1034f80081825a008041800091418000022424008a
:103508000289b900020178006f03b90086017800ca
:1035180003014100032424000300b8000101410015
:10352800820078000002520081825a00a041800087
:10353800b1418000026a28000289b90002017800be
:103548006103b9008601780003014100036a28007d
:103558000300b80001014100820078000000520019
:1035680081805a00027122000300200050fc0700ed
:10357800c0418800d1418800c4408000d540800007
:10358800404180005141800002102e000289b9009c
:1035980002017800535f20000383b9008601780098
:1035a8000301410003102e000300b800010141008f
:1035b800820078000002520081825a006041800037
:1035c80071418000026829000289b900020178006f
:1035d800830920000383b9008601780003014100b4
:1035e800036829000300b800010141008200780047
:1035f8000002520081825a0080418000914180007f
:10360800022424000289b900020178006f03b9007e
:103618008601780003014100032424000300b80058
:1036280001014100820078000002520081825a00a4
:10363800a0418000b1418000026a28000289b900d7
:10364800020178006103b900860178000301410096
:10365800036a28000300b8000101410082007800d5
:103668000002520081825a00c0418000d14180008e
:10367800027122000289b900020178006003b900d2
:103688008601780003014100037122000300b8009d
:1036980001014100820078000000520081805a0038
:1036a800823e20000300200001fc0700e041880062
:1036b800f1418800c4408000d5408000404180002e
:1036c8005141800002102e000289b90002017800e1
:1036d800535f20000383b90086017800030141008d
:1036e80003102e000300b800010141008200780099
:1036f8000002520081825a006041800071418000be
:10370800026829000289b9000201780083092000b3
:103718000383b9008601780003014100036829008a
:103728000300b80001014100820078000002520045
:1037380081825a0080418000914180000224240047
:103748000289b900020178006f03b9008601780088
:1037580003014100032424000300b80001014100d3
:10376800820078000002520081825a00a041800045
:10377800b1418000026a28000289b900020178007c
:103788006103b9008601780003014100036a28003b
:103798000300b800010141008200780000025200d5
:1037a80081825a00c0418000d1418000027122000c
:1037b8000289b900020178006003b9008601780027
:1037c80003014100037122000300b8000101410018
:1037d800820078000002520081825a00e041800095
:1037e800f1418000823e20000289b9000201780080
:1037f8006003b9008601780003014100833e200080
:103808000300b80001014100820078000000520066
:1038180081805a004206200003002000a4fb070014
:103828000042880011428800c4408000d5408000d2
:10383800404180005141800002102e000289b900e9
:1038480002017800535f20000383b90086017800e5
:103858000301410003102e000300b80001014100dc
:10386800820078000002520081825a006041800084
:1038780071418000026829000289b90002017800bc
:10388800830920000383b900860178000301410001
:10389800036829000300b800010141008200780094
:1038a8000002520081825a008041800091418000cc
:1038b800022424000289b900020178006f03b900cc
:1038c8008601780003014100032424000300b800a6
:1038d80001014100820078000002520081825a00f2
:1038e800a0418000b1418000026a28000289b90025
:1038f800020178006103b9008601780003014100e4
:10390800036a28000300b800010141008200780022
:103918000002520081825a00c0418000d1418000db
:10392800027122000289b900020178006003b9001f
:103938008601780003014100037122000300b800ea
:1039480001014100820078000002520081825a0081
:10395800e0418000f1418000823e20000289b900e8
:10396800020178006003b900860178000301410074
:10397800833e20000300b800010141008200780066
:103988000002520081825a000042800011428000e9
:10399800420620000289b900020178006003b900dc
:1039a8008601780003014100430620000300b800a7
:1039b80001014100820078000000520081805a0015
:1039c800a20020000300200039fb070020428800e5
:1039d80031428800c4408000d540800040418000ca
:1039e8005141800002102e000289b90002017800be
:1039f800535f20000383b90086017800030141006a
:103a080003102e000300b800010141008200780075
:103a18000002520081825a0060418000714180009a
:103a2800026829000289b900020178008309200090
:103a38000383b90086017800030141000368290067
:103a48000300b80001014100820078000002520022
:103a580081825a0080418000914180000224240024
:103a68000289b900020178006f03b9008601780065
:103a780003014100032424000300b80001014100b0
:103a8800820078000002520081825a00a041800022
:103a9800b1418000026a28000289b9000201780059
:103aa8006103b9008601780003014100036a280018
:103ab8000300b800010141008200780000025200b2
:103ac80081825a00c0418000d141800002712200e9
:103ad8000289b900020178006003b9008601780004
:103ae80003014100037122000300b80001014100f5
:103af800820078000002520081825a00e041800072
:103b0800f1418000823e20000289b900020178005c
:103b18006003b9008601780003014100833e20005c
:103b28000300b80001014100820078000002520041
:103b380081825a0000428000114280004206200023
:103b48000289b900020178006003b9008601780093
:103b580003014100430620000300b80001014100b1
:103b6800820078000002520081825a0020428000c0
:103b7800314280006a09b900020178006003b90087
:103b88008601780003014100a30020000300b8006b
:103b980001014100820078000000520081805a0033
:103ba80040428800514288004041800051418000d5
:103bb8000040780002c3b30082404000007824002f
:103bc8000148780060418000714180000040780021
:103bd80002c3b300824040001078240001487800f6
:103be80080418000914180000040780002c3b3000a
:103bf800824040002078240001487800a0418000dd
:103c0800b14180000040780002c3b3008240400008
:103c18004078240001487800c0418000d1418000ec
:103c28000040780002c3b30082404000507824006e
:103c380001487800e0418000f141800000407800b0
:103c480002c3b30082404000607824000148780035
:103c580000428000114280000040780002c3b30097
:103c6800824040008078240001487800204280008b
:103c7800314280000040780002c3b3008240400017
:103c8800907824000148780040428000514280002a
:103c98000040780002c3b30082404000a0782400ae
:103ca800014878004c28ef004e28ef001828ef0054
:103cb8001a28ef008460a9000080fa0000000600be
:103cc8000800fa0010002000200798000000eb0010
:103cd800300798001428ef000080eb006019880076
:103ce8000080eb005019880006070700000000005c
:103cf8001116800000082000008060000000e0002d
:103d0800fbff3a00a116800000002200008060003e
:103d18000000e00004003200be060700100020008a
:103d2800a040880031003700a11680000000220062
:103d3800008060000000e0002c003a001428ef002a
:103d480040a7a90000032000303a8800213a8000eb
:103d5800f0f32f0000806000203a8800213a8000ac
:103d680000fe2f0000806000203a8800213a800081
:103d7800f0ff280080806000000023000100700030
:103d8800203a8800213a8000f0f32f00008060007c
:103d98000060a000203a8800220020008007200050
:103da800a1092000337420008049780081497800f7
:103db800824978001200200060042000710520006c
:103dc800237420008049780081497800824978006e
:103dd80000000000113a8000000027008080600089
:103de80000002200808f5000faff3a00b206070058
:103df800a03f29001bfb0700208920008cfa070040
:103e08001005070030060700b80507005f05070022
:103e1800320407005c0407002023a8003e060700c0
:103e28002e009000e10f50003a023a003e00900048
:103e38000000e0000a003200704480000000e0004a
:103e480007003200c1378200d0378200008040006e
:103e58000000d1008000eb00008fbe001d0037007d
:103e68003e0090000000e00007003200704480002f
:103e78000000e00004003a00403382008000eb00bc
:103e8800008fbe00130037003e0090000000e000e5
:103e980007003a00704480000000e000040032008f
:103ea800403782008000eb00008fbe000900370019
:103eb8003e0090000000e00006003a0070448000d8
:103ec8000000e00003003a00403382008000eb006d
:103ed800008fbe009e009000d00720000088b90027
:103ee800000178001e0078006000b900000078002a
:103ef800000141009e007800d00720000008b800ab
:103f0800010141008200780093f9070002802c002b
:103f1800f34d24001ef907006ef9070000438800de
:103f280011438800004380001143800042062000ae
:103f38000300200058f90700e0408800f14088009d
:103f480000438000114380000002be00e040800072
:103f5800f1408000420620000289b9000201780081
:103f68006003b90086017800030141004306200080
:103f78000300b800010141008200780000005200ef
:103f880081805a00a200200003002000c8f9070021
:103f980000418800114188000043800011438000df
:103fa8000002be00e0408000f14080004206200090
:103fb8000289b900020178006003b900860178001f
:103fc80003014100430620000300b800010141003d
:103fd800820078000002520081825a00004180006d
:103fe800114180006a09b900020178006003b90034
:103ff8008601780003014100a30020000300b800f7
:1040080001014100820078000000520081805a00be
:104018002041880031418800e0408000f140800064
:104028000040780002c3b30082404000107c2400a6
:10403800014878000041800011418000004078006c
:1040480002c3b30082404000207c2400014878006d
:1040580020418000314180000040780002c3b30055
:1040680082404000307c2400014878003e009000e7
:104078000000e0000a003200704480000000e00008
:1040880007003200e1378200f037820000804000ec
:104098000000d1008000eb00008fbe001d0037003b
:1040a8003e0090000000e0000700320070448000ed
:1040b8000000e00004003a00503382008000eb006a
:1040c800008fbe00130037003e0090000000e000a3
:1040d80007003a00704480000000e000040032004d
:1040e800503782008000eb00008fbe0009003700c7
:1040f8003e0090000000e00006003a007044800096
:104108000000e00003003a00503382008000eb001a
:10411800008fbe009e009000400b20000088b90070
:10412800000178001e0078006000b90000007800e7
:10413800000141009e007800400b20000008b800f4
:104148000101410082007800f23f200003002000b6
:10415800d1f807000043880011438800004380001d
:10416800114380004206200003002000caf807001f
:10417800e0408800f140880000438000114380003f
:104188000002be00e0408000f140800042062000ae
:104198000289b900020178006003b900860178003d
:1041a80003014100430620000300b800010141005b
:1041b800820078000000520081805a00a20020008e
:1041c800030020003af907000041880011418800e7
:1041d80000438000114380000002be00e0408000e0
:1041e800f1408000420620000289b90002017800ef
:1041f8006003b900860178000301410043062000ee
:104208000300b8000101410082007800000252005a
:1042180081825a0000418000114180006a09b9007a
:10422800020178006003b9008601780003014100ab
:10423800a30020000300b8000101410082007800bb
:104248000000520081805a002041880031418800d6
:10425800e0408000f14080000040780002c3b300d5
:1042680082404000e07a2400014878000041800044
:10427800114180000040780002c3b3008240400032
:10428800f07a240001487800204180003141800004
:104298000040780002c3b30082404000007b240045
:1042a800014878003e0090000000e0000a0032005b
:1042b800704480000000e00007003200613782008f
:1042c80070378200008040000000d1008000eb00c1
:1042d800008fbe001d0037003e0090000000e00087
:1042e80007003200704480000000e00004003a003b
:1042f800c03382008000eb00008fbe00130037003f
:104308003e0090000000e00007003a007044800082
:104318000000e00004003200603782008000eb00fb
:10432800008fbe00090037003e0090000000e0004a
:1043380006003a00704480000000e00003003a00e4
:10434800603382008000eb00008fbe009e0090006a
:10435800d00220000088b900000178001e00780013
:104368006000b90000007800000141009e0078005c
:10437800d00220000008b800010141008200780046
:10438800f23f20000300200043f8070000438800a4
:10439800114388000043800011438000420620003a
:1043a800030020003cf80700e0408800f140880046
:1043b80000438000114380000002be00e0408000fe
:1043c800f1408000420620000289b900020178000d
:1043d8006003b9008601780003014100430620000c
:1043e8000300b8000101410082007800000052007b
:1043f80081805a00a200200003002000acf80700ca
:10440800004188001141880000438000114380006a
:104418000002be00e0408000f1408000420620001b
:104428000289b900020178006003b90086017800aa
:1044380003014100430620000300b80001014100c8
:10444800820078000002520081825a0000418000f8
:10445800114180006a09b900020178006003b900bf
:104468008601780003014100a30020000300b80082
:1044780001014100820078000000520081805a004a
:104488002041880031418800e0408000f1408000f0
:104498000040780002c3b30082404000407d240001
:1044a80001487800004180001141800000407800f8
:1044b80002c3b30082404000507d240001487800c8
:1044c80020418000314180000040780002c3b300e1
:1044d80082404000607d2400014878003e00900042
:1044e8000000e0000a003200704480000000e00094
:1044f80007003200413782005037820000804000b8
:104508000000d1008000eb00008fbe001d003700c6
:104518003e0090000000e000070032007044800078
:104528000000e00004003a00d03382008000eb0075
:10453800008fbe00130037003e0090000000e0002e
:1045480007003a00704480000000e00004003200d8
:10455800703782008000eb00008fbe000900370032
:104568003e0090000000e00006003a007044800021
:104578000000e00003003a00703382008000eb0086
:10458800008fbe009e009000d00220000088b90075
:10459800000178001e0078006000b9000000780073
:1045a800000141009e007800d00220000008b800f9
:1045b8000101410082007800f23f20000300200042
:1045c800b5f70700004388001143880000438000c6
:1045d800114380004206200003002000aef70700c8
:1045e800e0408800f14088000043800011438000cb
:1045f8000002be00e0408000f1408000420620003a
:104608000289b900020178006003b90086017800c8
:1046180003014100430620000300b80001014100e6
:10462800820078000000520081805a00a200200019
:10463800030020001ef8070000418800114188008f
:1046480000438000114380000002be00e04080006b
:10465800f1408000420620000289b900020178007a
:104668006003b90086017800030141004306200079
:104678000300b800010141008200780000025200e6
:1046880081825a0000418000114180006a09b90006
:10469800020178006003b900860178000301410037
:1046a800a30020000300b800010141008200780047
:1046b8000000520081805a00204188003141880062
:1046c800e0408000f14080000040780002c3b30061
:1046d80082404000707e240001487800004180003c
:1046e800114180000040780002c3b30082404000be
:1046f800807e2400014878002041800031418000fc
:104708000040780002c3b30082404000907e24003d
:104718000148780010408000e10f5000c6013a00bf
:10472800c094200090407800207f24000148780041
:10473800d094200090407800307f24000148780011
:10474800e094200090407800407f240001487800e1
:10475800f094200090407800507f240001487800b1
:104768000095200090407800607f24000148780080
:104778001095200090407800707f24000148780050
:104788002095200090407800807f24000148780020
:104798003095200090407800907f240001487800f0
:1047a8004095200090407800a07f240001487800c0
:1047b800c09420009040780030c4b30080cf5000ef
:1047c800eb003a00d09420009040780010c4b30069
:1047d80080cf5000e6003a00e09420009040780036
:1047e80040c4b30080cf5000e1003a00009520009b
:1047f8009040780010c3b30080cf5000050032000d
:10480800009520009040780020c3b30080cf50006e
:1048180080013a00009520009040780010c3b30052
:1048280080cf500003003a00100020007044880038
:10483800010037008e28ef00209520009040780076
:1048480020c3b30080cf500005003200209520001f
:104858009040780030c3b30080cf500091003a00f8
:1048680061e3a90021e3a90095a0a90096a0a900e9
:104878009700a90099e3a90040952000904078008e
:1048880010c3b30080cf500004003a00c01c800061
:104898003000b300c01c88001f003700409520007e
:1048a8009040780020c3b30080cf500006003a0043
:1048b800c11c8000c0ff2f00008060000010a00015
:1048c800c01c8800140037004095200090407800f4
:1048d80030c3b30080cf500006003a00c11c8000ee
:1048e800c0ff2f00008060000000a000c01c8800ee
:1048f80009003700409520009040780040c3b3007d
:1049080080cf500004003a00c11c8000c0ff2f0077
:1049180000806000c01c880020952000904078002e
:1049280020c3b30080cf50000f003a00009520004c
:104938009040780010c3b30080cf500001003a00c7
:104948002183a800009520009040780020c3b30080
:1049580080cf500001003a006183a8000000eb00fe
:104968003007980013003700209520009040780009
:1049780030c3b30080cf50000e003a0000952000ed
:104988009040780010c3b30080cf500001003a0077
:104998002183a900009520009040780020c3b3002f
:1049a80080cf500001003a006183a9001000200068
:1049b80030079800009520009040780010c3b3009d
:1049c80080cf500017003a002043a8002343a800d6
:1049d8001119800030fc2f0000806000c000b30077
:1049e800101988004119800000fe2f000080600027
:1049f8000020a00040198800d11c800000f82f007a
:104a080000806000d000b300d01c8800806e2000b9
:104a1800e01c880000302000001d880021e3a80069
:104a28001b003700009520009040780020c3b30099
:104a380080cf500016003a006043a8006343a800e6
:104a4800111b800030fc2f0000806000c000b30004
:104a5800101b8800411b800000fe2f0000806000b2
:104a68000020a000401b8800d11c800000f82f0007
:104a7800008060005001b300d01c880080662000d0
:104a8800e01c880000342000001d880061e3a800b5
:104a980099e3a8009700a8001000200020079800bc
:104aa800e3003700209520009040780010c3b30041
:104ab80080cf5000d9003a0061e3a90021e3a900a2
:104ac80095a0a90096a0a9009700a90099e3a900bc
:104ad800009520009040780010c3b30080cf5000ac
:104ae80010003a002183a9002043a9002343a9000c
:104af8001119800030fc2f00008060001019880018
:104b08004119800000fe2f00008060000020a000f6
:104b18004019880021e3a80095a0a8002023a80038
:104b280010003700009520009040780020c3b300a3
:104b380080cf50000b003a006183a9006043a900b0
:104b48006343a900111b800030fc2f000080600027
:104b5800101b880086a0a90096a0a80061e3a80001
:104b68006023a8000000eb0020079800b000370081
:104b7800c09420009040780040c5b30080cf50001a
:104b880028003a00d09420009040780090c4b300e8
:104b980080cf500023003a00e09420009040780035
:104ba800d0c4b30080cf50001e003a00009520000a
:104bb8009040780010c3b30080cf500005003a0041
:104bc800c1020700c0922000a1c5b30001487800c7
:104bd80097003700009520009040780020c3b3006c
:104be80080cf500005003a00db020700c092200089
:104bf80091c5b300014878008d003700009520006a
:104c08009040780030c3b30080cf500085003a0050
:104c1800e5020700c092200081c5b3000148780072
:104c280083003700c09420009040780050c5b3003e
:104c380080cf50005a003a00d0942000904078006d
:104c480010c4b30080cf500055003a00e094200013
:104c58009040780020c5b30080cf500050003a0043
:104c680020952000104078000080fb000003b00071
:104c78008040880040952000104078000080fb00ac
:104c88000003b000904088002095200090407800f4
:104c980010c3b30080cf500032003a0097e0a9005b
:104ca80081e3a9009480a9008480a900e023ef0093
:104cb80080a0a900409520009040780010c3b30060
:104cc80080cf500004003a00001c80003000b30080
:104cd800001c88001f003700409520009040780095
:104ce80020c3b30080cf500006003a00011c8000aa
:104cf800c0ff2f00008060000010a000001c88008a
:104d080014003700409520009040780030c3b3006d
:104d180080cf500006003a00011c8000c0ff2f0021
:104d2800008060000000a000001c88000900370017
:104d3800409520009040780040c3b30080cf5000d9
:104d480004003a00011c8000c0ff2f0000806000b2
:104d5800001c880081e3a8009480a80083e3a800d1
:104d680033003700209520009040780020c3b3001e
:104d780080cf50002d003a009480a90081e3a8005c
:104d8800011c8000c0ff2f0000806000001c88000c
:104d980083e3a80081e3a90097e0a8002400370076
:104da800c094200090407800f0c4b30080cf500039
:104db8001f003a00d09420009040780030c5b3001e
:104dc80080cf50001a003a00e0942000904078000c
:104dd80030c4b30080cf500015003a000095200081
:104de8009040780010c3b30080cf500002003a0012
:104df80040f707000e00370000952000904078002b
:104e080020c3b30080cf500009003a001ef8070005
:104e18000700370000000000050037000000000010
:104e28000300370000000000010037000000000008
:104e38000228ef0097c0a800a3f60700e1f80700d2
:104e4800f7fb37000000fa002023ef00011980006b
:104e5800000e200001007000001988002223ef00d6
:104e680025e3a9002119800000f02100010070004d
:104e78002019880030c0b30024e3b7003223ef00c4
:104e88002623ef002823ef004119800000fe2f00a1
:104e9800008060000020a000401988002e23ef0049
:104ea80000332000801988000080eb00501988002a
:104eb8000080eb00601988002c83a9002ca3a900ae
:104ec8002d03a9002d23a90085a0a90095a0a8005d
:104ed80021e3a8000080fa00000006000000fa00a4
:104ee8006023ef006183a800011b8000000e2000f2
:104ef80001007000001b88006043a8006223ef00d7
:104f08006343a800111b800030fc2f000080600064
:104f1800c000b300101b88006423ef0065e3a900fc
:104f2800211b800000f0210001007000201b880078
:104f380030c0b30064e3b7007223ef006623ef00cc
:104f48006823ef0000332000801b8800f0cc2f007e
:104f5800601b8800411b800000fe2f00008060005d
:104f68000020a000401b88006c83a9006ca3a90046
:104f78006d03a9006d23a90086a0a90096a0a90029
:104f88000080fa00000006000000fa002023ef006d
:104f98002183a80001198000000e20000100700084
:104fa800001988002043a8002223ef002343a8000b
:104fb8001119800030fc2f0000806000c000b30091
:104fc800101988002423ef0025e3a9002119800087
:104fd80000f02100010070002019880030c0b300e3
:104fe80024e3b7003223ef002623ef002823ef0045
:104ff8002e23ef0000332000801988000080eb008a
:10500800501988000080eb00601988004119800061
:1050180000fe2f00008060000020a00040198800da
:105028002c83a9002ca3a9002d03a9002d23a900d6
:1050380085a0a90095a0a9009823ef0099c3a9000d
:1050480099a3a900c11c8000f0fc2f00008060001b
:105058000050a000c01c8800c11c8000c0ff2f00a9
:1050680000806000c01c88009be3a900d11c800060
:1050780000f82f0000806000d000b300d01c88002a
:10508800806e2000e01c880000302000001d880091
:10509800e023ef0070002000101d8800c11c800074
:1050a800f0fc2f00008060000050a000c01c8800a9
:1050b800c11c8000c0ff2f0000806000c01c880059
:1050c8002183a8001119800030fc2f0000806000a7
:1050d800c000b300101988009119800080ff2f00cc
:1050e800008060000000a00090198800e023ef0015
:1050f8008700a9009700a80099e3a80021e3a80069
:105108002023a8000080fa00000006000200fa0030
:10511800004f7800e116800000f02f00008060004a
:10512800e01688009e00fb00e01680000100700079
:10513800e0168800d6a2a900cbe2a900d682a80072
:105148000000000000000000000000000000000057
:105158000000000000000000000000000000000047
:1051680000000000d682a900d6a2a8000080fa009c
:10517800000006000200fa00004f7800d6a2a9003d
:10518800cbe2a800e116800000f02f00008060004c
:10519800e01688009e00fb00e01680000100700009
:1051a800e0168800d682a800000000000000000079
:1051b80000000000000000000000000000000000e7
:1051c80000000000d682a900d6a2a8000080fa003c
:1051d800000006000000fa00e116800000f02f0031
:1051e80000806000e0168800d6a2a900cbe2a900e2
:1051f800d682a900c116800000f02f000080600050
:10520800c0168800d2a2a900c7e2a900d282a900cc
:105218000080fa00000006000200fa00000f780083
:105228002901070000000000404380009e0f500045
:10523800fdff3a006828ef0099e0a9000080fa0015
:10524800000006000000fa00e2ff0700f00020005e
:10525800f1ff07000000000000000000000000004f
:1052680000000000000000000000000080c3b30040
:10527800a6ff070050002000e7ff0700000000001d
:105288000000000000000000000000000000000016
:105298000000000080c3b3009cff070050002000fe
:1052a800ddff070000000000000000000000000013
:1052b800000000000000000080c3b30093ff070057
:1052c80050002000d4ff070000000000000000008c
:1052d80000000000000000000000000000000000c6
:1052e80000000000c0c0b30088ff07005000200085
:1052f800c9ff0700000000000000000000000000d7
:10530800000000000000000060c0b3007fff07003d
:1053180050002000c0ff070000000000000000004f
:105328000000000000000000000000000000000075
:105338000000000000000000000000000000000065
:105348000000000000000000000000000000000055
:105358000000000099e0a8000080fa0000000600a4
:105368000000fa0000000000000000000080fa00c1
:10537800000006000200fa00000f7800000000009c
:10538800000000000080fa00000006001400fa0087
:10539800a04080000000e0000400320000402b0024
:1053a800414c2000008fbe00030037000020210080
:1053b800a1072000008fbe001e00be008100d100a2
:1053c8000080d30020079800310798000058220079
:1053d8000100200040079800510798004e019000f6
:1053e800de0190002e009000be009000b0f407008f
:1053f8004e09dd004200de0000007100c208de0038
:1054080061005000e080580060079800710798001c
:105418004e019000de0190002e009000be0090002a
:10542800a3f407004c09dd004400de000000710011
:10543800c408de0061005000e0805800000f9800aa
:10544800110f98003022ef003062a8006e00900023
:10545800c01188003222ef0087c0a90087e0a900a8
:105468008c40a90097e0a90097c0a8003222a900a3
:1054780031e2a8003342a80000000000000000004c
:105488000000000000000000000000000080fa009a
:10549800000006000200fa00004f7800000000003b
:1054a8009111800000202000008060000000e000d2
:1054b800fbff3a001e80fb00a01188000080fa0064
:1054c800000006000000fa000000000090118000b3
:1054d800610060000000e000fcff3200b0118000b5
:1054e800004078000080fa00000006000000fa0082
:1054f8008023ef0081c3a80081a3a800011c8000bd
:10550800c0ff2f0000806000001c880083e3a90012
:10551800111c800000f82f0000806000f001b3002b
:10552800101c880080762000201c880080762000cf
:10553800301c880040232000401c8800700920008f
:10554800501c8800e023ef008480a9009480a80004
:0c55580081e3a8000080fa0000000600bb
:020000040000fa
:10556400680800000e000000000000008808000029
:105574000600000000000000920800009a000000ed
:10558400020000003d3d3d003d2049002e582e0004
:10559400473520003d3d3d003d0d0a0000544300c9
:1055a40050553a0030303000203030003020300088
:1055b40030300d000a002d002d2d2d002050490003
:1055c4004332340048202d002d2d2d000d0a0000fb
:1055d400506f7400656e6300696f6d006574200020
:1055e4005f5f5f005f0d0a00005465006d70650029
:1055f4007261740075726100205f5f005f5f0d006f
:105604000a004a006f797300746963006b205800c4
:10561400205f5f005f5f5f000d0a00004a6f790042
:1056240073746900636b200059205f005f5f5f0043
:105634005f0d0a0000636d00643a20002d2d2d00db
:105644002d2d2d002d2d2d0020201b005b4800004a
:10565400000000002c0900003a00000000000000d7
:1056640068470000980000000000000000080000e7
:1056740068000000000000008e0800000200000026
